:020000040800F2
:1000000000000824852A00081D2100081F2100087F
:1000100021210008232100082521000800000000FC
:100020000000000000000000000000002721000880
:1000300029210008000000002B2100082D210008C4
:10004000D52A0008D52A0008D52A0008D52A000894
:10005000D52A0008D52A0008D52A0008D52A000884
:10006000D52A0008D52A0008D52A0008352100081D
:10007000D52A0008D52A0008D52A0008D52A000864
:10008000D52A0008D52A000845210008D52A0008ED
:10009000D52A0008D52A0008D52A0008D52A000844
:1000A000D52A0008D52A0008552100086521000836
:1000B000D52A000875210008D52A0008D52A00088D
:1000C000D52A0008D52A0008D52A0008D52A000814
:1000D000D52A000885210008D52A0008D52A00085D
:1000E000D52A0008D52A0008000000009521000844
:1000F000D52A0008D52A0008D52A0008D52A0008E4
:10010000D52A0008D52A0008D52A0008D52A0008D3
:10011000D52A0008D52A0008D52A0008D52A0008C3
:10012000D52A0008D52A0008D52A0008D52A0008B3
:10013000D52A0008D52A0008D52A0008D52A0008A3
:1001400000000000000000000000000000000000AF
:10015000D52A0008D52A0008D52A0008D52A000883
:10016000D52A0008D52A0008D52A0008D52A000873
:10017000D52A0008D52A0008D52A0008D52A000863
:10018000D52A0008D52A0008D52A0008D52A000853
:10019000D52A0008D52A0008D52A0008D52A000843
:1001A000D52A0008D52A0008D52A0008D52A000833
:1001B000D52A0008D52A0008D52A0008D52A000823
:1001C000D52A0008D52A0008D52A0008D52A000813
:1001D000D52A0008D52A0008D52A0008D52A000803
:1001E000D52A0008D52A0008D52A0008D52A0008F3
:1001F000D52A0008D52A0008D52A0008D52A0008E3
:10020000D52A0008D52A0008D52A0008D52A0008D2
:10021000D52A0008D52A0008D52A0008D52A0008C2
:10022000D52A0008D52A0008D52A000800000000B9
:10023000D52A0008D52A000800000000D52A0008A9
:10024000D52A0008D52A0008D52A0008D52A000892
:10025000D52A0008D52A0008D52A0008D52A000882
:10026000D52A0008D52A0008D52A0008D52A000872
:10027000D52A0008D52A0008D52A00080000000069
:10028000D52A0008D52A0008D52A00080000000059
:0802900000000000D52A00085F
:1002C00010B5054C237833B9044B13B10448AFF390
:1002D00000800123237010BDC0090024000000002D
:1002E0003008010808B5034B1BB103490348AFF3BD
:1002F000008008BD00000000C40900243008010887
:1003000080F0004002E000BF81F0004142001FBFCA
:100310005FEA410392EA030F7FEA226C7FEA236CD3
:100320006AD04FEA1262D2EB1363C1BFD2184140C8
:1003300048404140B8BF5B42192B88BF704710F05E
:10034000004F40F4000020F07F4018BF404211F001
:10035000004F41F4000121F07F4118BF494292EA69
:10036000030F3FD0A2F1010241FA03FC10EB0C0095
:10037000C3F1200301FA03F100F0004302D5494222
:1003800060EB4000B0F5000F13D3B0F1807F06D3CF
:1003900040084FEA310102F10102FE2A51D2B1F1C7
:1003A000004F40EBC25008BF20F0010040EA0300BC
:1003B0007047490040EB0000013A28BFB0F5000F3C
:1003C000EDD2B0FA80FCACF1080CB2EB0C0200FAF2
:1003D0000CF0AABF00EBC25052421843BCBFD04041
:1003E0001843704792F0000F81F4000106BF80F4BB
:1003F00000000132013BB5E74FEA41037FEA226C7E
:1004000018BF7FEA236C21D092EA030F04D092F048
:10041000000F08BF0846704790EA010F1CBF00207C
:10042000704712F07F4F04D1400028BF40F00040D9
:10043000704712F100723CBF00F50000704700F0F9
:10044000004343F0FE4040F4000070477FEA226220
:1004500016BF08467FEA23630146420206BF5FEAF1
:10046000412390EA010F40F4800070474FF00003F1
:1004700004E000BF10F0004348BF40425FEA000CB8
:1004800008BF704743F0964301464FF000001CE060
:1004900050EA010208BF70474FF000030AE000BFB6
:1004A00050EA010208BF704711F0004302D54042F4
:1004B00061EB41015FEA010C02BF84460146002066
:1004C00043F0B64308BFA3F18053A3F50003BCFA81
:1004D0008CF2083AA3EBC25310DB01FA02FC63442E
:1004E00000FA02FCC2F12002BCF1004F20FA02F235
:1004F00043EB020008BF20F00100704702F1200228
:1005000001FA02FCC2F1200250EA4C0021FA02F288
:1005100043EB020008BF20EADC7070474FF0FF0C8D
:100520001CEAD0521EBF1CEAD15392EA0C0F93EA88
:100530000C0F6FD01A4480EA010C400218BF5FEA2A
:1005400041211ED04FF0006343EA501043EA51119D
:10055000A0FB01310CF00040B1F5000F3EBF490097
:1005600041EAD3715B0040EA010062F17F02FD2A9B
:100570001DD8B3F1004F40EBC25008BF20F001007E
:10058000704790F0000F0CF0004C08BF49024CEA95
:10059000502040EA51207F3AC2BFD2F1FF0340EA27
:1005A000C250704740F400004FF00003013A5DDC98
:1005B00012F1190FDCBF00F000407047C2F10002D9
:1005C000410021FA02F1C2F1200200FA02FC5FEAC6
:1005D000310040F1000053EA4C0308BF20EADC7010
:1005E000704792F0000F00F0004C02BF400010F482
:1005F000000F013AF9D040EA0C0093F0000F01F02F
:10060000004C02BF490011F4000F013BF9D041EA50
:100610000C018FE70CEAD15392EA0C0F18BF93EA52
:100620000C0F0AD030F0004C18BF31F0004CD8D17C
:1006300080EA010000F00040704790F0000F17BF03
:1006400090F0004F084691F0000F91F0004F14D049
:1006500092EA0C0F01D142020FD193EA0C0F03D1A1
:100660004B0218BF084608D180EA010000F00040A4
:1006700040F0FE4040F40000704740F0FE4040F47F
:10068000400070474FF0FF0C1CEAD0521EBF1CEA1E
:10069000D15392EA0C0F93EA0C0F69D0A2EB03023C
:1006A00080EA010C49024FEA402037D04FF08053D6
:1006B00043EA111143EA10130CF000408B4238BF9B
:1006C0005B0042F17D024FF4000C8B4224BF5B1AA9
:1006D00040EA0C00B3EB510F24BFA3EB510340EAF7
:1006E0005C00B3EB910F24BFA3EB910340EA9C00A5
:1006F000B3EBD10F24BFA3EBD10340EADC001B0115
:1007000018BF5FEA1C1CE0D1FD2A3FF650AF8B42B8
:1007100040EBC25008BF20F0010070470CF0004CC5
:100720004CEA50207F32C2BFD2F1FF0340EAC250F0
:10073000704740F400004FF00003013A37E792F0B1
:10074000000F00F0004C02BF400010F4000F013A0F
:10075000F9D040EA0C0093F0000F01F0004C02BF0A
:10076000490011F4000F013BF9D041EA0C0195E773
:100770000CEAD15392EA0C0F08D142027FF47DAF0C
:1007800093EA0C0F7FF470AF084676E793EA0C0FFC
:1007900004D14B023FF44CAF08466EE730F0004CFA
:1007A00018BF31F0004CCAD130F000427FF45CAF8A
:1007B00031F000437FF43CAF5FE700BF42000ED250
:1007C000B2F1FE4F0BD34FF09E03B3EB126209D48C
:1007D0004FEA002343F0004323FA02F070474FF042
:1007E0000000704712F1610F01D1420202D14FF0B7
:1007F000FF3070474FF00000704700BF53B94AB94F
:10080000002908BF00281CBF4FF0FF314FF0FF3018
:1008100000F074B9ADF1080C6DE904CE00F006F8F3
:10082000DDF804E0DDE9022304B070472DE9F0476C
:10083000089E0D4604468846002B4DD18A429446B8
:1008400068D9B2FA82F252B101FA02F3C2F1200180
:1008500020FA01F10CFA02FC41EA030894404FEA45
:100860001C45210CB8FBF5FE1FFA8CF705FB1E8317
:1008700041EA03430EFB07F199420BD91CEB03033A
:100880000EF1FF3080F01E81994240F21B81AEF1E3
:10089000020E63445B1AA4B2B3FBF5F005FB103300
:1008A00044EA034400FB07F7A7420AD91CEB0404FF
:1008B00000F1FF3380F00881A74240F205816444D3
:1008C0000238E41B40EA0E4000211EB1D440002350
:1008D000C6E90043BDE8F0878B4208D9002E00F03E
:1008E000EE800021C6E900050846BDE8F087B3FAAE
:1008F00083F100294AD1AB4202D3824200F2F9804F
:10090000841A65EB030301209846002EE2D0C6E965
:100910000048DFE702B9FFDEB2FA82F2002A40F0B7
:100920009180A1EB0C054FEA1C471FFA8CFE0121B8
:10093000B5FBF7F307FB1350250C45EA00450EFB0A
:1009400003F0A84208D91CEB050503F1FF3802D2D9
:10095000A84200F2CB8043462D1AA4B2B5FBF7F0B3
:1009600007FB105544EA05440EFB00FEA64508D9D6
:100970001CEB040400F1FF3502D2A64500F2BB8057
:100980002846A4EB0E0440EA03409EE7C1F120078D
:100990008B4022FA07FC4CEA030C20FA07F405FA14
:1009A00001F31C43FD404FEA1C4900FA01F3B5FB7B
:1009B000F9F8200C1FFA8CFE09FB185540EA054592
:1009C00008FB0EF0A84202FA01F20BD91CEB050558
:1009D00008F1FF3A80F08880A84240F28580A8F1B3
:1009E000020865442D1AA4B2B5FBF9F009FB1055B5
:1009F00044EA054500FB0EFEAE4508D91CEB050593
:100A000000F1FF346CD2AE456AD90238654440EA41
:100A10000840A0FB0294A5EB0E05A542C846A646D9
:100A200056D353D05EB1B3EB080265EB0E0505FA61
:100A300007F722FA01F3CD401F43C6E900750021F4
:100A4000BDE8F087C2F1200320FA03F10CFA02FCA2
:100A500025FA03F395400D434FEA1C471FFA8CFE1D
:100A6000B3FBF7F107FB11302B0C43EA004301FB0A
:100A70000EF0984204FA02F408D91CEB030301F1CA
:100A8000FF382FD298422DD9023963441B1AADB2D8
:100A9000B3FBF7F007FB103345EA034500FB0EF309
:100AA000AB4208D91CEB050500F1FF3816D2AB426A
:100AB00014D902386544ED1A40EA014138E731465D
:100AC000304607E78646E5E61846FAE64B45A9D2E2
:100AD000B9EB020864EB0C0E0138A3E74046EAE7E5
:100AE000204694E74146D1E7D0467BE7023B654488
:100AF00032E7084609E76444023842E7704700BF1E
:100B0000844641EA000313F003036DD1403A41D318
:100B100051F8043B40F8043B51F8043B40F8043BD7
:100B200051F8043B40F8043B51F8043B40F8043BC7
:100B300051F8043B40F8043B51F8043B40F8043BB7
:100B400051F8043B40F8043B51F8043B40F8043BA7
:100B500051F8043B40F8043B51F8043B40F8043B97
:100B600051F8043B40F8043B51F8043B40F8043B87
:100B700051F8043B40F8043B51F8043B40F8043B77
:100B800051F8043B40F8043B51F8043B40F8043B67
:100B9000403ABDD2303211D351F8043B40F8043B07
:100BA00051F8043B40F8043B51F8043B40F8043B47
:100BB00051F8043B40F8043B103AEDD20C3205D317
:100BC00051F8043B40F8043B043AF9D2043208D00F
:100BD000D2071CBF11F8013B00F8013B01D30B8881
:100BE00003806046704700BF082A13D38B078DD05F
:100BF00010F003038AD0C3F10403D21ADB071CBF31
:100C000011F8013B00F8013B80D331F8023B20F89A
:100C1000023B7BE7043AD9D3013A11F8013B00F8D3
:100C2000013BF9D20B7803704B7843708B7883705B
:100C30006046704700000000000000000000000057
:100C4000A2EB0300704700BF02780B78012A28BF8F
:100C50009A42F5D16DE9044540EA0104CDE9026705
:100C60006FF0000C4FEA447212B380EA010414F0F2
:100C7000070F6AD100F0070420F0070004F0030515
:100C800021F007014FEAC505F0E8042314F0040F32
:100C9000F1E804670CFA05F462EA040266EA040665
:100CA0000AD063EA0403624667EA0407664603E083
:100CB000F0E80423F1E8046782FA4CF582EA0604BE
:100CC000A4FA8CF46CBB83FA4CF583EA0705A5FA09
:100CD0008CF595B950E9022351E9026782FA4CF587
:100CE00082EA0604A4FA8CF483FA4CF583EA070539
:100CF000A5FA8CF52543DBD09CB92DBAB5FA85F45D
:100D000024F0070427FA04F1DDE9026723FA04F36B
:100D100003F0FF0001F0FF01FDE80445A0EB010036
:100D2000704724BAB4FA84F424F0070426FA04F1D4
:100D3000DDE9026722FA04F202F0FF0001F0FF0190
:100D4000FDE80445A0EB0100704714F0030F3CD10F
:100D500010F0030428D150F8082B51F8083B82FA10
:100D60004CF582EA0305A5FA8CF55DB950F8042C20
:100D700051F8043C82FA4CF582EA0305A5FA8CF599
:100D8000002DE8D02DBAB5FA85F424F0070423FA33
:100D900004F122FA04F202F0FF0001F0FF01FDE885
:100DA0000445A0EB010070474FEAC40420F00300A3
:100DB00050F8082B21F0030151F8083B0CFA04F419
:100DC00062EA040263EA0403C9E710F003041AD0DC
:100DD000A1EB040120F00300E40750F8042B06D037
:100DE0000FD28B785FFAA2F4E41A06D12BB1CB783C
:100DF0005FFAB2F4E41A00D11BB920465DF8104B3B
:100E0000704701F1040150F8042BCC0721F00301D5
:100E100051F8043B48D824D222F07F4482FA4CF5A2
:100E200094EA1325A5FA8CF50AD165B951F8043B6B
:100E300084EA0204B4EB036F0ED150F8042BEBE705
:100E40004FEA132355E035F07F454DD10878FDE892
:100E50000445C0F1000070474FEA126203F0FF033F
:100E600047E002EA1C4482FA4CF594EA1345A5FADD
:100E70008CF50AD165B951F8043B84EA0204B4EB5D
:100E8000034F0CD150F8042BEBE74FEA134330E04B
:100E900015EA1C4528D10B884FEA124229E04FEA97
:100EA000124203EA1C4324E002F0FF0482FA4CF5EC
:100EB00094EA1365A5FA8CF50AD165B951F8043B9B
:100EC00084EA0204B4EB032F09D150F8042BEBE7BA
:100ED0004FEA13630DE015F0FF0F05D10B684FEAE1
:100EE000122223F07F4304E04FF00000FDE80445A8
:100EF000704712BA1BBA82FA4CF482EA0304A4FACD
:100F00008CF5B5FA85F402FA04F203FA04F34FEA19
:100F10001260FDE80445A0EB13607047000000007C
:100F200001F0FF01102A2BDB10F0070F08D010F89A
:100F3000013B013A8B422DD010F0070F42B3F6D19E
:100F4000F0B441EA012141EA014122F007047FF0B7
:100F500000070023F0E80256083C85EA010586EA0E
:100F6000010685FA47F5A3FA87F586FA47F6A5FA4A
:100F700087F68EB9EED1F0BC01F0FF0102F0070256
:100F800032B110F8013B013A83EA010313B1F8D101
:100F90000020704701387047002D06BF35460338E2
:100FA000073815F0010F07D1013015F4807F02BF1B
:100FB000013015F4C03F0130F0BC0138704700BF6C
:100FC00090F800F06DE9024520F007016FF0000C89
:100FD00010F0070491F820F040F049804FF0000431
:100FE0006FF00700D1E9002391F840F000F108000C
:100FF00082FA4CF2A4FA8CF283FA4CF3A2FA8CF344
:101000004BBBD1E9022382FA4CF200F10800A4FAAA
:101010008CF283FA4CF3A2FA8CF3E3B9D1E90423FE
:1010200082FA4CF200F10800A4FA8CF283FA4CF335
:10103000A2FA8CF37BB9D1E9062301F1200182FAEF
:101040004CF200F10800A4FA8CF283FA4CF3A2FAF5
:101050008CF3002BC6D0002A04BF04301A4612BA03
:10106000B2FA82F2FDE8024500EBD2007047D1E906
:10107000002304F00305C4F100004FEAC50514F095
:10108000040F91F840F00CFA05F562EA05021CBF66
:1010900063EA050362464FF00004A9E781F00041CE
:1010A00002E000BF83F0004330B54FEA41044FEA4D
:1010B000430594EA050F08BF90EA020F1FBF54EAE8
:1010C000000C55EA020C7FEA645C7FEA655C00F084
:1010D000E2804FEA5454D4EB5555B8BF6D420CDD55
:1010E0002C4480EA020281EA030382EA000083EAD8
:1010F000010180EA020281EA0303362D88BF30BD78
:1011000011F0004F4FEA01314FF4801C4CEA1131CD
:1011100002D0404261EB410113F0004F4FEA03332C
:101120004CEA133302D0524263EB430394EA050FB7
:1011300000F0A780A4F10104D5F1200E0DDB02FA26
:101140000EFC22FA05F2801841F1000103FA0EF2BA
:10115000801843FA05F359410EE0A5F120050EF180
:10116000200E012A03FA0EFC28BF4CF0020C43FAB1
:1011700005F3C01851EBE37101F0004507D54FF0BE
:10118000000EDCF1000C7EEB00006EEB0101B1F50E
:10119000801F1BD3B1F5001F0CD349085FEA300054
:1011A0004FEA3C0C04F101044FEA445212F5800F5F
:1011B00080F09A80BCF1004F08BF5FEA500C50F1FC
:1011C000000041EB045141EA050130BD5FEA4C0CDF
:1011D000404141EB0101013C28BFB1F5801FE9D23C
:1011E00091F0000F04BF01460020B1FA81F308BF5F
:1011F0002033A3F10B03B3F120020CDA0C3208DD2B
:1012000002F1140CC2F10C0201FA0CF021FA02F105
:101210000CE002F11402D8BFC2F1200C01FA02F175
:1012200020FA0CFCDCBF41EA0C019040E41AA2BF9A
:1012300001EB0451294330BD6FEA04041F3C1CDA62
:101240000C340EDC04F11404C4F1200220FA04F082
:1012500001FA02F340EA030021FA04F345EA03012C
:1012600030BDC4F10C04C4F1200220FA02F001FAEE
:1012700004F340EA0300294630BD21FA04F0294670
:1012800030BD94F0000F83F4801306BF81F4801109
:101290000134013D4EE77FEA645C18BF7FEA655C7C
:1012A00029D094EA050F08BF90EA020F05D054EA4E
:1012B000000C04BF1946104630BD91EA030F1EBF53
:1012C0000021002030BD5FEA545C05D14000494157
:1012D00028BF41F0004130BD14F580043CBF01F54A
:1012E000801130BD01F0004545F0FE4141F4700130
:1012F0004FF0000030BD7FEA645C1ABF194610460B
:101300007FEA655C1CBF0B46024650EA013406BF0B
:1013100052EA033591EA030F41F4002130BD00BFCA
:1013200090F0000F04BF0021704730B54FF4806487
:1013300004F132044FF000054FF0000150E700BF08
:1013400090F0000F04BF0021704730B54FF4806467
:1013500004F1320410F0004548BF40424FF0000154
:101360003EE700BF42004FEAE2014FEA31014FEA97
:1013700002701FBF12F07F4393F07F4F81F06051E6
:10138000704732F07F4208BF704793F07F4F04BF31
:1013900041F40021704730B54FF4607401F000450E
:1013A00021F000411CE700BF50EA010208BF70476E
:1013B00030B54FF000050AE050EA010208BF70475F
:1013C00030B511F0004502D5404261EB41014FF4C8
:1013D000806404F132045FEA915C3FF4D8AE4FF0D0
:1013E00003025FEADC0C18BF03325FEADC0C18BFB3
:1013F000033202EBDC02C2F1200300FA03FC20FA04
:1014000002F001FA03FE40EA0E0021FA02F1144450
:10141000BDE600BF70B54FF0FF0C4CF4E06C1CEA69
:1014200011541DBF1CEA135594EA0C0F95EA0C0FDA
:1014300000F0DEF82C4481EA030621EA4C5123EA4D
:101440004C5350EA013518BF52EA033541F480117C
:1014500043F4801338D0A0FB02CE4FF00005E1FB2F
:1014600002E506F00042E0FB03E54FF00006E1FB79
:1014700003569CF0000F18BF4EF0010EA4F1FF04BC
:10148000B6F5007F64F5407404D25FEA4E0E6D41FC
:1014900046EB060642EAC62141EA55514FEAC5200D
:1014A00040EA5E504FEACE2EB4F1FD0C88BFBCF589
:1014B000E06F1ED8BEF1004F08BF5FEA500E50F13A
:1014C000000041EB045170BD06F0004646EA010100
:1014D00040EA020081EA0301B4EB5C04C2BFD4EB32
:1014E0000C0541EA045170BD41F480114FF0000E2B
:1014F000013C00F3AB8014F1360FDEBF002001F099
:10150000004170BDC4F10004203C35DA0C341BDC12
:1015100004F11404C4F1200500FA05F320FA04F0E4
:1015200001FA05F240EA020001F0004221F0004118
:1015300010EBD37021FA04F642EB06015EEA430E8B
:1015400008BF20EAD37070BDC4F10C04C4F12005BB
:1015500000FA04F320FA05F001FA04F240EA02006E
:1015600001F0004110EBD37041F100015EEA430E3F
:1015700008BF20EAD37070BDC4F1200500FA05F25F
:101580004EEA020E20FA04F301FA05F243EA0203DE
:1015900021FA04F001F0004121FA04F220EA0200ED
:1015A00000EBD3705EEA430E08BF20EAD37070BD33
:1015B00094F0000F0FD101F00046400041EB010113
:1015C00011F4801F08BF013CF7D041EA060195F0F5
:1015D000000F18BF704703F00046520043EB0303AF
:1015E00013F4801F08BF013DF7D043EA060370479C
:1015F00094EA0C0F0CEA135518BF95EA0C0F0CD0A7
:1016000050EA410618BF52EA4306D1D181EA0301EC
:1016100001F000414FF0000070BD50EA410606BFE6
:101620001046194652EA430619D094EA0C0F02D12B
:1016300050EA013613D195EA0C0F05D152EA033670
:101640001CBF104619460AD181EA030101F000418E
:1016500041F0FE4141F470014FF0000070BD41F0D7
:10166000FE4141F4780170BD70B54FF0FF0C4CF4B1
:10167000E06C1CEA11541DBF1CEA135594EA0C0FD0
:1016800095EA0C0F00F0A7F8A4EB050481EA030E1D
:1016900052EA03354FEA013100F088804FEA033304
:1016A0004FF0805545EA131343EA12634FEA0222D2
:1016B00045EA111545EA10654FEA00260EF0004193
:1016C0009D4208BF964244F1FD0404F5407402D2E5
:1016D0005B084FEA3202B61A65EB03055B084FEA76
:1016E00032024FF480104FF4002CB6EB020E75EB73
:1016F000030E22BFB61A754640EA0C005B084FEA9B
:101700003202B6EB020E75EB030E22BFB61A754617
:1017100040EA5C005B084FEA3202B6EB020E75EB62
:10172000030E22BFB61A754640EA9C005B084FEADA
:101730003202B6EB020E75EB030E22BFB61A7546E7
:1017400040EADC0055EA060E18D04FEA051545EAD6
:1017500016754FEA06164FEAC30343EA52734FEA7F
:10176000C2025FEA1C1CC0D111F4801F0BD141EAF8
:1017700000014FF000004FF0004CB6E711F4801F5D
:1017800004BF01430020B4F1FD0C88BFBCF5E06F3D
:101790003FF6AFAEB5EB030C04BFB6EB020C5FEA4D
:1017A000500C50F1000041EB045170BD0EF0004EA2
:1017B0004EEA113114EB5C04C2BFD4EB0C0541EAD4
:1017C000045170BD41F480114FF0000E013C90E6D1
:1017D00045EA060E8DE60CEA135594EA0C0F08BF95
:1017E00095EA0C0F3FF43BAF94EA0C0F0AD150EA94
:1017F00001347FF434AF95EA0C0F7FF425AF104627
:1018000019462CE795EA0C0F06D152EA03353FF44E
:10181000FDAE1046194622E750EA410618BF52EACB
:1018200043067FF4C5AE50EA41047FF40DAF52EA9F
:1018300043057FF4EBAE12E74FF0FF3C06E000BF3C
:101840004FF0010C02E000BF4FF0010C4DF804CD49
:101850004FEA410C7FEA6C5C4FEA430C18BF7FEA09
:101860006C5C1BD001B050EA410C0CBF52EA430C37
:1018700091EA030F02BF90EA020F0020704710F1B7
:10188000000F91EA030F58BF994208BF90422CBF46
:10189000D8176FEAE37040F0010070474FEA410C3F
:1018A0007FEA6C5C02D150EA013C07D14FEA430C5D
:1018B0007FEA6C5CD6D152EA033CD3D05DF8040BCE
:1018C000704700BF8446104662468C461946634600
:1018D00000E000BF01B5FFF7B7FF002848BF10F1D7
:1018E000000F01BD4DF808EDFFF7F4FF0CBF01201C
:1018F00000205DF808FB00BF4DF808EDFFF7EAFF98
:1019000034BF012000205DF808FB00BF4DF808ED52
:10191000FFF7E0FF94BF012000205DF808FB00BF47
:101920004DF808EDFFF7CEFF94BF012000205DF8D1
:1019300008FB00BF4DF808EDFFF7C4FF34BF0120DE
:1019400000205DF808FB00BF4FEA410C7FEA6C5CA9
:1019500002D150EA013C0AD14FEA430C7FEA6C5CA9
:1019600002D152EA033C02D14FF0000070474FF021
:10197000010070474FEA410212F5001215D211D54D
:101980006FF47873B3EB625212D94FEAC12343F07C
:10199000004343EA505311F0004F23FA02F018BFFE
:1019A000404270474FF00000704750EA013005D1C7
:1019B00011F0004008BF6FF0004070474FF000008A
:1019C000704700BF10B58AB00023079308930993AE
:1019D000009301930293039304930593069326487F
:1019E000264A02604FF4802242608360C360042272
:1019F000026103750122427582610377436283624B
:101A0000C3624FF480520263436380F8383001F0C0
:101A1000F1FE38BB0023079307A9174802F022F80C
:101A200018BB174B0093062301930023029340F247
:101A3000FF7203920422049205938DF819306946CF
:101A40000D4801F0BFFA98B90B4C6946204601F0E9
:101A5000B9FA204601F094FD0A21204601F0AAF8C7
:101A60000AB010BD00F019F9D4E700F016F9D8E774
:101A700000F013F9E8E700BFDC0900240020024071
:101A80000008302E10B5B8B00446002133913491CF
:101A9000359136913791C02202A808F08FFD226857
:101AA0001F4B9A4201D038B010BD4FF400220023E2
:101AB000CDE902234FF400332B9302A804F028FD54
:101AC00058BB184BD3F8D82042F02002C3F8D820D6
:101AD000D3F8D82002F020020092009AD3F8E02038
:101AE00042F00402C3F8E020D3F8E03003F004032E
:101AF0000193019B022333930323349300243594F1
:101B000033A9094803F0BEFC22462146122002F008
:101B10006DF8122002F0A0F8C5E700F0BEF8D0E79B
:101B200000200240004402580008025800B583B06B
:101B30000B4BD3F8D82042F00102C3F8D820D3F8D9
:101B4000D83003F001030193019B002211460B20C2
:101B500002F04CF80B2002F07FF803B05DF804FBB4
:101B6000004402582DE9F0418AB0002405940694FF
:101B7000079408940994304BD3F8E02042F0800297
:101B8000C3F8E020D3F8E02002F080020092009A2F
:101B9000D3F8E02042F00402C3F8E020D3F8E020BC
:101BA00002F004020192019AD3F8E02042F001020F
:101BB000C3F8E020D3F8E02002F001020292029A7A
:101BC000D3F8E02042F01002C3F8E020D3F8E02080
:101BD00002F010020392039AD3F8E02042F00202CE
:101BE000C3F8E020D3F8E03003F002030493049B31
:101BF000DFF848802246C621404603F057FD104DCD
:101C000022463021284603F051FDC62305930127C3
:101C1000069707940226089605A9404603F032FC71
:101C20003023059306970794089605A9284603F0E4
:101C300029FC0AB0BDE8F0810044025800000258B7
:101C40000008025810B584B0002400940194029456
:101C5000039402F023F801238DF800308DF8014041
:101C60004FF01052019212228DF808208DF8094091
:101C70008DF80A4003228DF80B208DF80C408DF86A
:101C80000D308DF80E308DF80F40684602F024F8C4
:101C9000042002F011F804B010BD72B6FEE7000097
:101CA00000B59FB04C2200210BA808F087FC202231
:101CB000002103A808F082FC022003F0FDFC0023B1
:101CC00000933A4BDA6A22F00102DA62DB6A03F02F
:101CD00001030093364B9A6942F440429A619B6932
:101CE00003F440430093009B314B9B6913F4005F66
:101CF000FAD0304BD3F8F42042F00202C3F8F420BB
:101D0000D3F8F43003F002030193019B0023029304
:101D1000274B9A6942F440429A619B6903F440431D
:101D20000293224BDA6A42F00102DA62DB6A03F0C4
:101D300001030293029B1E4B9B6913F4005FFAD0D0
:101D400003230B934FF480330C9301230E93402312
:101D50000F930223149315931693F022179218935E
:101D600019931A9308231B9300231C931D930BA80C
:101D700003F0CCFCB0B93F23039303230493002367
:101D80000593082306934023079308934FF480623A
:101D900009920A93042103A804F01EF920B91FB088
:101DA0005DF804FBFFF779FFFFF777FF00040058A9
:101DB000004802580044025800B5B1B0C0220021CA
:101DC000684608F0FBFB4FF000420023CDE90023FA
:101DD000684604F09DFB10B931B05DF804FBFFF7D5
:101DE0005CFF0000F8B5FFF72DFF784B5B6913F43B
:101DF000003F13D1BFF34F8FBFF36F8F734B0022A0
:101E0000C3F85022BFF34F8FBFF36F8F5A6942F46C
:101E100000325A61BFF34F8FBFF36F8F6B4B5B691B
:101E200013F4803F27D1694B0022C3F88420BFF30D
:101E30004F8FD3F88040C4F34E3000E01846C4F30F
:101E4000C90243F6E07303EA401343EA82735F4931
:101E5000C1F860321346013A002BF2D1431E00282C
:101E6000ECD1BFF34F8F4B6943F480334B61BFF329
:101E70004F8FBFF36F8F00F057FEFFF711FFFFF793
:101E80009BFFFFF76FFEFFF751FE00F01DFA00F019
:101E90001FFC00F0FDFC4E4800F0BEF800F0CAFA4E
:101EA000FFF790FD00F06CFA00214A4806F064FD4F
:101EB00001252F460024264654E04749474808F0AC
:101EC000BBFC4749FEF7C0FE18B1464B00221A8002
:101ED0004DE0414908F0B0FC4349FEF7B5FE00284B
:101EE000F3D13D4908F0A8FC08F03AFB3F4B1860DD
:101EF0003F4808F0B5FBE8E73E4A32F813003E4998
:101F000051F82320024441F823200133B3F5007F28
:101F1000F2DB3A4B1F6896FBF7F307FB1363002BCA
:101F200040D001362F460025354B1A682F4B1B68D1
:101F30009A4202DD324B00221A60012F14BF0023A7
:101F400004F0010373B172B62D4A136801331360B4
:101F500000242C4B1C602C4B1C602C4B1C6062B66C
:101F6000012527461F4BB3F90030002BA5DB254B7D
:101F70001B68B3F5026F00DB0124244B1B68B3F52B
:101F8000007FD1DB002DCFD00023BFE71A4951F8E5
:101F90002320B2FBF7F21E4820F81320002241F85C
:101FA00023200133B3F5007FF0DB1A4FFF233B7092
:101FB0007B704FF480621649B81CFEF7A1FD40F219
:101FC00002423946024806F0FBFEAAE700ED00E0B7
:101FD0003C2900245827002448080108F827002439
:101FE0004C080108C0280024500801084C0A0024AD
:101FF00054080108681A002460120024000000241C
:10200000F0270024400A0024480A0024440A00243F
:10201000600E0024500A002408B5054B1860054BDB
:102020001868002302221946806808F02DFB08BDBD
:10203000601A002414000024022801D801207047EF
:1020400008B508F091FA09230360002008BD0000DC
:1020500010B5013801280AD814464FF0FF3392B268
:102060000748006807F09AFF40B9204610BD08F005
:102070007BFA092303604FF0FF30F7E70520F5E70F
:10208000601A0024022801D80020704708B508F023
:102090006BFA092303604FF0FF3008BD08B508F064
:1020A00063FA092303604FF0FF3008BD08B548B953
:1020B0004FF0FF3301220848006807F0D7FF40B90E
:1020C000012008BD08F050FA092303604FF0FF30EB
:1020D000F7E70520F5E700BF601A002408B50228DD
:1020E00004D84FF400534B60002008BD08F03CFAC0
:1020F00009230360F8E7000082B0074BD3F8F4200F
:1021000042F00202C3F8F420D3F8F43003F00203E3
:102110000193019B02B0704700440258FEE7FEE7BE
:10212000FEE7FEE7FEE770477047704708B500F02E
:1021300029FD08BD08B5024802F008FE08BD00BF31
:10214000C428002408B5024800F0D0FD08BD00BF37
:10215000DC09002408B5024805F0AFFF08BD00BF48
:10216000C026002408B5024805F0A7FF08BD00BF3F
:10217000C026002408B5024805F09FFF08BD00BF37
:10218000A427002408B5024806F0DCFE08BD00BF05
:102190003C29002408B5024805F08FFF08BD00BFA8
:1021A0000C2700240120704708B508F0DDF916233C
:1021B00003604FF0FF3008BD08B54FF0FF31FFF767
:1021C000F3FFFEE710B503460C4A0D490D480068C1
:1021D00040B10C4800680344521A934206D8094A99
:1021E000136010BD0748084C0460F2E708F0BCF922
:1021F0000C2303604FF0FF30F3E700BF000008241A
:1022000000040000641A0024202A0024244B1B68C8
:1022100003F00F03062B06D8214A136823F00F039F
:1022200043F0070313601F4B1A6842F001021A6063
:1022300000221A6119681C4A0A401A60184B1B6870
:1022400013F0080F06D0164A136823F00F0343F06B
:1022500007031360134B00229A61DA611A62134973
:1022600099621349D962134919635A639963DA630E
:1022700019645A64196821F4802119601A660E4B9A
:102280001A680E4B1340B3F1005F03D20C4B0122CE
:10229000C3F808210B4B43F2D2021A60704700BF0B
:1022A00000200052004402587FEDF6EA00020202CC
:1022B0000000FF01800201010010005C0000FFFF30
:1022C000008000510040005200B58DB000230793FC
:1022D000089309930A930B93049305930693009331
:1022E0000193029303932448244A0260102242601F
:1022F00083604FF6FF72C26003614361836106F041
:102300002BF850BB1C4806F087F848BB0423079302
:1023100050230893002309930B9307A9164806F04E
:10232000F3FA00BB002304930593069304A9124813
:1023300006F0AEFCD0B90022009201230193029274
:10234000039269460C4806F0C9F990B900210A4881
:1023500006F0C6FB0DB05DF804FBFFF79EFCD1E76D
:10236000FFF79BFCD2E7FFF798FCDBE7FFF795FC54
:10237000E1E7FFF792FCE9E7C026002400000140F6
:1023800000B58DB000230793089309930A930B932C
:1023900004930593069300930193029303932348B8
:1023A000234A02601022426083604FF6FF72C260CF
:1023B0000361836105F0D0FF48BB1C4806F02CF890
:1023C00040BB0423079350230893002309930B93E6
:1023D00007A9164806F098FAF8B900230493069363
:1023E00004A9124806F054FCD0B90022009201233F
:1023F00001930292039269460C4806F06FF990B976
:1024000000210A4806F06CFB0DB05DF804FBFFF7F5
:1024100044FCD2E7FFF741FCD3E7FFF73EFCDCE7E3
:10242000FFF73BFCE1E7FFF738FCE9E7A4270024CE
:102430000004004000B58DB0002307930893099372
:102440000A930B93049305930693009301930293CD
:1024500003932448244A02601022426083604FF6AE
:10246000FF72C2600361836105F076FF58BB1D48AF
:1024700005F0D2FF50BB0423079350230893022397
:10248000099300230B9307A9164806F03DFA00BBF9
:1024900000230493069304A9124806F0F9FBD8B967
:1024A00002230093012301930022029203926946C2
:1024B0000C4806F013F990B900210A4806F010FB09
:1024C0000DB05DF804FBFFF7E8FBD0E7FFF7E5FB95
:1024D000D1E7FFF7E2FBDBE7FFF7DFFBE0E7FFF722
:1024E000DCFBE9E70C2700240018004000B58DB0A4
:1024F00000230793089309930A930B9303684C4AAC
:10250000934208D04B4A93423AD04B4A934262D00E
:102510000DB05DF804FB494BD3F8F02042F0010206
:10252000C3F8F020D3F8F02002F001020192019AE2
:10253000D3F8E02042F01002C3F8E020D3F8E030F6
:1025400003F010030293029B4FF4007307930223DE
:10255000089301230B9307A9394802F093FF002247
:1025600011461A2001F042FB1A2001F075FB0022EF
:1025700011461B2001F03AFB1B2001F06DFBC7E761
:102580002E4BD3F8E82042F00202C3F8E820D3F83B
:10259000E82002F002020392039AD3F8E02042F00E
:1025A0000402C3F8E020D3F8E03003F004030493FE
:1025B000049B40230793022308930B9307A9214808
:1025C00002F060FF002211461D2001F00FFB1D20CC
:1025D00001F042FB9CE7194BD3F8E82042F040029F
:1025E000C3F8E820D3F8E82002F040020592059AEB
:1025F000D3F8E02042F00202C3F8E020D3F8E03044
:1026000003F002030693069B4FF4804307930223D3
:1026100008930B9307A90C4802F034FF00221146DF
:102620002B2001F0E3FA2B2001F016FB70E700BF2E
:10263000000001400004004000180040004402581F
:102640000010025800080258000402580368B3F151
:10265000804F00D0704782B0074BD3F8E82042F09B
:102660000102C3F8E820D3F8E83003F00103019336
:10267000019B02B0704700BF0044025800B587B00C
:102680000023019302930393049305930368B3F12A
:10269000804F02D007B05DF804FB0B4BD3F8E0206D
:1026A00042F00102C3F8E020D3F8E03003F0010368
:1026B0000093009B0123019302220292059301A93A
:1026C000024802F0DFFEE5E700440258000002582D
:1026D00000B58BB0002307930893099300930193EF
:1026E0000293039304930593069318484FF0804296
:1026F00002601022426083606422C26003618361D1
:1027000005F05AFEC8B900230793099307A90F489B
:1027100006F0BEFAA0B96023009332230193002291
:10272000029204926946094805F0F0FE58B907483C
:10273000FFF7A4FF0BB05DF804FBFFF7AEFAE2E78A
:10274000FFF7ABFAE7E7FFF7A8FAF0E7582700240E
:1027500038B504460268434B9A4204D02268424B83
:102760009A424FD038BD037F012BF7D13F4B1B68F6
:1027700033B33E4B1B68012B28D03D4B1A683D4BB1
:102780001B689A4234DA394B1B68012B04DD374B46
:102790001B68B3F5C87F1FDB344B1B68B3F5C87FDC
:1027A00004DB324B1B68B3F5AF6F1BDB012240210A
:1027B000314802F07BFF2D4A136801331360CDE7E7
:1027C000012204212C4802F071FFD2E700220421EB
:1027D000294802F06BFFD0E701224021264802F091
:1027E00065FFE8E700224021234802F05FFFE2E7AF
:1027F0001E4B1B68012BDEDD012240211E4802F02A
:1028000055FFD8E7237F012BACD11C4800F068FAB4
:102810001B4A11681B4B23F81100126833F8122071
:102820004EF660239A4206D9154B1A68154B4EF6A0
:10283000602123F81210124B1A68124C34F812104F
:10284000114A1568090A114841551D68116801317E
:1028500014F8154044541168023111601A680132AD
:102860001A607FE70000014000040040400A002495
:10287000F02700244C0A002400000258DC09002440
:10288000440A0024681A0024480A0024A01E0024D8
:1028900008B51A481A4B03604FF4E1334360002334
:1028A0008360C36003610C2242618361C361036280
:1028B0004362836207F0CAFC98B900210F4807F011
:1028C00005FE88B900210D4807F025FE78B90B48B0
:1028D00007F0DDFD70B901220A49084807F088FDBC
:1028E00008BDFFF7DAF9E8E7FFF7D7F9EAE7FFF7FE
:1028F000D4F9ECE7FFF7D1F9EDE700BF3C2900245C
:1029000000100140F427002430B5B9B0044600217E
:1029100033913491359136913791C02202A807F056
:102920004DFE2268304B9A4201D039B030BD0122B1
:102930000023CDE9022302A803F0EAFD00284CD1D0
:102940002A4BD3F8F02042F01002C3F8F020D3F85D
:10295000F02002F010020092009AD3F8E02042F03A
:102960000102C3F8E020D3F8E03003F00103019343
:10297000019B4FF4C06333930223349300253595B4
:1029800036930723379333A9194802F07BFD194882
:10299000194B03602A23436040238360C5604FF4D2
:1029A00080630361456185614FF48073C3614FF4B7
:1029B00080330362456201F0D3FB88B90D4BE367B6
:1029C0009C6300221146252001F010F9252001F01A
:1029D00043F9E06F01F0C4FBA7E7FFF75EF9AFE74B
:1029E000FFF75BF9EAE700BF00100140004402581E
:1029F00000000258C42800241000024008B50268F4
:102A00001A4B9A4200D008BD194A1388B2F9002027
:102A1000002A09DB13F4804F11D0164A12780A2AD3
:102A200008D0134B00221A8001221249124807F0E5
:102A3000DFFCE8E7114A1A430D4B1A80F4E70D4A10
:102A400012780D2A0DD0C3F30D010D484254013305
:102A50009BB2074A1380C72BE6D9134600221A807F
:102A6000E2E743F48043024A1380DDE700100140AF
:102A7000C0280024F42700243C2900240080FFFF04
:102A8000F8270024DFF834D0FFF7C0FB0C480D49CD
:102A90000D4A002302E0D458C4500433C4188C42B9
:102AA000F9D30A4A0A4C002301E013600432A2421F
:102AB000FBD307F05FFDFFF795F97047000008248E
:102AC00000000024C0090024A80C0108C00900244B
:102AD0001C2A0024FEE70000104B1B780BB90120D4
:102AE000704710B504464FF47A70B0FBF3F30C4A0C
:102AF0001068B0FBF3F001F0BDF868B90F2C01D9F4
:102B000001200AE0002221464FF0FF3001F06EF86C
:102B1000044B1C60002000E0012010BD0C000024CC
:102B2000040000241000002410B5032001F04CF82C
:102B300003F046F90F498B69C3F303230E4AD35CB4
:102B400003F01F03D8408B6903F00F03D35C03F03D
:102B50001F0320FA03F3094A1360094B18600F2082
:102B6000FFF7BAFF10B10124204610BD0446FFF75D
:102B7000C3FAF9E700440258580801080800002485
:102B800004000024034B1B78034A11680B441360B4
:102B9000704700BF0C000024D0290024014B1868A6
:102BA000704700BFD0290024014B1868000C704703
:102BB0000010005C2DE9F04104460E4603684549CB
:102BC000454A934218BF8B4213D102F500729768B1
:102BD00007F01F072569082D12D0052F18BF002FF9
:102BE00009D0092F07D0936813F4404F2DD1042545
:102BF00006E03A4AEBE7DB6813F0010F1FD104252A
:102C0000FFF7CCFF804623681A682A4223D1B6F129
:102C1000FF3FF8D0FFF7C2FFA0EB0800B04201D899
:102C2000002EF0D123681B682B42ECD1636D43F07A
:102C300004036365002384F85030032045E0636D8E
:102C400043F02003636501203FE0636D43F0200300
:102C50006365012039E0626D42F400726265DA68F2
:102C600012F4406F11D1627D7AB91A6812F0080F20
:102C70000BD0626D22F480726265626D12F4805F27
:102C800003D1626D42F001026265134A93420CD097
:102C90001A4693420CD0052F14BF002101213FB1E9
:102CA00031B9092F04D0D26803E0A2F58072F0E7B1
:102CB000DA68082D06D012F4804F08D10C221A6071
:102CC000002002E008221A600020BDE8F081002008
:102CD000FBE700BF002002400021024000630258D1
:102CE0000368186C7047704770477047F8B5044622
:102CF00003681D685E689649964A934218BF8B42E6
:102D000040D1954B9F6807F01F0715F0020F10D0B8
:102D100016F0020F0DD0636D13F0100F03D1636D29
:102D200043F400636365204600F09AFE23680222A4
:102D30001A6015F0040F02D016F0040F05D115F03B
:102D4000080F4FD016F0080F4CD0636D13F0100F22
:102D500003D1636D43F4007363652368DA6812F48A
:102D6000406F39D17B4A93420ED01A4693420ED01F
:102D7000052F14BF002101214FB141B9092F06D001
:102D8000D26805E0754BBDE7A2F58072EEE7DA6820
:102D900012F4005F20D11A6812F0080F1CD09A6854
:102DA00012F0040F10D15A6822F00C025A60636DC1
:102DB00023F480736365636D13F4805F0CD1636DDE
:102DC00043F00103636507E0636D43F0100363653F
:102DD000A36D43F00103A3652046FFF784FF23683A
:102DE0000C221A6015F0200F02D016F0200F05D12A
:102DF00015F0400F63D016F0400F60D0636D13F0F4
:102E0000100F03D1636D43F4005363652368DA6CDC
:102E100012F4C07F19D10121DA6812F4406F16D183
:102E200001204C4A934214D01A46934214D0062FE4
:102E300014BF4FF0000C4FF0010C6FB1BCF1000F4C
:102E40000AD1072F08D0D26807E00021E4E700206C
:102E5000E7E7A2F58072E8E7DA6851B312F0007F85
:102E600003D030B312F4005F23D1196811F0400F82
:102E70001FD012F4001F1CD19A6812F0080F10D155
:102E80005A6822F060025A60636D23F480536365D0
:102E9000636D13F4807F0CD1636D43F001036365B0
:102EA00007E0636D43F010036365A36D43F0010316
:102EB000A365204600F0D0FD236860221A6015F05B
:102EC000800F02D016F0800F36D115F4807F02D02B
:102ED00016F4807F44D115F4007F02D016F4007FF1
:102EE0004AD115F0100F20D016F0100F1DD0236B13
:102EF0006BB1002F4ED023681549164A934218BF74
:102F00008B4245D1144B9B6813F4404F0AD0636D3C
:102F100043F480636365A36D43F00203A365204619
:102F2000FFF7E3FE236810221A6015F4806F02D0C9
:102F300016F4806F34D1F8BD636D43F4803363655C
:102F40002046FFF7D1FE236880221A60BDE700BF4C
:102F5000002002400021024000230240006302588A
:102F6000636D43F400336365204600F077FD23680A
:102F70004FF480721A60AEE7636D43F4802363659B
:102F8000204600F06CFD23684FF400721A60A8E739
:102F90000B4BB8E72368DB6813F0030FC2D0B6E72A
:102FA000636D43F480436365A36D43F00803A36539
:102FB00023684FF480621A60204600F04EFDBAE7A5
:102FC00000630258F0B583B00022019290F85020BF
:102FD000012A00F055820346012280F85020006843
:102FE000826812F0040F09D05A6D42F020025A652F
:102FF0000120002283F8502003B0F0BD0A68C2F31C
:103000001304002C4ED1C2F3846201249440C2699F
:103010002243C2611D684C683035220A920002F0DA
:103020000C02A85804F01F0E1F2404FA0EF420EA24
:1030300004000C68C4F3846C0CFA0EFC40EA0C002B
:10304000A8501C68A26812F0040200D00122A068F7
:1030500010F0080000D0012002432FD018688268C9
:1030600012F0010F40F008820A68CD68D0F8C04025
:10307000C2F3130624EA060405F0180CB24D25FA33
:103080000CF52A40C2F313022243C0F8C020C868DE
:10309000AE4A904200F0B0800A68002AC0F26B810C
:1030A0000020A6E792FAA2F232B1B2FA82F202F05E
:1030B0001F0201249440AAE72022F8E70F688D68D8
:1030C0001434780E800000F004002658C7F3045E24
:1030D0004FF0070C0CFA0EFC26EA0C0C05FA0EF564
:1030E0004CEA050525509A48006800F07040B0F1A0
:1030F000805F0BD01C68E06810F0100F39D1486970
:10310000E468C4F382046400A04006E048691C68D7
:10311000E468C4F382046400A0400D69042D36D035
:103120001F680E68603757F8254004F0004406F029
:10313000F8463043204347F8250018680E694C7E56
:10314000012C1ED01546603050F8264024F0004473
:103150002C4340F826401D680C69087E012813D0D6
:10316000286920F4F04004F01F04A24002432A61C1
:1031700074E74869E468A40804F004046400A0400B
:10318000CBE74FF00045DEE74FF40062E8E7186850
:10319000026E02F0F8420C68B2EB846F1DD0186822
:1031A000426E02F0F8420C68B2EB846F1AD01868D5
:1031B000826E02F0F8420C68B2EB846F17D0186888
:1031C000C26E02F0F8420C68B2EB846F7FF446AF37
:1031D000C26E22F00042C26640E7026E22F0004258
:1031E0000266DCE7426E22F000424266DFE7826E52
:1031F00022F000428266E2E71C680A68C2F3130507
:10320000002D34D1900E013000F01F0009288CBF32
:1032100000200120002861D0002D37D1900E013010
:10322000800600F0F840002D3CD1960E013606F0E5
:103230001F070126BE403043002D41D1920E0132BE
:1032400002F01F0202EB42021205024388681434A6
:10325000550EAD0005F004056659C2F30452072768
:10326000974026EA070690403043605114E792FAEF
:10327000A2F048B1B0FA80F0013000F01F00092838
:103280008CBF00200120C5E72020F5E792FAA2F0CC
:1032900030B1B0FA80F00130800600F0F840C2E7AB
:1032A0002020F8E792FAA2F646B1B6FA86F6013681
:1032B00006F01F06012707FA06F6BCE72026F6E708
:1032C00092FAA2F242B1B2FA82F2013202F01F0285
:1032D00002EB42021205B8E72022F6E7CDB9900EC4
:1032E0000130800600F0F840FDB9960E013606F078
:1032F0001F070126BE40304365BB920E013202F02B
:103300001F0202EB42021E3A120542F00072024313
:103310009CE792FAA2F030B1B0FA80F0013080065A
:1033200000F0F840E0E72020F8E792FAA2F646B174
:10333000B6FA86F6013606F01F06012707FA06F6EA
:10334000D9E72026F6E700BFFFFF0F000000FF4788
:103350000010005C92FAA2F25AB1B2FA82F2013283
:1033600002F01F0202EB42021E3A120542F0007206
:10337000CDE72022F3E719684248434CA14218BF29
:1033800081420CBF0120002021D1404EB56805F0DC
:10339000E077F0B13B48806810F0010000D00120D8
:1033A000394CA46814F0010400D0012420430CBF60
:1033B00001200020002859D03548824212D03548DB
:1033C000824231D0344882423FD0002011E6334E51
:1033D000DCE73348806810F0010000D0012080F065
:1033E0000100E7E715F4000FE9D12D4A914201D021
:1033F0000020FEE547F40002B16821F0E0710A43C5
:10340000B260284A126892092749A1FB0212920968
:1034100001325200019202E0019A013A0192019AAE
:10342000002AF9D10020E4E515F0807FCAD11C4ABA
:10343000914201D00020DCE547F08072B16821F0B4
:10344000E0710A43B2600020D3E515F4800F15D176
:10345000134A914201D00020CBE547F48002B168C5
:1034600021F0E0710A43B2600020C2E55A6D42F0DB
:1034700020025A650120BCE50020BAE50020B8E52D
:103480000220B9E500200240002102400023024052
:10349000000084CB000052C70000B8CF0063025880
:1034A0000060025804000024632D3E0538B503680F
:1034B0009A6812F0010F56D1044699682B4A1142BE
:1034C00009D0436D43F010034365836D43F001035E
:1034D0008365012048E09968254A0A4042F00102CC
:1034E0009A60FFF75BFB054623682249224A934214
:1034F00018BF8B420DD102F50072926802F01F02D4
:103500001D498B4207D01946994207D032B100209D
:103510002AE01A4AF1E7A1F58071F5E723681A68F5
:1035200012F0010F1DD19A6812F0010F05D19968B0
:103530000F4A0A4042F001029A60FFF72FFB401B3E
:103540000228EBD923681B6813F0010FE6D1636DE5
:1035500043F010036365A36D43F00103A3650120ED
:1035600002E0002000E0002038BD00BF3F000080E6
:10357000C0FFFF7F0020024000210240006302588C
:1035800038B5044603683E493E4A934218BF8B4211
:1035900052D102F50072956805F01F059B6813F083
:1035A000040F69D194F85030012B67D0012384F8BF
:1035B00050302046FFF77AFF002859D1626DA0F6FF
:1035C0000273134043F48073636523682D4A93426A
:1035D00034D01A46934200D01DB9626D22F4801295
:1035E0006265626D12F4805F2BD0A26D22F006023C
:1035F000A2651C221A60002384F850302368214AF7
:10360000934221D01A46934221D0052D14BF0021A8
:103610000121E5B1D9B9092D19D0636D43F48013A7
:103620006365D36813F0007F27D0636D23F44053A4
:1036300043F48053636520E0134AACE7A2F580723F
:10364000C8E70022A265D4E7A2F58072DBE7DA685A
:1036500012F0007F05D0626D22F4405242F4805295
:1036600062659968094A0A4042F004029A6004E0DF
:10367000002384F8503000E0022038BD0220FCE72F
:10368000002002400021024000630258C0FFFF7F7B
:1036900038B5044603684F494F4A934218BF8B42DE
:1036A00023D14E4B9B6813F4403F14BF01230023EA
:1036B0004BB302F0DBFD05466368B3F5003F1CD059
:1036C000B3F5403F1DD0B3F5803F16D0FFF76CFA3D
:1036D00041F20303984258D8414B9D424FD922688A
:1036E000936843F48073936038BD3E4B9B6813F43A
:1036F000403F14BF01230023DAE71B0CB5FBF3F5B1
:10370000E4E78508E2E74FF40020002103F0A6FF7C
:1037100005466368B3F5101F2DD022D8B3F5E01F1E
:1037200027D004D9B3F5001FD0D14509CEE7B3F5B2
:10373000801F0DD006D9B3F5A01F09D0B3F5C01F67
:1037400006D0C3E7B3F5002F02D0B3F5402F04D164
:103750009B0C5B00B5FBF3F5B8E7B3F5802FF7D012
:10376000B4E7B3F5201F08D0B3F5301FAED1050A7A
:10377000ACE70509AAE78509A8E7C509A6E7226815
:10378000936823F480739360AEE7174B9D4205D88E
:103790002268936823F440739360A5E7134B9D421E
:1037A00007D82268936823F4407343F480739360CE
:1037B0009AE70F4B9D4207D82268936823F4407321
:1037C00043F4007393608FE72268936843F4407377
:1037D000936089E70020024000210240002302405C
:1037E000002D31010063025821BCBE0041787D01EB
:1037F00081F0FA0230B583B000230193002800F075
:1038000010810446436DEBB123689A6812F0005FA3
:1038100003D09968844A0A409A6023689A6812F033
:10382000805F1CD19968814A0A4042F080529A60B8
:103830007F4B1B689B097F4AA2FB03239B09013333
:10384000019309E0FEF71EF90023A36584F85030C8
:10385000DAE7019B013B0193019B002BF9D1226820
:10386000936813F0805F40F09C80636D43F0100319
:103870006365A36D43F00103A3650125936813F00D
:10388000040300D00123616D11F0100F40F0C180DE
:10389000002B40F0BE80636D23F4817343F002037C
:1038A0006365936813F0010F21D16349634B9A421A
:1038B00018BF8A420CBF0122002274D18B6813F01A
:1038C000010300D001235D49896811F0010100D096
:1038D00001210B430CBF0123002343B1002A6BD00D
:1038E000574963688A6822F47C1213438B60FFF7A0
:1038F0005BF941F20303984202D9A368102B5DD013
:10390000627D236B43EA4233A2681343227F43EA7A
:103910000243227F012A5CD0626A22B102F47872EB
:10392000A16A0A4313432168C868464A0240134308
:10393000CB6021688B6813F0040300D001238A68F0
:1039400012F0080200D0012213431BD1227DE36A4A
:1039500043EA8232C8683C4B03401343CB6094F87F
:103960003830012B3AD02268136923F00103136128
:103970002268136923F07043616B0B431361204687
:10398000FFF786FEE368012B3AD02268136B23F021
:103990000F031363636D23F0030343F001036365B7
:1039A0003CE000256AE7294B9B6813F0010300D037
:1039B000012383F0010390E7254992E7617D226BA3
:1039C00042EA41321343227F43EA024343F00C03AD
:1039D0009FE7226A013A43EA42439DE72068026971
:1039E0001C4B1340E26B511E226C42EA0142616C97
:1039F0000A43A16C0A43134343F001030361B7E791
:103A000021680B6B23F00F03A269013A13430B6388
:103A1000C0E7636D43F0100363650125284603B0DA
:103A200030BD0125FAE700BFC0FFFF5FC0FFFF6F99
:103A300004000024632D3E050020024000210240C6
:103A40000023024003C0F0FFFCBFFFFF00600258EC
:103A5000006302581EF800FC7047704770477047BB
:103A60007047000090F85020012A00F0A18030B487
:103A70009AB00346012280F8502000221692179235
:103A800000684C4A904242D000220192019A002ADA
:103A900041D0926812F0040200D00122846814F030
:103AA000040F76D1002A74D1424C434A904218BF89
:103AB000A04239D102F50072086800283FD0906812
:103AC00020F440404C68204390601868394D3A4CCF
:103AD000A04218BFA84229D1A86810F0010000D068
:103AE0000120354CA46814F0010400D001242043C7
:103AF0000CBF01200020002856D094682F48204099
:103B00000C688968214308439060002046E002F574
:103B100080720192BAE75A6D42F020025A65002283
:103B200083F8502001203CE0254AC5E725488068FD
:103B300010F0010000D0012080F00100DBE7916867
:103B400021F44041916019681A4C1B48814218BF0A
:103B5000A14215D1A16811F0010100D00121164840
:103B6000806810F0010000D0012001430CBF01214A
:103B70000021D9B1906811490140916000200DE009
:103B80001049896811F0010100D0012181F0010183
:103B9000EFE75A6D42F020025A650120002283F8B7
:103BA00050201AB030BC70470020F7E70020F5E73E
:103BB000022070470020024000210240E0F0FFFF99
:103BC00000630258006002580649CB6823F4E063A2
:103BD0001B041B0C000200F4E0600343024A1A437A
:103BE000CA60704700ED00E00000FA0500B5174B11
:103BF000DB68C3F30223C3F1070CBCF1040F28BF39
:103C00004FF0040C03F1040EBEF1060F14D9033B70
:103C10004FF0FF3E0EFA0CFC21EA0C0199400EFA1F
:103C200003F322EA03031943002807DB0901C9B2A1
:103C3000074B19545DF804FB0023E9E700F00F007F
:103C40000901C9B2034B1954F4E700BF00ED00E0CD
:103C500000E400E014ED00E0002807DB00F01F02A4
:103C6000400901239340024A42F82030704700BFC8
:103C700000E100E00138B0F1807F0BD24FF0E0238B
:103C80005861054AF02182F823100020986107222C
:103C90001A6170470120704700ED00E0BFF35F8FAD
:103CA000044B5A6A22F480325A620022C3F89420EC
:103CB000704700BF00ED00E040F00100054BC3F885
:103CC00094005A6A42F480325A62BFF34F8FBFF3B6
:103CD0006F8F704700ED00E04278164BC3F89820D4
:103CE0000378FBB14368134AC2F89C30017BC37A66
:103CF0001B0643EA0173817A43EAC143417B43EAED
:103D00008143817B43EA4143C17B43EA0143417ADA
:103D100043EA0123017A43EA410301780B43C2F8E5
:103D2000A0307047034B0022C3F89C20C3F8A020AA
:103D3000704700BF00ED00E0F0B4876D0468664E88
:103D4000664DAC4218BFB44242D01835AC423FD0A9
:103D50001835AC423CD01835AC4239D01835AC429D
:103D600036D01835AC4233D01835AC4230D005F5DA
:103D70005675AC422CD01835AC4229D01835AC421F
:103D800026D01835AC4223D01835AC4220D0183597
:103D9000AC421DD01835AC421AD01835AC4217D001
:103DA0004F4DAC4214D01435AC4211D01435AC4256
:103DB0000ED01435AC420BD01435AC4208D01435BB
:103DC000AC4205D01435AC4202D01435AC4207D118
:103DD000446E856E6560C46E14B1046F456F656096
:103DE00004683D4E3D4DAC4218BFB44252D0183528
:103DF000AC424FD01835AC424CD01835AC4249D00B
:103E00001835AC4246D01835AC4243D01835AC42D8
:103E100040D005F55675AC423CD01835AC4239D08F
:103E20001835AC4236D01835AC4233D01835AC42D8
:103E300030D01835AC422DD01835AC422AD01835C8
:103E4000AC4227D0264E274DAC4218BFB44211D009
:103E5000254DAC420ED01435AC420BD01435AC42DB
:103E600008D01435AC4205D01435AC4202D014351C
:103E7000AC4224D1C46D04F01F050124AC407C6029
:103E8000046863608368402B20D0036899600368EE
:103E9000DA6014E0C46D04F01F0C3F2404FA0CF443
:103EA000BC6005682C6824F480242C60046863607E
:103EB0008368402B05D0036899600368DA60F0BC22
:103EC000704703689A600368D960F8E703689A60EE
:103ED0000368D960F3E700BF1000024028000240E9
:103EE000085402581C540258305402580368274999
:103EF000274A934218BF8B422FD0183293422CD0BE
:103F00001832934229D01832934226D01832934265
:103F100023D01832934220D0183293421DD002F59C
:103F20005672934219D01832934216D018329342E7
:103F300013D01832934210D0183293420DD0183259
:103F400093420AD01832934207D01832934204D0D9
:103F500023F0FF038365806D704710B4D9B2103928
:103F60000C4AA2FB0142C2F302120B4CA25CC265D6
:103F70005F2906D9094A1A4004328265806D10BC57
:103F80007047064A1A408265F8E700BF10000240F9
:103F900028000240ABAAAAAA6808010800FCFFFF9B
:103FA00083699BB9836A012B0AD0022B02D00BB123
:103FB00000207047C36A13F0807F2AD10020704729
:103FC000C36AB3F1C07F26D000207047B3F5005F0D
:103FD0000AD0836A022B26D9032B26D1C36A13F099
:103FE000807F24D100207047836A032B03D8DFE849
:103FF00003F01404140A00207047C36A13F0807F92
:104000000DD100207047C36AB3F1C07F09D00020F2
:104010007047012070470120704701207047012040
:104020007047012070470120704700207047012031
:104030007047000003682249224A934218BF8B420E
:1040400028D01432934225D01432934222D0143215
:1040500093421FD0143293421CD01432934219D091
:104060001432934216D0DAB2103A1749A1FB021269
:10407000120916491944A8291FD9154B13449B004E
:104080000366144B436602F01F02012303FA02F297
:1040900082667047DBB2083B0F4AA2FB03230F4A3C
:1040A00002EB1312920002660D4A4266C3F3041338
:1040B000012202FA03F3836670470832DDE700BF8E
:1040C000085402581C540258ABAAAAAAF0FBFDBF20
:1040D0000082001080080240CDCCCCCC00960016A7
:1040E0008058025801794A1E072A2CD830B4036838
:1040F000154D164CA34218BFAB4218D01434A3423E
:1041000015D01434A34212D01434A3420FD0143467
:10411000A3420CD01434A34209D01434A34206D0D5
:104120000B4B0B449B00C3660A4B036705E00A4B2D
:104130000B449B00C366094B0367012303FA02F299
:10414000426730BC70477047085402581C540258EC
:104150003F820010400902403F9600164059025825
:1041600070B50446FEF71AFD002C00F0B681054636
:1041700023685349534A934218BF8B420CBF012214
:10418000002250D030318B424DD018318B424AD072
:1041900018318B4247D018318B4244D018318B42B2
:1041A00041D018318B423ED001F556718B423AD046
:1041B00018318B4237D018318B4234D018318B42B2
:1041C00031D018318B422ED018318B422BD0183180
:1041D0008B4228D018318B4225D03B493B4A934231
:1041E00018BF8B4200F03181394A934200F02D8193
:1041F0001432934200F029811432934200F0258159
:104200001432934200F021811432934200F01D8158
:104210001432934200F0198140236365032384F82C
:10422000353001204AE0022184F83510002184F85D
:1042300034107ABB274A93422CD01832934229D0AB
:104240001832934226D01832934223D01832934228
:1042500020D0183293421DD002F55672934219D0E5
:104260001832934216D01832934213D01832934228
:1042700010D0183293420DD0183293420AD018321F
:10428000934207D01832934204D01A6822F00102F8
:104290001A6003E01A6822F001021A6023681A68A3
:1042A00012F0010F18D0FEF779FC431B052BF5D94E
:1042B00020236365032384F83530012070BD00BFDF
:1042C0001000024028000240085402581C540258B2
:1042D00030540258400002401A6881481040A168DA
:1042E000E2680A4321690A4361690A43A1690A43F2
:1042F000E1690A43216A0A430243616A042900F022
:1043000099807849086878490140B1F1005F11D37C
:104310006168A1F12905A1F13F00032888BF052D9F
:1043200006D9A1F14700012802D94F39032901D844
:1043300042F480121A602668756925F00705636AE1
:104340001D43042B08D1A36A1D43E36A23B1204611
:10435000FFF726FE002872D175612046FFF7C6FDE3
:10436000E36D03F01F023F239340836023685F499E
:104370005F4A934218BF8B4242D0183293423FD0DB
:10438000183293423CD01832934239D018329342BB
:1043900036D01832934233D01832934230D002F5DF
:1043A000567293422CD01832934229D0183293423D
:1043B00026D01832934223D01832934220D018329C
:1043C00093421DD0183293421AD01832934217D01C
:1043D000484A934214D01432934211D0143293427B
:1043E0000ED0143293420BD01432934208D01432C0
:1043F000934205D01432934202D01432934213D127
:104400002046FFF717FEA368802B59D0236E227930
:104410001A60636EA26E5A606368013B072B52D923
:104420000023E3662367636700206065012384F847
:10443000353043E7E16A206B01430A4361E74023DB
:104440006365012084F8350038E7022284F83520BE
:10445000002284F834201A6827491140A268402AB3
:104460002CD0802A27D00022E06842EAD0022069BE
:1044700042EAD002606942EAD002A06942EAD00270
:10448000E06942EAD002206A42EA10120A431A6046
:1044900022681A4B13441A4AA2FB03231B099B00F0
:1044A000E3652046FFF722FDE26D02F01F010122C5
:1044B0008A4042605AE74FF48042D5E71022D3E7A2
:1044C00000236360A2E72046FFF70CFEE36E0022A4
:1044D0001A60236F626F5A60A6E70120EEE600BF04
:1044E0003F8010FE0010005C0000FFFF1000024043
:1044F00028000240085402580F00FEFFF8ABFDA749
:10450000CDCCCCCC002800F03E8170B5044690F8AC
:104510003400012800F03981012084F8340094F837
:104520003500C0B2012807D04FF400636365002353
:1045300084F83430012070BD022084F8350000205A
:1045400060652068924E934DA84218BFB0422FD0AC
:104550001835A8422CD01835A84229D01835A842C1
:1045600026D01835A84223D01835A84220D01835B7
:10457000A8421DD005F55675A84219D01835A84295
:1045800016D01835A84213D01835A84210D01835C7
:10459000A8420DD01835A8420AD01835A84207D035
:1045A0001835A84204D0056825F00105056003E030
:1045B000056825F0010505602046FFF7BDFB23686F
:1045C0007349744A934218BF8B4238D018329342D1
:1045D00035D01832934232D0183293422FD018324D
:1045E00093422CD01832934229D01832934226D0CD
:1045F00002F55672934222D0183293421FD01832DD
:1046000093421CD01832934219D01832934216D0DC
:104610001832934213D01832934210D0183293427A
:104620000DD01A6822F00E0242F00A021A60236CC2
:1046300093B12268136843F0040313600CE01A6816
:1046400022F01E0242F016021A60236C23B1226887
:10465000136843F00803136023684D494D4A9342A1
:1046600018BF8B4242D0183293423FD01832934247
:104670003CD01832934239D01832934236D0183297
:10468000934233D01832934230D002F5567293429F
:104690002CD01832934229D01832934226D01832A7
:1046A000934223D01832934220D0183293421DD027
:1046B000183293421AD01832934217D0364A934296
:1046C00014D01432934211D0143293420ED01432CB
:1046D00093420BD01432934208D01432934205D047
:1046E0001432934202D0143293420ED1236E1A68D0
:1046F00012F4803F03D01A6842F480721A60E36EAD
:104700001BB11A6842F480721A6023682049214A5A
:10471000934218BF8B4230D0183293422DD01832BA
:1047200093422AD01832934227D01832934224D091
:104730001832934221D0183293421ED002F556729D
:1047400093421AD01832934217D01832934214D0A1
:104750001832934211D0183293420ED0183293423D
:104760000BD01832934208D01832934205D01A6801
:1047700042F001021A600020DDE61A6842F00102F0
:104780001A600020D7E6012070470220D3E600BF60
:1047900010000240280002400854025870B5044638
:1047A000FEF7FCF9002C00F09181054694F83530B5
:1047B000DBB2022B06D080236365002384F83430FB
:1047C000012070BD23688C498C4A934218BF8B42EC
:1047D00030D0183293422DD0183293422AD018325A
:1047E000934227D01832934224D01832934221D0DA
:1047F000183293421ED002F5567293421AD01832E4
:10480000934217D01832934214D01832934211D0E9
:10481000183293420ED0183293420BD01832934282
:1048200008D01832934205D01A6822F00E021A609E
:10483000266809E01A6822F01E021A60226853698D
:1048400023F080035361266823686B496B4A9342C7
:1048500018BF8B4242D0183293423FD01832934255
:104860003CD01832934239D01832934236D01832A5
:10487000934233D01832934230D002F556729342AD
:104880002CD01832934229D01832934226D01832B5
:10489000934223D01832934220D0183293421DD035
:1048A000183293421AD01832934217D0544A934286
:1048B00014D01432934211D0143293420ED01432D9
:1048C00093420BD01432934208D01432934205D055
:1048D0001432934202D01432934204D1226E1368F0
:1048E00023F48073136023684349444A934218BFFA
:1048F0008B422FD0183293422CD01832934229D0B9
:104900001832934226D01832934223D01832934261
:1049100020D0183293421DD002F55672934219D01E
:104920001832934216D01832934213D01832934261
:1049300010D0183293420DD0183293420AD0183258
:10494000934207D01832934204D01A6822F0010231
:104950001A6003E01A6822F001021A60336813F04B
:10496000010F0ED0FEF71AF9431B052BF6D92023B1
:104970006365032384F83530002384F83430012044
:104980001FE723681C491D4A934218BF8B4239D048
:104990001832934236D01832934233D018329342B1
:1049A00030D0183293422DD0183293422AD0183288
:1049B000934227D002F55672934223D01832934285
:1049C00020D0183293421DD0183293421AD0183298
:1049D000934217D01832934214D01832934211D018
:1049E000183293420ED0A16DE36D03F01F02012334
:1049F00093404B600DE000BF1000024028000240D1
:104A000008540258A16DE36D03F01F023F23934049
:104A10008B6023682E492F4A934218BF8B4242D0A5
:104A2000183293423FD0183293423CD0183293420E
:104A300039D01832934236D01832934233D01832DC
:104A4000934230D002F5567293422CD018329342E2
:104A500029D01832934226D01832934223D01832EC
:104A6000934220D0183293421DD0183293421AD06C
:104A70001832934217D0184A934214D014329342FA
:104A800011D0143293420ED0143293420BD0143210
:104A9000934208D01432934205D01432934202D08C
:104AA000143293420BD1636EA26E5A60E36E33B13F
:104AB0001A6822F480721A60236F626F5A600123B1
:104AC00084F83530002084F834007AE6012078E656
:104AD000100002402800024008540258002800F04C
:104AE000298108B5024690F83530DBB2022B03D09D
:104AF00080234365012008BD0368904890498B429C
:104B000018BF83420CBF0121002166D030308342A0
:104B100063D01830834260D0183083425DD01830A3
:104B200083425AD01830834257D01830834254D031
:104B300000F55670834250D0183083424DD0183063
:104B400083424AD01830834247D01830834244D041
:104B50001830834241D0183083423ED0183083420F
:104B60003BD0196821F00E0119601368A0F595601B
:104B700073498B4218BF83426AD072498B4267D017
:104B800018318B4264D018318B4261D018318B427E
:104B90005ED018318B425BD018318B4258D001F572
:104BA00056718B4254D018318B4251D018318B4200
:104BB0004ED018318B424BD018318B4248D018312F
:104BC0008B4245D018318B4242D018318B423FD0B6
:104BD000196821F0010119603EE0042082F83500D7
:104BE00081BB584A93422DD0183293422AD01832B2
:104BF000934227D01832934224D01832934221D0C6
:104C0000183293421ED002F5567293421AD01832CF
:104C1000934217D01832934214D01832934211D0D5
:104C2000183293420ED0183293420BD0183293426E
:104C300008D01832934205D01A6822F001021A6097
:104C4000002058E71A6822F001021A60002052E79B
:104C5000196821F0010119601368384838498B42FE
:104C600018BF834242D018318B423FD018318B425B
:104C70003CD018318B4239D018318B4236D01831A4
:104C80008B4233D018318B4230D001F556718B42B4
:104C90002CD018318B4229D018318B4226D01831B4
:104CA0008B4223D018318B4220D018318B421DD03B
:104CB00018318B421AD018318B4217D022498B42BF
:104CC00014D014318B4211D014318B420ED01431D8
:104CD0008B420BD014318B4208D014318B4205D05B
:104CE00014318B4202D014318B4217D1116E0B68F4
:104CF00023F480730B60906DD36D03F01F010123CB
:104D00008B404360536E916E5960D36E33B1196816
:104D100021F480711960136F516F5960012382F87B
:104D20003530002382F83430136D2BB1104698478C
:104D30000020E0E6012070470020DCE61000024081
:104D4000280002404000024008540258F0B583B0E9
:104D50000446002301937D4B1D687D4BA3FB053565
:104D6000AD0A876D3E68D7F800C0036879497A4874
:104D7000834218BF8B420CBF0120002061D0774ACC
:104D800093425ED0183293425BD01832934258D08F
:104D90001832934255D01832934252D0183293426F
:104DA0004FD002F5567293424BD01832934248D0FE
:104DB0001832934245D01832934242D0183293426F
:104DC0003FD0183293423CD01832934239D0183237
:104DD000934236D06249634A934218BF8B4212D045
:104DE000614A93420FD0143293420CD01432934252
:104DF00009D01432934206D01432934203D01432B5
:104E0000934240F061821A68E16D01F01F010420B5
:104E1000884010EA0C0F00F0A78212F0040F00F097
:104E2000A382786012F4004F00F05A8212F4803F9F
:104E300040F05082A36C002B00F046822046984739
:104E400042E2E26D02F01F0108228A40324241D064
:104E500070BB424A93422BD01832934228D018326A
:104E6000934225D01832934222D0183293421FD059
:104E7000183293421CD002F55672934218D0183261
:104E8000934215D01832934212D0183293420FD069
:104E9000183293420CD01832934209D01832934200
:104EA00006D01832934203D01A68C2F3C00202E05F
:104EB0001A68C2F380026AB11A6822F004021A600A
:104EC000E36D03F01F0208239340BB60636D43F062
:104ED00001036365E26D02F01F0226FA02F313F08C
:104EE000010F47D023681B481B498B4218BF8342E0
:104EF0003CD018318B4239D018318B4236D0183122
:104F00008B4233D018318B4230D018318B422DD0A8
:104F100018318B422AD001F556718B4226D01831B8
:104F20008B4223D018318B4220D018318B421DD0B8
:104F300018318B421AD018318B4217D018318B425E
:104F400014D018318B4211D01B6813E004000024E8
:104F5000B5814E1B10000240280002404000024074
:104F6000085402581C540258305402585B6913F01C
:104F7000800F3BD1E36D03F01F03042202FA03F319
:104F8000334240D02268964896498A4218BF8242EE
:104F900035D018318A4232D018318A422FD0183198
:104FA0008A422CD018318A4229D018318A4226D020
:104FB00018318A4223D001F556718A421FD0183128
:104FC0008A421CD018318A4219D018318A4216D030
:104FD00018318A4213D018318A4210D018318A42CF
:104FE0000DD018318A420AD013680CE0012303FA6D
:104FF00002F2BA60636D43F002036365BAE71268B8
:1050000012F0020F3DD1E36D03F01F03102202FAEC
:1050100003F333425FD02268714872498A4218BF55
:10502000824234D018318A4231D018318A422ED08F
:1050300018318A422BD018318A4228D018318A423E
:1050400025D018318A4222D001F556718A421ED0ED
:1050500018318A421BD018318A4218D018318A423E
:1050600015D018318A4212D018318A420FD0183127
:105070008A420CD018318A4209D01268C2F38002E9
:1050800008E0BB60636D43F004036365BBE712682F
:10509000C2F3C002FAB1BB6023681A6812F4802F11
:1050A0000DD01B6813F4002F04D1236C9BB1204654
:1050B000984710E0A36C73B1204698470BE01A683C
:1050C00012F4807F03D11A6822F008021A60236C60
:1050D0000BB120469847E36D03F01F03202202FA2C
:1050E00003F3334200F0928022683D483D498A42F2
:1050F00018BF82422ED018318A422BD018318A42F2
:1051000028D018318A4225D018318A4222D018314D
:105110008A421FD018318A421CD001F556718A424A
:1051200018D018318A4215D018318A4212D018315D
:105130008A420FD018318A420CD018318A4209D0E5
:1051400018318A4206D018318A4203D01268C2F35D
:10515000400202E01268C2F30012002A56D0BB607F
:1051600094F83530DBB2042B0ED023681A6812F4A1
:10517000802F39D01B6813F4002F2CD1636C002BC7
:1051800044D02046984741E02268136823F0160374
:1051900013602268536923F080035361236CB3B119
:1051A0002268136823F008031360E36D03F01F0205
:1051B0003F239340BB60012384F83530002384F8FB
:1051C0003430236D002B7FD0204698477CE0A36CC1
:1051D000002BE5D1E9E7E36BC3B12046984715E022
:1051E00010000240280002401A6812F4807F09D1A2
:1051F0001A6822F010021A60012384F83530002367
:1052000084F83430E36B0BB120469847636D002B74
:105210005AD0636D13F0010F52D0042384F8353057
:1052200023689649964A934218BF8B422FD0183272
:1052300093422CD01832934229D01832934226D070
:105240001832934223D01832934220D0183293421E
:105250001DD002F55672934219D01832934216D0DF
:105260001832934213D01832934210D0183293421E
:105270000DD0183293420AD01832934207D0183218
:10528000934204D01A6822F001021A6003E01A68FF
:1052900022F001021A60019B01330193AB4204D852
:1052A00023681B6813F0010FF5D123681B6813F006
:1052B000010F0BD0032384F83530002384F83430F9
:1052C000E36C0BB12046984703B0F0BD012384F88E
:1052D0003530F2E7236C002BF6D020469847F3E7F1
:1052E00012F0200F3AD123686449654A934218BFEF
:1052F0008B422FD0183293422CD01832934229D0AF
:105300001832934226D01832934223D01832934257
:1053100020D0183293421DD002F55672934219D014
:105320001832934216D01832934213D01832934257
:1053300010D0183293420DD0183293420AD018324E
:10534000934207D01832934204D01A6822F0040224
:105350001A6003E01A6822F008021A60236C002B1E
:10536000B2D020469847AFE70220884010EA0C0FE1
:1053700060D012F0020F5DD0786012F4004F0ED0B2
:1053800012F4803F05D1636C002B9DD020469847D6
:105390009AE7E36B002B97D02046984794E712F0EA
:1053A000200F40D123683549354A934218BF8B42BC
:1053B0002FD0183293422CD01832934229D0183271
:1053C000934226D01832934223D01832934220D0F1
:1053D000183293421DD002F55672934219D01832FA
:1053E000934216D01832934213D01832934210D001
:1053F000183293420DD0183293420AD01832934299
:1054000007D01832934204D01A6822F00A021A60B8
:1054100003E01A6822F014021A60012384F8353080
:10542000002384F83430E36B002B3FF44DAF20466B
:10543000984749E7082000FA01F111EA0C0F3FF400
:1054400043AF12F0080F3FF43FAF1A6822F00E028C
:105450001A60E36D03F01F03012202FA03F37B607D
:10546000626584F83520002384F83430E36C002B27
:105470003FF42AAF2046984726E700BF10000240BD
:105480002800024070B582B000236EE085685E009F
:105490000324B44025EA0405CC68B4402C4384605E
:1054A000446824EA0C0C4C68C4F300149C4044EAA1
:1054B0000C0444606CE0DD08083550F8256003F00A
:1054C00007044FEA840C0F2404FA0CF426EA040EB5
:1054D0000C6904FA0CF444EA0E0440F825406FE02D
:1054E000092400E0002404FA0EF42C430CF1020C11
:1054F0006B4D45F82C404FF0B0442568D44325EA65
:105500000206D1F804C01CF4801F01D042EA05064F
:105510004FF0B0452E606D6804EA0506D1F804C06E
:105520001CF4001F01D042EA05064FF0B0456E6042
:10553000D5F8845004EA0506D1F804C01CF4003FF5
:1055400001D042EA05064FF0B045C5F88460D5F8B1
:1055500080502C404E6816F4803F01D042EA05048A
:105560004FF0B042C2F8804001330A6832FA03F4C7
:1055700000F093804FF0010C0CFA03FC1CEA0202CD
:10558000F2D04C6804F00304013C012C7FF67EAF9E
:105590004C6804F00304032C0CD0C4685D004FF089
:1055A000030C0CFA05FC24EA0C0C8C68AC4044EAB1
:1055B0000C04C4604C6804F00304022C3FF47BAF7D
:1055C00004684FEA430E4FF0030C0CFA0EFC24EA79
:1055D0000C0C4C6804F0030404FA0EF444EA0C04C6
:1055E00004604C6814F4403FBED02E4CD4F8F45004
:1055F00045F00205C4F8F450D4F8F44004F0020475
:105600000194019C4FEA930C0CF10205244C54F8D0
:10561000255003F003044FEA840E0F2404FA0EF41D
:1056200025EA0405204CA0423FF45CAF04F58064F9
:10563000A04222D004F58064A04220D004F580640A
:10564000A0421ED004F58064A0421CD004F5806402
:10565000A0421AD004F58064A04218D004F58064FA
:10566000A04216D004F58064A04214D004F58064F2
:10567000A0423FF435AF0A2435E7012433E7022482
:1056800031E703242FE704242DE705242BE7062424
:1056900029E7072427E7082425E702B070BD00BFEB
:1056A0000004005800440258000002580AB1816109
:1056B0007047090481617047134BDB6813F0040FD6
:1056C00007D1114BDB6803F0070383421AD0012096
:1056D000704710B50C4AD36823F007031843D06015
:1056E000FDF75CFA0446084B5B6813F4005F07D1D2
:1056F000FDF754FA001BB0F57A7FF4D9012000E0E1
:10570000002010BD0020704700480258002800F01B
:10571000398338B50446036813F0010F25D0944A45
:10572000136903F03803926A102B15D0182B0FD091
:105730006368B3F5803F3FD0002B53D18C4B1A6880
:1057400022F480321A601A6822F480221A6038E04B
:1057500002F00302022AEBD1854B1B6813F4003FD1
:1057600003D06368002B00F00F83236813F0020F4F
:1057700000F0A1807E4A1369926A13F038035AD070
:10578000182B55D0E368002B00F0DE8078490A68BA
:1057900022F0190213430B60FDF700FA0546744B23
:1057A0001B6813F0040F40F0AD80FDF7F7F9401BC4
:1057B0000228F4D90320EEE26D4A136843F48033E3
:1057C000136063682BB3FDF7E9F90546684B1B6866
:1057D00013F4003FC9D1FDF7E1F9401B6428F5D966
:1057E0000320D8E2B3F5A02F09D0614B1A6822F448
:1057F00080321A601A6822F480221A60E1E75C4B5A
:105800001A6842F480221A601A6842F480321A60E0
:10581000D7E7FDF7C3F90546554B1B6813F4003F66
:10582000A3D0FDF7BBF9401B6428F5D90320B2E2F1
:1058300012F0030FA6D14E4B1B6813F0040F03D0D8
:10584000E368002B00F0A282494A136823F0190391
:10585000E1680B431360FDF7A1F90546444B1B6853
:1058600013F0040F06D1FDF799F9401B0228F5D972
:10587000032090E2FDF798F941F20303984212D811
:105880002269402A07D03A494B6823F47C3343EA23
:1058900002334B600FE0364A536823F47C3343F401
:1058A0000033536007E0324A536823F0FE43216916
:1058B00043EA01635360236813F0100F00F08880FF
:1058C0002B4A136903F03803926A082B56D0182B21
:1058D00050D0E369002B00F0B880254A136843F0EC
:1058E00080031360FDF75AF90546214B1B6813F43A
:1058F000807F40F08880FDF751F9401B0228F4D9E1
:10590000032048E2FDF750F941F20303984212D810
:105910002269402A07D016494B6823F47C3343EAB6
:1059200002334B60C7E7124A536823F47C3343F4D5
:1059300000335360BFE70E4A536823F0FE432169EA
:1059400043EA01635360B6E7094A136823F0010391
:105950001360FDF723F90546054B1B6813F0040F90
:10596000A9D0FDF71BF9401B0228F5D9032012E24C
:105970000044025802F00302012AAAD1A14B1B687D
:1059800013F4807F03D0E369802B40F00182FDF7A0
:105990000BF941F20303984212D8226A202A07D059
:1059A00098494B6823F0F84343EA82634B600FE069
:1059B000944A536823F0F84343F08043536007E070
:1059C000904AD36823F07C53216A43EA0163D36091
:1059D000236813F0080F60D06369002B49D0894A0F
:1059E000536F43F001035367FDF7D8F80546854B25
:1059F0005B6F13F0020F50D1FDF7D0F8401B022867
:105A0000F5D90320C7E1FDF7CFF841F2030398422F
:105A100012D8226A202A07D07A494B6823F0F8432B
:105A200043EA82634B60D3E7764A536823F0F84336
:105A300043F080435360CBE7724AD36823F07C5332
:105A4000216A43EA0163D360C2E76E4A136823F018
:105A500080031360FDF7A2F805466A4B1B6813F438
:105A6000807FB5D0FDF79AF8401B0228F5D90320B6
:105A700091E1644A536F23F001035367FDF78EF8F9
:105A80000546604B5B6F13F0020F06D0FDF786F8FA
:105A9000401B0228F5D903207DE1236813F0200F75
:105AA00029D0A3699BB1574A136843F4805313600C
:105AB000FDF774F80546534B1B6813F4005F1AD1C9
:105AC000FDF76CF8401B0228F5D9032063E14D4A2D
:105AD000136823F480531360FDF760F80546494BC3
:105AE0001B6813F4005F06D0FDF758F8401B02282E
:105AF000F5D903204FE1236813F0040F21D1636A25
