:020000040800F2
:1000000000000824F1480008813F0008833F0008F1
:10001000853F0008873F0008893F00080000000076
:100020000000000000000000000000008B3F0008FE
:100030008D3F0008000000008F3F0008913F00083E
:100040004149000841490008414900084149000868
:100050004149000841490008414900084149000858
:10006000414900084149000841490008993F0008FA
:100070004149000841490008414900084149000838
:100080004149000841490008A93F000841490008CA
:100090004149000841490008414900084149000818
:1000A0004149000841490008B93F0008C93F00081C
:1000B00041490008D93F000841490008414900086A
:1000C00041490008414900084149000841490008E8
:1000D00041490008E93F000841490008414900083A
:1000E000414900084149000800000000F93F0008AC
:1000F00041490008414900084149000841490008B8
:1001000041490008414900084149000841490008A7
:100110004149000841490008414900084149000897
:100120004149000841490008414900084149000887
:100130004149000841490008414900084149000877
:1001400000000000000000000000000000000000AF
:100150004149000841490008414900084149000857
:100160004149000841490008414900084149000847
:100170004149000841490008414900084149000837
:100180004149000841490008414900084149000827
:100190004149000841490008414900084149000817
:1001A0004149000841490008414900084149000807
:1001B00041490008414900084149000841490008F7
:1001C00041490008414900084149000841490008E7
:1001D00041490008414900084149000841490008D7
:1001E00041490008414900084149000841490008C7
:1001F00041490008414900084149000841490008B7
:1002000041490008414900084149000841490008A6
:100210004149000841490008414900084149000896
:100220004149000841490008414900080000000018
:100230004149000841490008000000004149000808
:100240004149000841490008414900084149000866
:100250004149000841490008414900084149000856
:100260004149000841490008414900084149000846
:1002700041490008414900084149000800000000C8
:1002800041490008414900084149000800000000B8
:080290000000000041490008D4
:1002C00010B5054C237833B9044B13B10448AFF390
:1002D00000800123237010BDF409002400000000F9
:1002E0002C62010808B5034B1BB103490348AFF367
:1002F000008008BD00000000F80900242C620108FD
:1003000081F0004102E000BF83F0004330B54FEAC6
:1003100041044FEA430594EA050F08BF90EA020F33
:100320001FBF54EA000C55EA020C7FEA645C7FEAC6
:10033000655C00F0E2804FEA5454D4EB5555B8BFE9
:100340006D420CDD2C4480EA020281EA030382EA5A
:10035000000083EA010180EA020281EA0303362DEC
:1003600088BF30BD11F0004F4FEA01314FF4801CBF
:100370004CEA113102D0404261EB410113F0004FD1
:100380004FEA03334CEA133302D0524263EB430388
:1003900094EA050F00F0A780A4F10104D5F1200E26
:1003A0000DDB02FA0EFC22FA05F2801841F1000181
:1003B00003FA0EF2801843FA05F359410EE0A5F155
:1003C00020050EF1200E012A03FA0EFC28BF4CF086
:1003D000020C43FA05F3C01851EBE37101F000453C
:1003E00007D54FF0000EDCF1000C7EEB00006EEB49
:1003F0000101B1F5801F1BD3B1F5001F0CD34908D3
:100400005FEA30004FEA3C0C04F101044FEA445229
:1004100012F5800F80F09A80BCF1004F08BF5FEAB0
:10042000500C50F1000041EB045141EA050130BD90
:100430005FEA4C0C404141EB0101013C28BFB1F5A2
:10044000801FE9D291F0000F04BF01460020B1FAED
:1004500081F308BF2033A3F10B03B3F120020CDAC0
:100460000C3208DD02F1140CC2F10C0201FA0CF09E
:1004700021FA02F10CE002F11402D8BFC2F1200C03
:1004800001FA02F120FA0CFCDCBF41EA0C019040B9
:10049000E41AA2BF01EB0451294330BD6FEA040402
:1004A0001F3C1CDA0C340EDC04F11404C4F12002ED
:1004B00020FA04F001FA02F340EA030021FA04F3FF
:1004C00045EA030130BDC4F10C04C4F1200220FA56
:1004D00002F001FA04F340EA0300294630BD21FA94
:1004E00004F0294630BD94F0000F83F4801306BF5A
:1004F00081F480110134013D4EE77FEA645C18BF4E
:100500007FEA655C29D094EA050F08BF90EA020FE4
:1005100005D054EA000C04BF1946104630BD91EADC
:10052000030F1EBF0021002030BD5FEA545C05D1DF
:100530004000494128BF41F0004130BD14F580041E
:100540003CBF01F5801130BD01F0004545F0FE4192
:1005500041F470014FF0000030BD7FEA645C1ABFC7
:10056000194610467FEA655C1CBF0B46024650EAFE
:10057000013406BF52EA033591EA030F41F400212A
:1005800030BD00BF90F0000F04BF0021704730B5B0
:100590004FF4806404F132044FF000054FF0000185
:1005A00050E700BF90F0000F04BF0021704730B546
:1005B0004FF4806404F1320410F0004548BF40421B
:1005C0004FF000013EE700BF42004FEAE2014FEA70
:1005D00031014FEA02701FBF12F07F4393F07F4F4B
:1005E00081F06051704732F07F4208BF704793F04E
:1005F0007F4F04BF41F40021704730B54FF4607461
:1006000001F0004521F000411CE700BF50EA010263
:1006100008BF704730B54FF000050AE050EA01020C
:1006200008BF704730B511F0004502D5404261EB7C
:1006300041014FF4806404F132045FEA915C3FF4BD
:10064000D8AE4FF003025FEADC0C18BF03325FEA5A
:10065000DC0C18BF033202EBDC02C2F1200300FA0B
:1006600003FC20FA02F001FA03FE40EA0E0021FA30
:1006700002F11444BDE600BF4FF0FF3C06E000BFAE
:100680004FF0010C02E000BF4FF0010C4DF804CD1B
:100690004FEA410C7FEA6C5C4FEA430C18BF7FEADB
:1006A0006C5C1BD001B050EA410C0CBF52EA430C09
:1006B00091EA030F02BF90EA020F0020704710F189
:1006C000000F91EA030F58BF994208BF90422CBF18
:1006D000D8176FEAE37040F0010070474FEA410C11
:1006E0007FEA6C5C02D150EA013C07D14FEA430C2F
:1006F0007FEA6C5CD6D152EA033CD3D05DF8040BA0
:10070000704700BF8446104662468C4619466346D1
:1007100000E000BF01B5FFF7B7FF002848BF10F1A8
:10072000000F01BD4DF808EDFFF7F4FF0CBF0120ED
:1007300000205DF808FB00BF4DF808EDFFF7EAFF69
:1007400034BF012000205DF808FB00BF4DF808ED24
:10075000FFF7E0FF94BF012000205DF808FB00BF19
:100760004DF808EDFFF7CEFF94BF012000205DF8A3
:1007700008FB00BF4DF808EDFFF7C4FF34BF0120B0
:1007800000205DF808FB00BF4FEA410C7FEA6C5C7B
:1007900002D150EA013C0AD14FEA430C7FEA6C5C7B
:1007A00002D152EA033C02D14FF0000070474FF0F3
:1007B000010070474FEA410212F5001215D211D51F
:1007C0006FF47873B3EB625212D94FEAC12343F04E
:1007D000004343EA505311F0004F23FA02F018BFD0
:1007E000404270474FF00000704750EA013005D199
:1007F00011F0004008BF6FF0004070474FF000005C
:10080000704700BF80F0004002E000BF81F000416F
:1008100042001FBF5FEA410392EA030F7FEA226CA6
:100820007FEA236C6AD04FEA1262D2EB1363C1BF36
:10083000D218414048404140B8BF5B42192B88BFA5
:10084000704710F0004F40F4000020F07F4018BFC8
:10085000404211F0004F41F4000121F07F4118BFE8
:10086000494292EA030F3FD0A2F1010241FA03FC90
:1008700010EB0C00C3F1200301FA03F100F0004378
:1008800002D5494260EB4000B0F5000F13D3B0F140
:10089000807F06D340084FEA310102F10102FE2AAF
:1008A00051D2B1F1004F40EBC25008BF20F001001F
:1008B00040EA03007047490040EB0000013A28BFBE
:1008C000B0F5000FEDD2B0FA80FCACF1080CB2EB41
:1008D0000C0200FA0CF0AABF00EBC25052421843BF
:1008E000BCBFD0401843704792F0000F81F4000164
:1008F00006BF80F400000132013BB5E74FEA410337
:100900007FEA226C18BF7FEA236C21D092EA030FA2
:1009100004D092F0000F08BF0846704790EA010F1C
:100920001CBF0020704712F07F4F04D1400028BF49
:1009300040F00040704712F100723CBF00F500002B
:10094000704700F0004343F0FE4040F40000704761
:100950007FEA226216BF08467FEA2363014642020D
:1009600006BF5FEA412390EA010F40F48000704720
:100970004FF0000304E000BF10F0004348BF4042C6
:100980005FEA000C08BF704743F0964301464FF002
:1009900000001CE050EA010208BF70474FF000035E
:1009A0000AE000BF50EA010208BF704711F000439F
:1009B00002D5404261EB41015FEA010C02BF84466F
:1009C0000146002043F0B64308BFA3F18053A3F5CE
:1009D0000003BCFA8CF2083AA3EBC25310DB01FA15
:1009E00002FC634400FA02FCC2F12002BCF1004F99
:1009F00020FA02F243EB020008BF20F0010070472A
:100A000002F1200201FA02FCC2F1200250EA4C007D
:100A100021FA02F243EB020008BF20EADC707047C3
:100A20004FF0FF0C1CEAD0521EBF1CEAD15392EAD1
:100A30000C0F93EA0C0F6FD01A4480EA010C4002AD
:100A400018BF5FEA41211ED04FF0006343EA501007
:100A500043EA5111A0FB01310CF00040B1F5000F49
:100A60003EBF490041EAD3715B0040EA010062F1F8
:100A70007F02FD2A1DD8B3F1004F40EBC25008BFE2
:100A800020F00100704790F0000F0CF0004C08BF00
:100A900049024CEA502040EA51207F3AC2BFD2F1CD
:100AA000FF0340EAC250704740F400004FF00003DB
:100AB000013A5DDC12F1190FDCBF00F00040704715
:100AC000C2F10002410021FA02F1C2F1200200FA53
:100AD00002FC5FEA310040F1000053EA4C0308BF1A
:100AE00020EADC70704792F0000F00F0004C02BF6B
:100AF000400010F4000F013AF9D040EA0C0093F0E6
:100B0000000F01F0004C02BF490011F4000F013B3F
:100B1000F9D041EA0C018FE70CEAD15392EA0C0FAD
:100B200018BF93EA0C0F0AD030F0004C18BF31F018
:100B3000004CD8D180EA010000F00040704790F0EE
:100B4000000F17BF90F0004F084691F0000F91F092
:100B5000004F14D092EA0C0F01D142020FD193EA58
:100B60000C0F03D14B0218BF084608D180EA0100E0
:100B700000F0004040F0FE4040F40000704740F0BC
:100B8000FE4040F4400070474FF0FF0C1CEAD0528A
:100B90001EBF1CEAD15392EA0C0F93EA0C0F69D0E6
:100BA000A2EB030280EA010C49024FEA402037D051
:100BB0004FF0805343EA111143EA10130CF0004048
:100BC0008B4238BF5B0042F17D024FF4000C8B4238
:100BD00024BF5B1A40EA0C00B3EB510F24BFA3EB18
:100BE000510340EA5C00B3EB910F24BFA3EB9103E8
:100BF00040EA9C00B3EBD10F24BFA3EBD10340EA42
:100C0000DC001B0118BF5FEA1C1CE0D1FD2A3FF687
:100C100050AF8B4240EBC25008BF20F0010070473C
:100C20000CF0004C4CEA50207F32C2BFD2F1FF03DF
:100C300040EAC250704740F400004FF00003013A10
:100C400037E792F0000F00F0004C02BF400010F4B4
:100C5000000F013AF9D040EA0C0093F0000F01F0C8
:100C6000004C02BF490011F4000F013BF9D041EAEA
:100C70000C0195E70CEAD15392EA0C0F08D142021D
:100C80007FF47DAF93EA0C0F7FF470AF084676E7F0
:100C900093EA0C0F04D14B023FF44CAF08466EE7C9
:100CA00030F0004C18BF31F0004CCAD130F0004297
:100CB0007FF45CAF31F000437FF43CAF5FE700BFEF
:100CC00042000ED2B2F1FE4F0BD34FF09E03B3EBB6
:100CD000126209D44FEA002343F0004323FA02F0E2
:100CE00070474FF00000704712F1610F01D14202CE
:100CF00002D14FF0FF3070474FF00000704700BF47
:100D000053B94AB9002908BF00281CBF4FF0FF3172
:100D10004FF0FF3000F074B9ADF1080C6DE904CE6E
:100D200000F006F8DDF804E0DDE9022304B07047C6
:100D30002DE9F047089E0D4604468846002B4DD10C
:100D40008A42944668D9B2FA82F252B101FA02F3A9
:100D5000C2F1200120FA01F10CFA02FC41EA030879
:100D600094404FEA1C45210CB8FBF5FE1FFA8CF7A6
:100D700005FB1E8341EA03430EFB07F199420BD9A1
:100D80001CEB03030EF1FF3080F01E81994240F20C
:100D90001B81AEF1020E63445B1AA4B2B3FBF5F003
:100DA00005FB103344EA034400FB07F7A7420AD9C6
:100DB0001CEB040400F1FF3380F00881A74240F2ED
:100DC000058164440238E41B40EA0E4000211EB154
:100DD000D4400023C6E90043BDE8F0878B4208D920
:100DE000002E00F0EE800021C6E900050846BDE8AF
:100DF000F087B3FA83F100294AD1AB4202D3824291
:100E000000F2F980841A65EB030301209846002E56
:100E1000E2D0C6E90048DFE702B9FFDEB2FA82F2AB
:100E2000002A40F09180A1EB0C054FEA1C471FFA05
:100E30008CFE0121B5FBF7F307FB1350250C45EAA7
:100E400000450EFB03F0A84208D91CEB050503F191
:100E5000FF3802D2A84200F2CB8043462D1AA4B23A
:100E6000B5FBF7F007FB105544EA05440EFB00FE06
:100E7000A64508D91CEB040400F1FF3502D2A645B3
:100E800000F2BB802846A4EB0E0440EA03409EE734
:100E9000C1F120078B4022FA07FC4CEA030C20FA30
:100EA00007F405FA01F31C43FD404FEA1C4900FA20
:100EB00001F3B5FBF9F8200C1FFA8CFE09FB18555D
:100EC00040EA054508FB0EF0A84202FA01F20BD9F0
:100ED0001CEB050508F1FF3A80F08880A84240F23B
:100EE0008580A8F1020865442D1AA4B2B5FBF9F07B
:100EF00009FB105544EA054500FB0EFEAE4508D936
:100F00001CEB050500F1FF346CD2AE456AD90238FE
:100F1000654440EA0840A0FB0294A5EB0E05A542FB
:100F2000C846A64656D353D05EB1B3EB080265EB74
:100F30000E0505FA07F722FA01F3CD401F43C6E973
:100F400000750021BDE8F087C2F1200320FA03F10B
:100F50000CFA02FC25FA03F395400D434FEA1C47B7
:100F60001FFA8CFEB3FBF7F107FB11302B0C43EAA1
:100F7000004301FB0EF0984204FA02F408D91CEB7E
:100F8000030301F1FF382FD298422DD9023963446F
:100F90001B1AADB2B3FBF7F007FB103345EA03456C
:100FA00000FB0EF3AB4208D91CEB050500F1FF383E
:100FB00016D2AB4214D902386544ED1A40EA014119
:100FC00038E73146304607E78646E5E61846FAE652
:100FD0004B45A9D2B9EB020864EB0C0E0138A3E72C
:100FE0004046EAE7204694E74146D1E7D0467BE712
:100FF000023B654432E7084609E76444023842E7A9
:10100000704700BF844641EA000313F003036DD12B
:10101000403A41D351F8043B40F8043B51F8043BBB
:1010200040F8043B51F8043B40F8043B51F8043BC2
:1010300040F8043B51F8043B40F8043B51F8043BB2
:1010400040F8043B51F8043B40F8043B51F8043BA2
:1010500040F8043B51F8043B40F8043B51F8043B92
:1010600040F8043B51F8043B40F8043B51F8043B82
:1010700040F8043B51F8043B40F8043B51F8043B72
:1010800040F8043B51F8043B40F8043B51F8043B62
:1010900040F8043B403ABDD2303211D351F8043B02
:1010A00040F8043B51F8043B40F8043B51F8043B42
:1010B00040F8043B51F8043B40F8043B103AEDD2B1
:1010C0000C3205D351F8043B40F8043B043AF9D202
:1010D000043208D0D2071CBF11F8013B00F8013BD5
:1010E00001D30B8803806046704700BF082A13D3E2
:1010F0008B078DD010F003038AD0C3F10403D21AFA
:10110000DB071CBF11F8013B00F8013B80D331F82D
:10111000023B20F8023B7BE7043AD9D3013A11F8AD
:10112000013B00F8013BF9D20B7803704B78437018
:101130008B7883706046704700000000000000005C
:10114000A2EB0300704700BF02780B78012A28BF8A
:101150009A42F5D16DE9044540EA0104CDE9026700
:101160006FF0000C4FEA447212B380EA010414F0ED
:10117000070F6AD100F0070420F0070004F0030510
:1011800021F007014FEAC505F0E8042314F0040F2D
:10119000F1E804670CFA05F462EA040266EA040660
:1011A0000AD063EA0403624667EA0407664603E07E
:1011B000F0E80423F1E8046782FA4CF582EA0604B9
:1011C000A4FA8CF46CBB83FA4CF583EA0705A5FA04
:1011D0008CF595B950E9022351E9026782FA4CF582
:1011E00082EA0604A4FA8CF483FA4CF583EA070534
:1011F000A5FA8CF52543DBD09CB92DBAB5FA85F458
:1012000024F0070427FA04F1DDE9026723FA04F366
:1012100003F0FF0001F0FF01FDE80445A0EB010031
:10122000704724BAB4FA84F424F0070426FA04F1CF
:10123000DDE9026722FA04F202F0FF0001F0FF018B
:10124000FDE80445A0EB0100704714F0030F3CD10A
:1012500010F0030428D150F8082B51F8083B82FA0B
:101260004CF582EA0305A5FA8CF55DB950F8042C1B
:1012700051F8043C82FA4CF582EA0305A5FA8CF594
:10128000002DE8D02DBAB5FA85F424F0070423FA2E
:1012900004F122FA04F202F0FF0001F0FF01FDE880
:1012A0000445A0EB010070474FEAC40420F003009E
:1012B00050F8082B21F0030151F8083B0CFA04F414
:1012C00062EA040263EA0403C9E710F003041AD0D7
:1012D000A1EB040120F00300E40750F8042B06D032
:1012E0000FD28B785FFAA2F4E41A06D12BB1CB7837
:1012F0005FFAB2F4E41A00D11BB920465DF8104B36
:10130000704701F1040150F8042BCC0721F00301D0
:1013100051F8043B48D824D222F07F4482FA4CF59D
:1013200094EA1325A5FA8CF50AD165B951F8043B66
:1013300084EA0204B4EB036F0ED150F8042BEBE700
:101340004FEA132355E035F07F454DD10878FDE88D
:101350000445C0F1000070474FEA126203F0FF033A
:1013600047E002EA1C4482FA4CF594EA1345A5FAD8
:101370008CF50AD165B951F8043B84EA0204B4EB58
:10138000034F0CD150F8042BEBE74FEA134330E046
:1013900015EA1C4528D10B884FEA124229E04FEA92
:1013A000124203EA1C4324E002F0FF0482FA4CF5E7
:1013B00094EA1365A5FA8CF50AD165B951F8043B96
:1013C00084EA0204B4EB032F09D150F8042BEBE7B5
:1013D0004FEA13630DE015F0FF0F05D10B684FEADC
:1013E000122223F07F4304E04FF00000FDE80445A3
:1013F000704712BA1BBA82FA4CF482EA0304A4FAC8
:101400008CF5B5FA85F402FA04F203FA04F34FEA14
:101410001260FDE80445A0EB136070470000000077
:1014200000000000000000000000000000000000BC
:1014300000000000000000000000000000000000AC
:1014400090F800F06DE9024520F007016FF0000C04
:1014500010F0070491F820F040F049804FF00004AC
:101460006FF00700D1E9002391F840F000F1080087
:1014700082FA4CF2A4FA8CF283FA4CF3A2FA8CF3BF
:101480004BBBD1E9022382FA4CF200F10800A4FA26
:101490008CF283FA4CF3A2FA8CF3E3B9D1E904237A
:1014A00082FA4CF200F10800A4FA8CF283FA4CF3B1
:1014B000A2FA8CF37BB9D1E9062301F1200182FA6B
:1014C0004CF200F10800A4FA8CF283FA4CF3A2FA71
:1014D0008CF3002BC6D0002A04BF04301A4612BA7F
:1014E000B2FA82F2FDE8024500EBD2007047D1E982
:1014F000002304F00305C4F100004FEAC50514F011
:10150000040F91F840F00CFA05F562EA05021CBFE1
:1015100063EA050362464FF00004A9E700000000FB
:1015200001F0FF01102A2BDB10F0070F08D010F894
:10153000013B013A8B422DD010F0070F42B3F6D198
:10154000F0B441EA012141EA014122F007047FF0B1
:1015500000070023F0E80256083C85EA010586EA08
:10156000010685FA47F5A3FA87F586FA47F6A5FA44
:1015700087F68EB9EED1F0BC01F0FF0102F0070250
:1015800032B110F8013B013A83EA010313B1F8D1FB
:101590000020704701387047002D06BF35460338DC
:1015A000073815F0010F07D1013015F4807F02BF15
:1015B000013015F4C03F0130F0BC0138704700BF66
:1015C00070B54FF0FF0C4CF4E06C1CEA11541DBFD9
:1015D0001CEA135594EA0C0F95EA0C0F00F0DEF8A4
:1015E0002C4481EA030621EA4C5123EA4C5350EA89
:1015F000013518BF52EA033541F4801143F48013DA
:1016000038D0A0FB02CE4FF00005E1FB02E506F06A
:101610000042E0FB03E54FF00006E1FB03569CF0BF
:10162000000F18BF4EF0010EA4F1FF04B6F5007FC5
:1016300064F5407404D25FEA4E0E6D4146EB060637
:1016400042EAC62141EA55514FEAC52040EA5E50C0
:101650004FEACE2EB4F1FD0C88BFBCF5E06F1ED86A
:10166000BEF1004F08BF5FEA500E50F1000041EBA1
:10167000045170BD06F0004646EA010140EA02004E
:1016800081EA0301B4EB5C04C2BFD4EB0C0541EA70
:10169000045170BD41F480114FF0000E013C00F385
:1016A000AB8014F1360FDEBF002001F0004170BDA9
:1016B000C4F10004203C35DA0C341BDC04F11404C2
:1016C000C4F1200500FA05F320FA04F001FA05F24E
:1016D00040EA020001F0004221F0004110EBD3701B
:1016E00021FA04F642EB06015EEA430E08BF20EA47
:1016F000D37070BDC4F10C04C4F1200500FA04F3EA
:1017000020FA05F001FA04F240EA020001F000417B
:1017100010EBD37041F100015EEA430E08BF20EAEE
:10172000D37070BDC4F1200500FA05F24EEA020E36
:1017300020FA04F301FA05F243EA020321FA04F065
:1017400001F0004121FA04F220EA020000EBD3701C
:101750005EEA430E08BF20EAD37070BD94F0000F1C
:101760000FD101F00046400041EB010111F4801F50
:1017700008BF013CF7D041EA060195F0000F18BF01
:10178000704703F00046520043EB030313F4801F3D
:1017900008BF013DF7D043EA0603704794EA0C0FF7
:1017A0000CEA135518BF95EA0C0F0CD050EA41060D
:1017B00018BF52EA4306D1D181EA030101F000418A
:1017C0004FF0000070BD50EA410606BF10461946B2
:1017D00052EA430619D094EA0C0F02D150EA0136BE
:1017E00013D195EA0C0F05D152EA03361CBF1046FF
:1017F00019460AD181EA030101F0004141F0FE419E
:1018000041F470014FF0000070BD41F0FE4141F421
:10181000780170BD70B54FF0FF0C4CF4E06C1CEA21
:1018200011541DBF1CEA135594EA0C0F95EA0C0FD6
:1018300000F0A7F8A4EB050481EA030E52EA033591
:101840004FEA013100F088804FEA03334FF08055B2
:1018500045EA131343EA12634FEA022245EA1115DF
:1018600045EA10654FEA00260EF000419D4208BF90
:10187000964244F1FD0404F5407402D25B084FEA3D
:101880003202B61A65EB03055B084FEA32024FF4E9
:1018900080104FF4002CB6EB020E75EB030E22BF46
:1018A000B61A754640EA0C005B084FEA3202B6EB06
:1018B000020E75EB030E22BFB61A754640EA5C00B5
:1018C0005B084FEA3202B6EB020E75EB030E22BF45
:1018D000B61A754640EA9C005B084FEA3202B6EB46
:1018E000020E75EB030E22BFB61A754640EADC0005
:1018F00055EA060E18D04FEA051545EA16754FEA67
:1019000006164FEAC30343EA52734FEAC2025FEA84
:101910001C1CC0D111F4801F0BD141EA00014FF013
:1019200000004FF0004CB6E711F4801F04BF0143E4
:101930000020B4F1FD0C88BFBCF5E06F3FF6AFAE00
:10194000B5EB030C04BFB6EB020C5FEA500C50F190
:10195000000041EB045170BD0EF0004E4EEA113113
:1019600014EB5C04C2BFD4EB0C0541EA045170BD1A
:1019700041F480114FF0000E013C90E645EA060E5E
:101980008DE60CEA135594EA0C0F08BF95EA0C0F8C
:101990003FF43BAF94EA0C0F0AD150EA01347FF4D4
:1019A00034AF95EA0C0F7FF425AF104619462CE7AB
:1019B00095EA0C0F06D152EA03353FF4FDAE10460E
:1019C000194622E750EA410618BF52EA43067FF45F
:1019D000C5AE50EA41047FF40DAF52EA43057FF4EF
:1019E000EBAE12E74A0011D212F5001211D20DD55A
:1019F0006FF47873B3EB62520ED44FEAC12343F015
:101A0000004343EA505323FA02F070474FF00000BE
:101A1000704750EA013002D14FF0FF3070474FF06D
:101A2000000070474FEA4102B2F1E04324BFB3F532
:101A3000001CDCF1FE5C0DD901F0004C4FEAC00245
:101A40004CEA5070B2F1004F40EB830008BF20F029
:101A50000100704711F0804F21D113F13872BCBFE3
:101A600001F00040704741F480114FEA5252C2F138
:101A70001802C2F1200C10FA0CF320FA02F018BF81
:101A800040F001004FEAC1234FEAD32303FA0CFCD4
:101A900040EA0C0023FA02F34FEA4303CCE77FEA63
:101AA000625307D150EA01331EBF4FF0FE4040F4AD
:101AB0004000704701F0004040F0FE4040F400005C
:101AC000704700BF38B505460C462846214600221F
:101AD0000023FEF731FE28B928462146BDE83840EC
:101AE00000F00AB8284604F1004100F005F8404231
:101AF00061EB410138BD00BFD0B50C4B002206465A
:101B00000F46FFF75DFDFFF76DFF0446FEF73AFD58
:101B1000074B0022FFF754FD02460B46304639467C
:101B2000FEF7F2FBFFF75EFF2146D0BD0000F03D5F
:101B30000000F04120B310B58646002301E00133D8
:101B40009BB28B4209D21EF803C0BCF1550FF6D1EF
:101B50000EEB03025278AA2AF1D18B4209D0C91A9E
:101B60008CB222460EEB03017046FFF74BFA20467B
:101B700010BD0A46002170460AF09AFF0020F7E7E0
:101B8000004870470CFEFFFF00B586464FF0000C82
:101B9000604611E00133DBB2072B09D800F00102E7
:101BA0004008002AF6D048F20842424090B2F1E7DD
:101BB0000CF1010C1FFA8CFC8C4504D21EF80C3081
:101BC00058400023E8E75DF804FB1BB338B50C462A
:101BD00011461D46231E18BF0123002A18BF0023EB
:101BE000DBB955232B70AA236B70A870230AEB7006
:101BF0002C7154B92146681DFFF7C6FF631D020A08
:101C0000EA54A31DE854E01D38BD2246681DFFF7C5
:101C1000F9F9EFE74FF0FF3070474FF0FF30F3E78F
:101C20002DE9F041002B18BF002831D006461F4691
:101C30000378552B2FD14378AA2B2FD18378934249
:101C40002FD10479C37804EB0324A4B20639A0464B
:101C5000A14229DD03199D79EE2D0FD02146701D7B
:101C6000FFF792FF33195B7905EB0325A8421ED1DC
:101C700044B94FF000084046BDE8F0815B79EE2B97
:101C8000ECD1F5E72246711D3846FFF7BBF9F2E7C4
:101C9000DFF82080EFE7DFF82080ECE7DFF818803E
:101CA000E9E7DFF81880E6E76FF0C708E3E7DFF859
:101CB0001080E0E70CFEFFFFD4FEFFFF70FEFFFF89
:101CC000A8FDFFFF10B54E4B1B68B3F5026F03DB99
:101CD00072B64C4B01221A604B4B1B68B3F5007F68
:101CE00022DB4A4B1B68FBB172B6484B00221A60DC
:101CF000474B1A68474B1B689A4223D0464B1A68D9
:101D0000464B1B689A4257D0454B01221A60404B04
:101D10001A68404B1B689A4250D062B6414B1888F3
:101D200080B20A3802F076FE394B1A68394B1B68CC
:101D30009A4202DD364B00221A60324B1B68012B9F
:101D400044D010BD344B1B68002BD7DD002309E0C5
:101D5000354A32F81300354951F82320024441F83E
:101D600023200133B3F5007FF2DBC7E72F4850F89B
:101D700023202A4909680139B2FBF1F22C4921F8E4
:101D80001320002240F823200133B3F5007FEDDB60
:101D9000284CFF23237063704FF480622449A01CF9
:101DA000FFF730F940F202422146234808F0C6FF0F
:101DB000194B00221A60A7E70023E6E7164A1368CA
:101DC000013313601D4B01221A70A6E7144B1B68E8
:101DD000012BB6D172B60E4A13680133136000238B
:101DE000074A1360164A1360074A136062B6054A31
:101DF00013600B4A1360054B01221A60A1E700BF74
:101E0000100A0024200A0024140A002410000024D0
:101E1000BC210024080000241C0A00240000002427
:101E20000C00002404000024541C0024341200245C
:101E3000340E0024240A0024D4230024C0210024CA
:101E4000180A0024000000002DE9F04101F038FEDE
:101E50000446AA490068FFF777F920B9A84B1B7818
:101E6000002B40F07D81A7492068FFF76DF920B96C
:101E7000A34B1B78002B40F0A281A3492068FFF7F9
:101E800063F920B99E4B1B78002B40F0DD819F4900
:101E90002068FFF759F920B9994B1B78002B40F0C7
:101EA00005829B492068FFF74FF900283CD1944BED
:101EB0001B78002B38D0A388092B00F22982954B80
:101EC0000A221A8001F072FD0546914A924901F0FA
:101ED00051FD904B188880B2FEF754FB02460B462A
:101EE0008E49284601F010FD284601F0C7FC064641
:101EF000FFF7A6FA8A4B18608A4F3B46324681B2FA
:101F00000020FFF762FE6423C822394686480AF0A3
:101F100003F8C822002138460AF0CAFD30460AF00C
:101F20000FFB284601F072FA80492068FFF70CF990
:101F300000283AD1724B1B78002B36D0A379012BA5
:101F400040F2F0817A4A136001F030FD0546774A8D
:101F5000714901F00FFD764B1868FEF723FB02462E
:101F60000B467449284601F0CFFC284601F086FC58
:101F70000646FFF765FA6A4B18606A4F3B463246E1
:101F800081B20020FFF721FE6423C822394666484B
:101F900009F0C2FFC822002138460AF089FD304608
:101FA0000AF0CEFA284601F031FA63492068FFF7BB
:101FB000CBF8002849D1524B1B78002B45D0E36861
:101FC000B3F5007F02DD4FF40073E360A3685B4F5D
:101FD0003B60E3685A4E336001F0E8FC0546564A20
:101FE0004D4901F0C7FC3868FEF7DCFA02460B46A3
:101FF0005449284601F088FC3068FEF7D3FA0246BF
:102000000B465149284601F07FFC284601F036FC7A
:102010000646FFF715FA424B1860424F3B463246E0
:1020200081B20020FFF7D1FD6423C82239463E4823
:1020300009F072FFC822002138460AF039FD304607
:102040000AF07EFA284601F0E1F940492068FFF7DE
:102050007BF800283BD12A4B1B78002B37D0237C00
:10206000322B40F263813A4B32221A6001F09EFC1F
:102070000546364A284901F07DFC354B1868FEF7C5
:1020800091FA02460B463349284601F03DFC2846AA
:1020900001F0F4FB0646FFF7D3F9214B1860214FFE
:1020A0003B46324681B20020FFF78FFD6423C822F1
:1020B00039461D4809F030FFC822002138460AF091
:1020C000F7FC30460AF03CFA284601F09FF9224915
:1020D0002068FFF739F820B9094B1B78002B40F036
:1020E00028811E492068FFF72FF820B9044B1B7880
:1020F000002B00F05681BDE8F08100BF4862010866
:10210000341A002460620108CC620108E862010808
:10211000046301080400002458620108D462010825
:10212000381A00243C1A0024D42300241C6301081C
:1021300000000024206301083063010830000024FF
:102140003400002444630108506301085C63010803
:1021500008000024606301086863010878630108CF
:1021600001F024FC0546B04AB04901F003FCAAA3E3
:10217000D3E90023AE49284601F0C6FB284601F00A
:102180007DFB0646FFF75CF9AA4B1860AA4F3B4659
:10219000324681B20020FFF718FD6423C822394679
:1021A000A64809F0B9FEC822002138460AF080FC92
:1021B00030460AF0C5F9284601F028F953E601F047
:1021C000F5FB05469E4A994901F0D4FB9D4A9E497C
:1021D000284601F0CFFB9D4A9D49284601F0CAFBE5
:1021E0008FA3D3E900239B49284601F08DFB9A4A2F
:1021F0009A49284601F0BEFB00224FF081439849DE
:10220000284601F081FB284601F038FB0646FFF71F
:1022100017F9884B1860884F3B46324681B2002040
:10222000FFF7D3FC6423C8223946844809F074FEC2
:10223000C822002138460AF03BFC30460AF080F9FB
:10224000284601F0E3F818E601F0B0FB0546854AA0
:10225000764901F08FFB844B1878FEF793F902461C
:102260000B468249284601F04FFB284601F006FB49
:102270000646FFF7E5F86F4B18606F4F3B46324656
:1022800081B20020FFF7A1FC6423C82239466B48C5
:1022900009F042FEC822002138460AF009FC304607
:1022A0000AF04EF9284601F0B1F8F0E501F07EFBA6
:1022B00005466F4A5D4901F05DFB6E4B1878FEF7ED
:1022C00061F902460B466C49284601F01DFB284681
:1022D00001F0D4FA0646FFF7B3F8564B1860564F94
:1022E0003B46324681B20020FFF76FFC6423C822D0
:1022F0003946524809F010FEC822002138460AF03B
:10230000D7FB30460AF01CF9284601F07FF8C8E5F3
:1023100041F28832934202D9584B1A80D2E5574A8B
:102320001380CFE5564B02221A600DE6554A136022
:102330009CE60021544808F01DFB0021534808F09A
:1023400019FB0025524B1D60524B1D6001F02EFB06
:102350000646514A354901F00DFB304601F08EFA30
:102360000746FFF76DF8334B1860DFF8CC80434623
:102370003A4681B22846FFF728FC6423C82241462A
:102380002E4809F0C9FDC822294640460AF090FBB4
:1023900038460AF0D5F8304601F038F83F4B1D704A
:1023A0009FE672B60021384808F0BCFB0021374890
:1023B00008F0B8FB0026364B1E60364B1E6062B636
:1023C00001F0F4FA0446364A184901F0D3FA2046DF
:1023D00001F054FA0546FFF733F8164B1860164F14
:1023E0003B462A4681B23046FFF7EFFB6423C82202
:1023F0003946124809F090FDC822314638460AF0A5
:1024000057FB28460AF09CF8204600F0FFFF234BBC
:1024100001221A706FE600BF6666666666A63740E0
:1024200000000030704D7341486201085862010895
:102430004C620108381A00243C1A0024D4230024DA
:1024400060620108706201087C6201088062010814
:102450008C62010890620108A0620108A86201086C
:10246000B8620108CC62010815000024D06201089E
:10247000E862010814000024EC6201080400002452
:102480000000002408000024702100248C20002477
:10249000140A0024100A002468630108341A002476
:1024A00078630108F8B5154B1988B3F90030002B93
:1024B00003DB134B00221A70F8BDC9B2114E002580
:1024C00075548CB221463046FFF734FB0E4F3B4625
:1024D0002A4621463046FFF7A3FB384601F082FA30
:1024E000064B1D804FF4C872294630460AF0E0FAC8
:1024F000C822294638460AF0DBFADDE758230024D3
:1025000024000024C8210024041B002410B58AB034
:102510000023079308930993009301930293039375
:102520000493059306932648264A02604FF48022BE
:1025300042608360C3600422026103750122427518
:102540008261037743628362C3624FF48052026305
:10255000436380F8383003F097F838BB00230793C3
:1025600007A9174803F0C8F918BB174B00930623B7
:1025700001930023029340F2FF720392042204921B
:1025800005938DF8193069460D4802F065FC98B93D
:102590000B4C6946204602F05FFC204602F03AFFF1
:1025A0000A21204602F050FA0AB010BD01F043FBA8
:1025B000D4E701F040FBD8E701F03DFBE8E700BFBE
:1025C000CC1B0024002002400008302E10B5B8B00B
:1025D0000446002133913491359136913791C022D0
:1025E00002A80AF065FA22681F4B9A4201D038B05F
:1025F00010BD4FF400220023CDE902234FF4003335
:102600002B9302A805F0CEFE58BB184BD3F8D82068
:1026100042F02002C3F8D820D3F8D82002F02002DC
:102620000092009AD3F8E02042F00402C3F8E020C0
:10263000D3F8E03003F004030193019B02233393AA
:10264000032334930024359433A9094804F064FE2D
:1026500022462146122003F013FA122003F046FA14
:10266000C5E701F0E8FAD0E7002002400044025834
:1026700000080258002918BF002826D000B5864659
:102680008C4688420BD100201DE002F120010FE0B2
:10269000814217D1DAB10EF1010E0CF1010C9EF856
:1026A00000200C4BD35C03F00303012BEDD011464B
:1026B0009CF80000074BC35C03F00303012BE7D138
:1026C0002030E5E7081A5DF804FB01207047002080
:1026D000F9E700BF796401082E2070472DE9F04723
:1026E000054688461446994621F0004A174623F0CD
:1026F00000462246334628465146FEF73BF808B1CD
:102700002F46564622464B4628464146FDF7FCFDDD
:10271000054621F000440022084B38463146FEF7BA
:102720004FFF02460B46012628462146FEF70EF8CB
:1027300000B900263046BDE8F08700BF0000B03C7D
:102740008446002318460AE0A1F14102D2B2052ACC
:1027500011D808443738022B00D800010133032B6D
:1027600011D81CF80310A1F13002D2B2092AEBD81B
:1027700008443038EFE7A1F16102D2B2052A03D84C
:1027800008445738E7E7704700207047F8B50B1A40
:10279000052B60DD06460F4615460230FFF7D0FFD9
:1027A0000446A0F55C43B3F5806F56D3A0F55843BB
:1027B000B3F5806F1CD2B11D7F1A052F4FDDB379A1
:1027C0005C2B4ED1F379752B4DD106F10800FFF744
:1027D000B7FFA0F55C43B3F5806F46D2254B03EA03
:1027E0008424C0F30900204300F580340C2000E06D
:1027F00006207F2C0BD9B4F5006F0DD3B4F5803FC4
:102800000DD3B4F5881F32D2F027042601E000274B
:102810000126731EDBB20EE0C0270226F9E7E0278F
:102820000326F6E704F03F012A6841F08001D15405
:10283000A409013BDBB2002BF4D1012E06D92B6891
:102840003C431C702B6833442B6005E02B6804F07C
:102850007F041C70F6E70020F8BD0020FCE7002094
:10286000FAE70020F8E70020F6E70020F4E7002070
:10287000F2E700BF00FC0F002DE9F04182B00E46E8
:102880000F688B685D1C3D440022019207EB030C2E
:10289000FB5C222B40F0858080462C46104600E0F1
:1028A0000134E11B726891420AD22378222B07D0AF
:1028B0005C2BF5D10134E31B934272D20130EFE778
:1028C00091426ED22378222B6BD1A4EB0C0CACEB93
:1028D0000000336901309847074600285DD0019019
:1028E0002BE0631B002B58DD6B78752B55D85C2BC8
:1028F00011D35C3B192B50D8DFE803F0114F4F4F39
:102900004F4F184F4F4F2B4F4F4F4F4F4F4F324F4F
:102910004F4F394F4047222B01D02F2B3DD1019BE8
:102920005A1C01926A781A70022305E0019B5A1C16
:10293000019208221A7002231D44A54239D22B7835
:102940005C2BCED0019B5A1C019215F8012B1A70FA
:10295000F3E7019B5A1C01920C221A700223EBE749
:10296000019B5A1C01920A221A700223E4E7019B80
:102970005A1C01920D221A700223DDE7019B5A1C9A
:10298000019209221A700223D6E701AA214628469D
:10299000FFF7FCFE03460028CED117B17369384615
:1029A0009847ADB13368ED1AB560002002B0BDE8BC
:1029B000F081019B00221A701023C8F80C30C8F86F
:1029C00010703368E41AB4600134B4600120EDE79C
:1029D0000020EBE70246D0B110B40468ACB18368C4
:1029E0004068834202D30AE00133936093689842BF
:1029F00002D9E15C2029F7D99368984202D01046A9
:102A000010BC7047013B9360F9E72246F7E7704737
:102A1000016048607047002818BF002913D038B5FE
:102A20000C460546814210D083683BB1586870B1AE
:102A3000FFF7EEFFAB685C60012038BD8160496044
:102A40000B600120F9E7002070470020F5E7012026
:102A5000F3E7704750B138B50546006828B1AC6857
:102A60002044FEF7EDFC0444AC6038BD704770B5FF
:102A7000064670B10D46FEF7E3FC441C2B68204669
:102A80009847054618B122463146FEF7BBFA28465C
:102A900070BD0546FBE7002918BF00282FD02DE99F
:102AA000F04114461E4605460B46904214BF0022D4
:102AB000012234B32ABB069ABAB10846FFF7C9FF10
:102AC0008046E76847F40077E36813F4007F03D19A
:102AD000206A08B173689847C4F82080E7602146EF
:102AE0002846FFF798FFBDE8F08131461846FFF70A
:102AF000BEFF804638B1E76827F40077E4E700209E
:102B000070470020EFE70698EDE770B5054600280E
:102B100046D0066836B3436813B18268934241D900
:102B2000002941DBAA68114401318B420AD22B698A
:102B3000002B3BD1B1F1804F08D3002904DB6FF0AB
:102B4000004404E016440DE000260BE04C002B6A24
:102B50008BB1214630469847064628B16C602E60FE
:102B6000AB681E44304670BDEB6928689847002367
:102B70006B602B60F6E7AB6920469847064640B18C
:102B8000AA6801322968FEF73DFAEB692868984780
:102B9000E4E7EB692868984700236B602B60E1E766
:102BA0000646DFE70026DDE70026DBE70026D9E75B
:102BB00010B5036828209847044618B12822002140
:102BC00009F076FF204610BD38B5044678B100689C
:102BD00078B1A5687DB92B1D6268934207D20322A4
:102BE000064928440AF0EAFB08B90335A5602046E7
:102BF00038BD0446FBE70024F9E700BF88630108FD
:102C00002DE9F04393B005460C4600231193FFF7DE
:102C100063FD002C00F099802368002B00F0978062
:102C2000002331E0652A29D048336B44002203F8A1
:102C3000442C0DF1040911A948460BF09FFB0646F0
:102C40000F46DDF84480C84500F08380C5E906677B
:102C500041A3D3E90023FDF783FD002864D06FF082
:102C600000436B610823EB6001ABA8EB0308A3688A
:102C70004344A360012013B0BDE8F08303F1480191
:102C8000694401F8442C01333E2BCDD8A2681A4484
:102C900061688A42C8D221688A5C452AC2D82B2A38
:102CA000C2D3A2F12B011A29BED801A656F821F0F1
:102CB0007D2C0008292C00087D2C00081D2D000803
:102CC000292C00087D2C00087D2C00087D2C000894
:102CD0007D2C00087D2C00087D2C00087D2C000830
:102CE0007D2C00087D2C00087D2C0008292C000874
:102CF000292C0008292C0008292C0008292C000860
:102D0000292C0008292C0008292C0008292C00084F
:102D1000292C0008292C00087D2C000803F148020A
:102D20006A4402F8440CAEE700220D4B30463946A7
:102D3000FDF70CFD18B14FF000436B6192E7304690
:102D40003946FDF737FD68618CE7002093E70020E6
:102D500091E700208FE700BF0000C0FFFFFFDF41C9
:102D60000000E0C1002900F09780F8B5044608464D
:102D700014B1A446002511E00321FFF7C6FE002888
:102D800000F08C80474A118892780180827001207F
:102D900081E05C2B11D101350CF1010C9CF8003065
:102DA0007BB1222BF5D8082B07D3A3F10802D1B2AF
:102DB00001228A403C490A42EDD11F2BECD805354F
:102DC000EAE7ACEB040C0CEB0506F11CFFF79DFEEB
:102DD0000746002864D025B10546222305F8013BAB
:102DE00030E0222500F8015B32462146FEF70AF961
:102DF000731CFD5402360023BB5501204BE02846CE
:102E00005C2300F8013B2278222A15D8082A36D301
:102E1000A2F108031A2B32D8DFE803F0222E283162
:102E2000252B3131313131313131313131313131A4
:102E30003131313131311F005C2A20D15C236B707C
:102E40000134451C2378FBB1222B18BF1F2BD6D988
:102E50005C2BD4D02B702846F2E722236B70EFE76F
:102E600062236B70ECE766236B70E9E76E236B708F
:102E7000E6E772236B70E3E774236B70E0E70B49BE
:102E80000AF0ACF9681DDBE7731C2222FA54023603
:102E90000023BB550120F8BD002070470020FAE751
:102EA0000020F8E78C6301083700000490630108F4
:102EB00008B50069FFF756FF08BD00002DE9F04393
:102EC0008BB005460E468769D0F81C80002303931B
:102ED00004930593069307930893ADF82430FFF706
:102EE000FBFB00220023CDE90023002E75D0044611
:102EF0003A46434638464146FDF746FC88B928F035
:102F000000494FF0FF32374B38464946FDF73CFC4D
:102F1000B8B94FF0FF32334B38464946FDF716FC3F
:102F200078B9314B93E8030003908DF810104FF0FF
:102F300004094D46B9F1190F31D900200BB0BDE895
:102F4000F0836D692846FDF72DFB3A464346FDF7B1
:102F5000E9FB30B12A46254903A80AF03FF981462A
:102F6000E7E73A464346224903A80AF037F9814683
:102F70006A46204903A80AF051F9012807D13A46C8
:102F80004346DDE90001FFF7A9FB0028D1D13A460D
:102F90004346194903A80AF021F98146C9E709F116
:102FA00001013046FFF7B1FD0146C0B1002302E048
:102FB0002E22CA5401339D4208D903F128026A44E3
:102FC00012F81C2CA242F3D0CA54F3E70022CA54D0
:102FD000B3682B44B3600120B0E70020AEE70020C7
:102FE000ACE700BFFFFFEF7F98630108A063010813
:102FF000A4630108AC630108B063010870B500293F
:1030000018BF002869D005460E46047B202C16DC2C
:10301000002C64D0631E1F2B63D8DFE803F035411A
:1030200062286262624E62626262626262526262DE
:103030006262626262626262626262626256402CD4
:1030400047D0802C11D10069002853D0FEF7F8F941
:10305000441C21463046FFF758FD00284CD022463C
:103060002969FDF7CFFF01243CE000243AE0052167
:103070003046FFF74AFD0346B0B3204A1068186097
:1030800012791A7101242DE006213046FFF73DFD2B
:10309000034658B31A4A1068186092889A8021E053
:1030A00005213046FFF731FD034608B3154A106885
:1030B000186012791A71012414E0FFF7FFFE04462C
:1030C00010E0FFF7F5FE04460CE000F06FF8044650
:1030D00008E000F0BFF8044604E0002402E0002409
:1030E00000E00024204670BD0024FBE70024F9E73F
:1030F0000024F7E70024F5E70024F3E798630108CC
:10310000B8630108C0630108F0B58BB007460D46EF
:1031100016462422002101A809F0CAFC33684FF4A6
:1031200080709847044601904FF48073029306958F
:1031300096E807000AAB03E907002CB101A938465D
:10314000FFF75CFF60B90024019808B173689847E5
:103150001CB1736820469847002420460BB0F0BD90
:1031600001A8FFF777FCB3684BB1039901310198CF
:10317000984704460028E7D000230193EDE7336821
:1031800003980130984704460028DDD0039A0132A5
:10319000029B9A4228BF1A460199FDF733FF039B11
:1031A0000022E254736801989847D6E770B58568A5
:1031B000002946D00C4601212046FFF7A6FC002836
:1031C00042D05B220270A3680133A360E36801333D
:1031D000E36007E0012616E000221A70A36833447A
:1031E000A3602D68FDB121462846FFF707FF03467F
:1031F00040B32046FFF72EFC2B68002BF1D063690B
:10320000002BE7D00226711C2046FFF77EFCE8B1B8
:1032100003462C2103F8011B61690029DCD0831CC3
:1032200020214170D8E702212046FFF76EFC78B1DB
:103230005D22027000224270E368013BE3600123DB
:1032400000E00023184670BD0023FBE70023F9E7E8
:103250000023F7E770B58568002900F0A3800C46CD
:103260004B69A3B10226711C2046FFF74EFC0028D3
:1032700000F09B807B230370E3680133E3606369A4
:103280000BB10A234370A3683344A36022E00126F4
:10329000E9E7E1682046FFF738FC0346002800F024
:1032A0008680002203E0092103F8011B0132E16856
:1032B0009142F8D8A3680B44A36010E001261CE0FB
:1032C000002637E0002339E000221A70A368334457
:1032D000A3602D68002D44D06369002BD9D121460D
:1032E000286AFFF73FFD034600285CD02046FFF721
:1032F000B1FB6369002BE1D0022631462046FFF77F
:1033000004FC002855D03A22027062690AB10922F1
:103310004270A3683344A36021462846FFF76EFE3F
:10332000034600283FD02046FFF794FB6369002B3B
:10333000C6D001262B68002BC4D001231E44711C6B
:103340002046FFF7E2FB0346A8B32A6812B12C22FD
:1033500003F8012B6269002AB6D00A2203F8012B78
:10336000B2E763698BB1E16801312046FFF7CDFB1D
:10337000034610B362699AB97D221A7000225A700E
:10338000E368013BE36001230DE00221EDE7092240
:1033900003F8012B0131E268013A8A42F7D8EBE7E2
:1033A0000021F8E70023184670BD0023FBE7002347
:1033B000F9E70023F7E70023F5E70023F3E738B543
:1033C000002918BF00281AD00D4684680AB90AE0FF
:1033D00024687CB1216A69B12846FDF7B5FE002852
:1033E000F6D107E024682CB1216A2846FFF742F99C
:1033F0000028F7D12CB1236A2BB1204638BD002418
:10340000FBE70024F9E70024F7E7000038B504469D
:1034100016E0E36813F4807F04D1206910B10F4BEC
:103420005B689847E36813F4007F04D1206A10B109
:103430000A4B5B689847094B5B68204698472C46C7
:1034400054B12568E36813F4807FE2D1A0680028B6
:10345000DFD0FFF7DBFFDCE738BD00BF180000243A
:10346000CB68B3F57A7F80F08B802DE9F04106467A
:103470000C460133CB60002900F084808B684A68D9
:10348000934280F081800A68D25C7B2A02D00020BF
:10349000BDE8F08101338B600846FFF79BFAA36813
:1034A0006268934203D22268D35C7D2B59D0A36813
:1034B0006268934204D2013BA36000252F4634E0AA
:1034C000013BA3600020E3E70746A3680133A36044
:1034D0002046FFF77FFA21462846FFF7CDF900285E
:1034E00039D02046FFF776FA2B692B6200232B6137
:1034F000A368626893422ED22268D25C3A2A2AD10B
:103500000133A3602046FFF765FA2146284600F004
:103510003FF800B32046FFF75DFAA3686268934264
:1035200011D22268D35C2C2B0DD1A84604F11000D7
:10353000FFF73EFB054670B1002FC5D0C8F800006C
:10354000C0F80480C1E7A3686268934203D222688E
:10355000D35C7D2B07D0CFB13846FFF757FF002053
:1035600096E700252F46E368013BE36007B17D60E5
:103570004023F360B760A3680133A360012087E7AD
:1035800000207047002083E7002081E700207FE7CC
:10359000002975D070B506460C460D68002D71D017
:1035A0008868021D4B689A4206D80422374928448D
:1035B00009F004FF00283AD0A068421D63689A42CF
:1035C00006D805223249284409F0F8FE002835D0F3
:1035D000A068021D63689A4206D804222D49284437
:1035E00009F0ECFE00282FD0A3686268934202D253
:1035F000EB5C222B30D0A3686268934207D2EA5C6E
:10360000A2F13003DBB22D2A18BF092B29D9A368F8
:103610006268934202D2EB5C5B2B27D0A36862689E
:10362000934231D2EB5C7B2B25D000202DE004238C
:10363000F360A3680433A360012026E00120F0605A
:10364000A2680532A26020E00223F36001207061CD
:10365000A2680432A26018E021463046FFF70CF958
:1036600013E021463046FFF7CBFA0EE02146304604
:1036700000F012F809E021463046FFF7F1FE04E0C1
:1036800000207047002000E0002070BD9863010812
:10369000B8630108C0630108CB68B3F57A7F6DD2C7
:1036A0002DE9F04106460C460133CB600A688B6871
:1036B000D25C5B2A02D00020BDE8F08101338B6030
:1036C0000846FFF787F93CB1A3686268934203D2CA
:1036D0002268D35C5D2B48D044B1A36862689342F2
:1036E00004D2013BA36000252F461EE0A368013BE6
:1036F000A3600020E0E7C8F80000C0F80480A368D9
:103700000133A3602046FFF765F921462846FFF7FD
:103710003FFF68B32046FFF75DF9A36862689342F4
:103720000ED22268D35C2C2B0AD1A84604F11000DB
:10373000FFF73EFA0546D8B1002FDCD10746DEE799
:10374000A3686268934213D22268D35C5D2B0FD1C9
:10375000E368013BE36007B17D602023F360B7605D
:10376000A3680133A3600120A6E700252F46EFE7F9
:1037700037B13846FFF74AFE00209DE7002070472A
:10378000002099E7F0B58BB015461E46002403943F
:103790000494059406940794089409942B4B1C6098
:1037A0005C600446002918BF002817D1002C4AD0BD
:1037B000019400230293059A049B9A423ED20292FE
:1037C00015B1029B23442B60204B01AA92E8030011
:1037D00083E80300002738460BB0F0BD0390049146
:1037E0001B4B93E807000AAF07E907001846FFF7ED
:1037F000DFF90746E0B103A8FFF7E6F9FFF7EAF8BB
:1038000001463846FFF7C4FE90B136B9002DE2D02C
:10381000039B059A13442B60DDE703A8FFF7DAF852
:10382000059B049A934203D2039AD35C002BEDD0FC
:10383000002FBBD03846FFF7E9FDB7E7002BBFD01C
:10384000013B0293BCE72746C5E700BF301C0024BC
:103850001800002470B5044648B10D461646FDF721
:10386000EFFD33462A46411C2046FFF78BFF70BD13
:1038700008B500221146FFF7EDFF08BD08B5024A62
:103880000121FFF741FC08BD1800002408B5002203
:10389000FFF795FD08BD08B50122FFF790FD08BDB3
:1038A00070B504460D461648FFF782F9064670B11A
:1038B0000823C360C0E906450FA3D3E900232046CF
:1038C0002946FCF74DFF20B16FF00043736130468D
:1038D00070BD00220B4B20462946FCF737FF18B17C
:1038E0004FF000437361F2E720462946FCF762FF80
:1038F0007061ECE7AFF300800000C0FFFFFFDF4125
:10390000180000240000E0C170B582B005460E46E4
:1039100010461946FFF7C4FF044600230093074BE7
:10392000024631462846FFF7B6F810B1204602B0ED
:1039300070BD2046FFF76AFD0024F7E71800002459
:1039400038B504460A48FFF733F9054640B110235D
:10395000C36007492046FFF78AF80446286108B18A
:10396000284638BD2846FFF751FD2546F8E700BF39
:103970001800002470B582B005460E461046FFF7C9
:10398000DFFF044600230093074B024631462846DA
:10399000FFF781F810B1204602B070BD2046FFF756
:1039A00035FD0024F7E700BF1800002408B50348E0
:1039B000FFF7FEF808B14023C36008BD18000024DB
:1039C00028B1007B082814BF002001207047002088
:1039D000704728B1007B402814BF002001207047A9
:1039E000002070472DE9F047FFF742FF00284BD039
:1039F00004462949FFF74AFF064628492046FFF7B3
:103A000045FF804626492046FFF740FF07462549E7
:103A10002046FFF740FF054623492046FFF736FFC3
:103A200081462846FFF7D5FFA8B966B11F4D316919
:103A3000286809F065FCD8F81430AB807B69AB715D
:103A4000D9F814302B741A4B01221A702046FFF754
:103A5000DDFCBDE8F08717492846FFF71CFF8246CA
:103A6000FFF7AEFF18B1DAF81420104B9A60124934
:103A70002846FFF710FF0546FFF7A2FF0028D4D025
:103A80006A690A4BDA60D0E70C4809F0BDF8084BC8
:103A900000221A70DDE700BF58620108D4620108F5
:103AA000206301083463010860630108381C0024A6
:103AB00024000024C8630108D8630108E8630108F2
:103AC00000487047381C002400B583B00B4BD3F876
:103AD000D82042F00102C3F8D820D3F8D83003F040
:103AE00001030193019B002211460B2001F0C8FF46
:103AF0000B2001F0FBFF03B05DF804FB004402580B
:103B00002DE9F0418AB000240594069407940894A6
:103B10000994304BD3F8E02042F08002C3F8E02053
:103B2000D3F8E02002F080020092009AD3F8E0205F
:103B300042F00402C3F8E020D3F8E02002F00402CF
:103B40000192019AD3F8E02042F00102C3F8E0208C
:103B5000D3F8E02002F001020292029AD3F8E020AA
:103B600042F01002C3F8E020D3F8E02002F0100287
:103B70000392039AD3F8E02042F00202C3F8E02057
:103B8000D3F8E03003F002030493049BDFF848808D
:103B90002246C621404603F0D3FC104D2246302178
:103BA000284603F0CDFCC62305930127069707940A
:103BB0000226089605A9404603F0AEFB3023059384
:103BC00006970794089605A9284603F0A5FB0AB0B6
:103BD000BDE8F08100440258000002580008025875
:103BE00010B584B00024009401940294039401F071
:103BF0009FFF01238DF800308DF801404FF01052E7
:103C0000019212228DF808208DF809408DF80A40A3
:103C100003228DF80B208DF80C408DF80D308DF8B7
:103C20000E308DF80F40684601F0A0FF042001F02F
:103C30008DFF04B010BD72B6FEE7000000B59FB066
:103C40004C2200210BA808F033FF2022002103A8FA
:103C500008F02EFF022003F079FC002300933A4B7A
:103C6000DA6A22F00102DA62DB6A03F001030093F0
:103C7000364B9A6942F440429A619B6903F440438F
:103C80000093009B314B9B6913F4005FFAD0304BDB
:103C9000D3F8F42042F00202C3F8F420D3F8F43051
:103CA00003F002030193019B00230293274B9A69BF
:103CB00042F440429A619B6903F440430293224BD1
:103CC000DA6A42F00102DA62DB6A03F0010302936E
:103CD000029B1E4B9B6913F4005FFAD003230B93E6
:103CE0004FF480330C9301230E9340230F93022350
:103CF000149315931693F0221792189319931A930D
:103D000008231B9300231C931D930BA803F048FC6E
:103D1000B0B93F230393032304930023059308239F
:103D200006934023079308934FF4806209920A9305
:103D3000042103A804F09AF820B91FB05DF804FB31
:103D4000FFF779FFFFF777FF00040058004802589B
:103D50000044025800B5B1B0C0220021684608F006
:103D6000A7FE4FF000420023CDE90023684604F08F
:103D700019FB10B931B05DF804FBFFF75CFF0000E0
:103D800008B5FFF72DFF394B5B6913F4003F13D1E2
:103D9000BFF34F8FBFF36F8F344B0022C3F8502215
:103DA000BFF34F8FBFF36F8F5A6942F400325A61ED
:103DB000BFF34F8FBFF36F8F2C4B5B6913F4803FC2
:103DC00027D12A4B0022C3F88420BFF34F8FD3F8AA
:103DD0008040C4F34E3000E01846C4F3C90243F6F5
:103DE000E07303EA401343EA82732049C1F860326A
:103DF0001346013A002BF2D1431E0028ECD1BFF349
:103E00004F8F4B6943F480334B61BFF34F8FBFF348
:103E10006F8F00F0BFFDFFF711FFFFF79BFFFFF76C
:103E20006FFEFFF751FE00F081F900F07FFB00F01C
:103E300065FC0F4800F022F800F02EFAFEF766FB52
:103E400000F0D0F900210B4806F0E0FC06E0FDF799
:103E5000FBFF094B00221A70FDF734FFFEF722FB2F
:103E6000054B1B78002BF2D1F6E700BF00ED00E018
:103E7000D4230024242100242400002408B5054B69
:103E80001860054B1868002302221946806809F063
:103E9000CDF808BD4C1C002440000024022801D8A5
:103EA0000120704708B508F019FB092303600020C2
:103EB00008BD000010B5013801280AD814464FF09B
:103EC000FF3392B20748006808F026F840B9204650
:103ED00010BD08F003FB092303604FF0FF30F7E744
:103EE0000520F5E74C1C0024022801D8002070476B
:103EF00008B508F0F3FA092303604FF0FF3008BD5E
:103F000008B508F0EBFA092303604FF0FF3008BD55
:103F100008B548B94FF0FF3301220848006808F09F
:103F200063F840B9012008BD08F0D8FA09230360FE
:103F30004FF0FF30F7E70520F5E700BF4C1C0024E9
:103F400008B5022804D84FF400534B60002008BD88
:103F500008F0C4FA09230360F8E7000082B0074BB9
:103F6000D3F8F42042F00202C3F8F420D3F8F4307E
:103F700003F002030193019B02B070470044025812
:103F8000FEE7FEE7FEE7FEE7FEE770477047704793
:103F900008B500F02DFD08BD08B5024802F020FE6E
:103FA00008BD00BF5C23002408B5024800F0E8FD0E
:103FB00008BD00BFCC1B002408B5024805F0C7FFB0
:103FC00008BD00BF8C20002408B5024805F0BFFFE3
:103FD00008BD00BF8C20002408B5024805F0B7FFDB
:103FE00008BD00BF7021002408B5024806F068FF34
:103FF00008BD00BFD423002408B5024805F0A7FF80
:1040000008BD00BFD82000240120704708B508F083
:1040100065FA162303604FF0FF3008BD08B54FF076
:10402000FF31FFF7F3FFFEE710B503460C4A0D49D9
:104030000D48006840B10C4800680344521A93428E
:1040400006D8094A136010BD0748084C0460F2E71F
:1040500008F044FA0C2303604FF0FF30F3E700BF91
:104060000000082400040000501C0024B824002490
:10407000244B1B6803F00F03062B06D8214A136854
:1040800023F00F0343F0070313601F4B1A6842F03D
:1040900001021A6000221A6119681C4A0A401A605B
:1040A000184B1B6813F0080F06D0164A136823F04C
:1040B0000F0343F007031360134B00229A61DA6188
:1040C0001A62134999621349D962134919635A63F1
:1040D0009963DA6319645A64196821F480211960BC
:1040E0001A660E4B1A680E4B1340B3F1005F03D2F1
:1040F0000C4B0122C3F808210B4B43F2D2021A6089
:10410000704700BF00200052004402587FEDF6EADD
:10411000000202020000FF01800201010010005CA9
:104120000000FFFF008000510040005200B58DB03C
:1041300000230793089309930A930B930493059321
:10414000069300930193029303932448244A026048
:104150000922426083604FF6FF72C26003614361CF
:10416000836106F043F850BB1C4806F09FF848BB3B
:104170000423079350230893002309930B9307A963
:10418000164806F00BFB00BB00230493059306932F
:1041900004A9124806F03AFDD0B90022009201238A
:1041A00001930292039269460C4806F0E1F990B936
:1041B00000210A4806F0DEFB0DB05DF804FBFFF7B6
:1041C0003AFDD1E7FFF737FDD2E7FFF734FDDBE734
:1041D000FFF731FDE1E7FFF72EFDE9E78C20002432
:1041E0000000014000B58DB00023079308930993A8
:1041F0000A930B9304930593069300930193029300
:1042000003932348234A02600922426083604FF6E9
:10421000FF72C2600361836105F0E8FF48BB1C4880
:1042200006F044F840BB042307935023089300236F
:1042300009930B9307A9164806F0B0FAF8B90023C2
:104240000493069304A9124806F0E0FCD0B90022BA
:104250000092012301930292039269460C4806F0F2
:1042600087F990B900210A4806F084FB0DB05DF88B
:1042700004FBFFF7E0FCD2E7FFF7DDFCD3E7FFF735
:10428000DAFCDCE7FFF7D7FCE1E7FFF7D4FCE9E76E
:10429000702100240004004000B58DB00023079376
:1042A000089309930A930B93049305930693009341
:1042B0000193029303932248224A0260092242603A
:1042C00083604FF6FF72C2600361836105F08EFF69
:1042D00038BB1B4805F0EAFF30BB0423079350238B
:1042E00008930223099300230B9307A9144806F0AF
:1042F00055FAE0B900230493069304A9104806F088
:1043000085FCB8B902230093012301930022029295
:10431000039269460A4806F02BF970B90DB05DF8B2
:1043200004FBFFF788FCD4E7FFF785FCD5E7FFF730
:1043300082FCDFE7FFF77FFCE4E7FFF77CFCEDE7BB
:10434000D82000240018004000B58DB0002307934A
:10435000089309930A930B9303684C4A934208D03D
:104360004B4A93423AD04B4A934262D00DB05DF82B
:1043700004FB494BD3F8F02042F00102C3F8F020CF
:10438000D3F8F02002F001020192019AD3F8E02064
:1043900042F01002C3F8E020D3F8E03003F010033D
:1043A0000293029B4FF400730793022308930123A7
:1043B0000B9307A9394802F0AFFF002211461A20DB
:1043C00001F05EFB1A2001F091FB002211461B2038
:1043D00001F056FB1B2001F089FBC7E72E4BD3F8F9
:1043E000E82042F00202C3F8E820D3F8E82002F007
:1043F00002020392039AD3F8E02042F00402C3F8C9
:10440000E020D3F8E03003F004030493049B40233E
:104410000793022308930B9307A9214802F07CFF1E
:10442000002211461D2001F02BFB1D2001F05EFB38
:104430009CE7194BD3F8E82042F04002C3F8E8208B
:10444000D3F8E82002F040020592059AD3F8E02064
:1044500042F00202C3F8E020D3F8E03003F0020398
:104460000693069B4FF480430793022308930B9314
:1044700007A90C4802F050FF002211462B2001F042
:10448000FFFA2B2001F032FB70E700BF0000014073
:104490000004004000180040004402580010025878
:1044A00000080258000402580368B3F1804F00D09E
:1044B000704782B0074BD3F8E82042F00102C3F8FE
:1044C000E820D3F8E83003F001030193019B02B028
:1044D000704700BF0044025800B587B00023019325
:1044E00002930393049305930368B3F1804F02D0C2
:1044F00007B05DF804FB0B4BD3F8E02042F001025B
:10450000C3F8E020D3F8E03003F001030093009BF0
:104510000123019302220292059301A9024802F0AD
:10452000FBFEE5E7004402580000025800B58BB0DE
:104530000023079308930993009301930293039335
:1045400004930593069318484FF0804202600922B5
:10455000426083606422C2600361836105F076FE7D
:10456000C8B900230793099307A90F4806F04EFB2B
:10457000A0B9602300933223019300220292049297
:104580006946094805F00CFF58B90748FFF7A4FF32
:104590000BB05DF804FBFFF74EFBE2E7FFF74BFBC8
:1045A000E7E7FFF748FBF0E72421002410B50446B5
:1045B0000268464B9A4204D02268454B9A4267D023
:1045C00010BD037F012BF7D1424B1B68002B2FD06E
:1045D000404B1B68012B31D03F4B1A683F4B1B6887
:1045E0009A423DDA3B4B1B68012B06DD3C4B1A68B7
:1045F000384B1B68B3EB820F26DB394B1A68354BFF
:104600001B68B3EB820F06DB364B1A68314B1B6815
:10461000B3EB820F1EDB01224021334802F090FFF2
:10462000324B01221A702B4A136801331360C3E71F
:10463000012204212C4802F083FFC9E70022042153
:10464000294802F07DFFC7E701224021264802F0F9
:1046500077FFE5E700224021234802F071FFDFE702
:104660001D4B1A681D4B1B689A42DCD11F4B1B78EF
:10467000002BD8D0174B1B68012B03DC1B4B0022EF
:104680001A70D0E701224021174802F059FFF5E7E0
:10469000237F012B94D1164800F06CFA154A11685B
:1046A000154B23F81100126833F812204EF66023E0
:1046B0009A4206D90F4B1A680F4B4EF6602123F829
:1046C00012100C4A13680133136079E700000140AF
:1046D00000040040100A0024BC210024080000242B
:1046E000300000243400002400000258C0210024BF
:1046F000CC1B0024140A0024541C002408B51A48BA
:104700001A4B03604FF4E133436000238360C360BE
:1047100003610C2242618361C3610362436283626D
:1047200007F052FD98B900210F4807F08DFE88B9B7
:1047300000210D4807F0ADFE78B90B4807F065FE83
:1047400070B901220A49084807F010FE08BDFFF7BA
:1047500072FAE8E7FFF76FFAEAE7FFF76CFAECE7BF
:10476000FFF769FAEDE700BFD423002400100140F1
:10477000C421002430B5B9B00446002133913491EE
:10478000359136913791C02202A808F091F922683C
:104790002F4B9A4201D039B030BD01220023CDE920
:1047A000022302A803F0FEFD00284AD1294BD3F8CA
:1047B000F02042F01002C3F8F020D3F8F02002F00D
:1047C00010020092009AD3F8E02042F00102C3F8F0
:1047D000E020D3F8E03003F001030193019B4FF494
:1047E000C063339302233493002535953693072312
:1047F000379333A9184802F08FFD1848184B03600F
:104800002A23436040238360C5604FF480630361C3
:1048100045618561C5614FF480330362456201F0F3
:10482000E9FB88B90D4BE3679C6300221146252004
:1048300001F026F9252001F059F9E06F01F0DAFBCB
:10484000A9E7FFF7F8F9B1E7FFF7F5F9EAE700BFE5
:104850000010014000440258000002585C2300246C
:104860001000024008B502681B4B9A4200D008BDF8
:104870001A4A1388B2F90020002A09DB13F4804F8A
:1048800011D0174A12780A2A08D0144B00221A8035
:1048900001221349134807F069FDE8E7124A1A4359
:1048A0000E4B1A80F4E70E4A12780D2A0ED0C3F38D
:1048B0000D010E48425401339BB2084A1380B3F5F0
:1048C000C87FE5D3134600221A80E1E743F4804312
:1048D000024A1380DCE700BF001001405823002487
:1048E000C4210024D42300240080FFFFC821002419
:1048F000DFF834D0FFF7BCFB0C480D490D4A00230C
:1049000002E0D458C4500433C4188C42F9D30A4A84
:104910000A4C002301E013600432A242FBD307F0EB
:10492000E3FDFFF72DFA7047000008240000002483
:10493000F4090024B06A0108F4090024B424002416
:10494000FEE70000104B1B780BB90120704710B533
:1049500004464FF47A70B0FBF3F30C4A1068B0FBD6
:10496000F3F001F0D1F868B90F2C01D901200AE069
:10497000002221464FF0FF3001F082F8044B1C600A
:10498000002000E0012010BD380000242800002491
:104990003C00002410B5032001F060F803F05AF940
:1049A0000F498B69C3F303230E4AD35C03F01F0343
:1049B000D8408B6903F00F03D35C03F01F0320FA88
:1049C00003F3094A1360094B18600F20FFF7BAFF81
:1049D00010B10124204610BD0446FFF7BFFAF9E7E5
:1049E00000440258386401082C00002428000024E8
:1049F000034B1B78034A11680B441360704700BFD8
:104A00003800002468240024014B1868704700BF58
:104A10006824002438B50446FFF7F6FF0546B4F1D4
:104A2000FF3F02D0044B1B781C44FFF7EDFF401BF7
:104A3000A042FAD338BD00BF38000024014B1868EB
:104A4000000C70470010005C2DE9F04104460E4652
:104A500003684549454A934218BF8B4213D102F57A
:104A60000072976807F01F072569082D12D0052FDF
:104A700018BF002F09D0092F07D0936813F4404FB7
:104A80002DD1042506E03A4AEBE7DB6813F0010F6D
:104A90001FD10425FFF7B8FF804623681A682A4211
:104AA00023D1B6F1FF3FF8D0FFF7AEFFA0EB08002F
:104AB000B04201D8002EF0D123681B682B42ECD104
:104AC000636D43F004036365002384F850300320D2
:104AD00045E0636D43F02003636501203FE0636DB3
:104AE00043F020036365012039E0626D42F40072F7
:104AF0006265DA6812F4406F11D1627D7AB91A6882
:104B000012F0080F0BD0626D22F480726265626D44
:104B100012F4805F03D1626D42F001026265134AB4
:104B200093420CD01A4693420CD0052F14BF00219B
:104B300001213FB131B9092F04D0D26803E0A2F5B9
:104B40008072F0E7DA68082D06D012F4804F08D1A1
:104B50000C221A60002002E008221A600020BDE842
:104B6000F0810020FBE700BF00200240002102404E
:104B7000006302580368186C7047704770477047AD
:104B8000F8B5044603681D685E689649964A9342E4
:104B900018BF8B4240D1954B9F6807F01F0715F057
:104BA000020F10D016F0020F0DD0636D13F0100F2E
:104BB00003D1636D43F400636365204600F09AFE01
:104BC000236802221A6015F0040F02D016F0040FB9
:104BD00005D115F0080F4FD016F0080F4CD0636DBB
:104BE00013F0100F03D1636D43F400736365236802
:104BF000DA6812F4406F39D17B4A93420ED01A46DC
:104C000093420ED0052F14BF002101214FB141B9AD
:104C1000092F06D0D26805E0754BBDE7A2F580727A
:104C2000EEE7DA6812F4005F20D11A6812F0080F7C
:104C30001CD09A6812F0040F10D15A6822F00C02AE
:104C40005A60636D23F480736365636D13F4805F52
:104C50000CD1636D43F00103636507E0636D43F0BE
:104C600010036365A36D43F00103A3652046FFF7BE
:104C700084FF23680C221A6015F0200F02D016F072
:104C8000200F05D115F0400F63D016F0400F60D013
:104C9000636D13F0100F03D1636D43F4005363652C
:104CA0002368DA6C12F4C07F19D10121DA6812F49A
:104CB000406F16D101204C4A934214D01A469342B9
:104CC00014D0062F14BF4FF0000C4FF0010C6FB141
:104CD000BCF1000F0AD1072F08D0D26807E00021ED
:104CE000E4E70020E7E7A2F58072E8E7DA6851B36D
:104CF00012F0007F03D030B312F4005F23D11968A3
:104D000011F0400F1FD012F4001F1CD19A6812F04E
:104D1000080F10D15A6822F060025A60636D23F4C4
:104D200080536365636D13F4807F0CD1636D43F032
:104D30000103636507E0636D43F010036365A36DD2
:104D400043F00103A365204600F0D0FD23686022F4
:104D50001A6015F0800F02D016F0800F36D115F4CE
:104D6000807F02D016F4807F44D115F4007F02D0FA
:104D700016F4007F4AD115F0100F20D016F0100F56
:104D80001DD0236B6BB1002F4ED023681549164AF6
:104D9000934218BF8B4245D1144B9B6813F4404F8C
:104DA0000AD0636D43F480636365A36D43F002032F
:104DB000A3652046FFF7E3FE236810221A6015F46E
:104DC000806F02D016F4806F34D1F8BD636D43F468
:104DD000803363652046FFF7D1FE236880221A6086
:104DE000BDE700BF00200240002102400023024036
:104DF00000630258636D43F400336365204600F09E
:104E000077FD23684FF480721A60AEE7636D43F458
:104E100080236365204600F06CFD23684FF4007228
:104E20001A60A8E70B4BB8E72368DB6813F0030FA1
:104E3000C2D0B6E7636D43F480436365A36D43F06E
:104E40000803A36523684FF480621A60204600F0CF
:104E50004EFDBAE700630258F0B583B0002201921C
:104E600090F85020012A00F055820346012280F874
:104E700050200068826812F0040F09D05A6D42F089
:104E800020025A650120002283F8502003B0F0BDB3
:104E90000A68C2F31304002C4ED1C2F384620124C9
:104EA0009440C2692243C2611D684C683035220AB1
:104EB000920002F00C02A85804F01F0E1F2404FAFE
:104EC0000EF420EA04000C68C4F3846C0CFA0EFCA7
:104ED00040EA0C00A8501C68A26812F0040200D03E
:104EE0000122A06810F0080000D0012002432FD05A
:104EF0001868826812F0010F40F008820A68CD68D5
:104F0000D0F8C040C2F3130624EA060405F0180CDA
:104F1000B24D25FA0CF52A40C2F313022243C0F821
:104F2000C020C868AE4A904200F0B0800A68002AEB
:104F3000C0F26B810020A6E792FAA2F232B1B2FA77
:104F400082F202F01F0201249440AAE72022F8E72F
:104F50000F688D681434780E800000F00400265825
:104F6000C7F3045E4FF0070C0CFA0EFC26EA0C0C9B
:104F700005FA0EF54CEA050525509A48006800F040
:104F80007040B0F1805F0BD01C68E06810F0100F2B
:104F900039D14869E468C4F382046400A04006E0A3
:104FA00048691C68E468C4F382046400A0400D6989
:104FB000042D36D01F680E68603757F8254004F07E
:104FC000004406F0F8463043204347F825001868AF
:104FD0000E694C7E012C1ED01546603050F82640DC
:104FE00024F000442C4340F826401D680C69087EDC
:104FF000012813D0286920F4F04004F01F04A240D7
:1050000002432A6174E74869E468A40804F00404D0
:105010006400A040CBE74FF00045DEE74FF40062AC
:10502000E8E71868026E02F0F8420C68B2EB846F91
:105030001DD01868426E02F0F8420C68B2EB846F23
:105040001AD01868826E02F0F8420C68B2EB846FD6
:1050500017D01868C26E02F0F8420C68B2EB846F89
:105060007FF446AFC26E22F00042C26640E7026E95
:1050700022F000420266DCE7426E22F00042426605
:10508000DFE7826E22F000428266E2E71C680A686F
:10509000C2F31305002D34D1900E013000F01F0033
:1050A00009288CBF00200120002861D0002D37D1B5
:1050B000900E0130800600F0F840002D3CD1960E95
:1050C000013606F01F070126BE403043002D41D1B6
:1050D000920E013202F01F0202EB4202120502435D
:1050E00088681434550EAD0005F004056659C2F306
:1050F00004520727974026EA070690403043605144
:1051000014E792FAA2F048B1B0FA80F0013000F052
:105110001F0009288CBF00200120C5E72020F5E7EB
:1051200092FAA2F030B1B0FA80F00130800600F0BF
:10513000F840C2E72020F8E792FAA2F646B1B6FAA4
:1051400086F6013606F01F06012707FA06F6BCE7C9
:105150002026F6E792FAA2F242B1B2FA82F20132C6
:1051600002F01F0202EB42021205B8E72022F6E726
:10517000CDB9900E0130800600F0F840FDB9960ED2
:10518000013606F01F070126BE40304365BB920E74
:10519000013202F01F0202EB42021E3A120542F0F7
:1051A000007202439CE792FAA2F030B1B0FA80F0AC
:1051B0000130800600F0F840E0E72020F8E792FA9E
:1051C000A2F646B1B6FA86F6013606F01F060127AA
:1051D00007FA06F6D9E72026F6E700BFFFFF0F0023
:1051E0000000FF470010005C92FAA2F25AB1B2FA36
:1051F00082F2013202F01F0202EB42021E3A120555
:1052000042F00072CDE72022F3E719684248434C90
:10521000A14218BF81420CBF0120002021D1404E85
:10522000B56805F0E077F0B13B48806810F0010008
:1052300000D00120394CA46814F0010400D00124EE
:1052400020430CBF01200020002859D0354882425D
:1052500012D03548824231D0344882423FD00020BB
:1052600011E6334EDCE73348806810F0010000D0CF
:10527000012080F00100E7E715F4000FE9D12D4A85
:10528000914201D00020FEE547F40002B16821F010
:10529000E0710A43B260284A126892092749A1FBCB
:1052A0000212920901325200019202E0019A013A7F
:1052B0000192019A002AF9D10020E4E515F0807FDF
:1052C000CAD11C4A914201D00020DCE547F080722F
:1052D000B16821F0E0710A43B2600020D3E515F413
:1052E000800F15D1134A914201D00020CBE547F43D
:1052F0008002B16821F0E0710A43B2600020C2E58B
:105300005A6D42F020025A650120BCE50020BAE542
:105310000020B8E50220B9E500200240002102404B
:1053200000230240000084CB000052C70000B8CF29
:10533000006302580060025828000024632D3E05D7
:1053400038B503689A6812F0010F56D1044699687F
:105350002B4A114209D0436D43F010034365836D1E
:1053600043F001038365012048E09968254A0A401B
:1053700042F001029A60FFF747FB05462368224985
:10538000224A934218BF8B420DD102F500729268F7
:1053900002F01F021D498B4207D01946994207D0DF
:1053A00032B100202AE01A4AF1E7A1F58071F5E751
:1053B00023681A6812F0010F1DD19A6812F0010FCC
:1053C00005D199680F4A0A4042F001029A60FFF73E
:1053D0001BFB401B0228EBD923681B6813F0010F4D
:1053E000E6D1636D43F010036365A36D43F00103E1
:1053F000A365012002E0002000E0002038BD00BFCE
:105400003F000080C0FFFF7F0020024000210240DB
:105410000063025838B5044603683E493E4A934249
:1054200018BF8B4252D102F50072956805F01F0536
:105430009B6813F0040F69D194F85030012B67D0AA
:10544000012384F850302046FFF77AFF002859D115
:10545000626DA0F60273134043F4807363652368A2
:105460002D4A934234D01A46934200D01DB9626D42
:1054700022F480126265626D12F4805F2BD0A26DFF
:1054800022F00602A2651C221A60002384F8503024
:105490002368214A934221D01A46934221D0052DF8
:1054A00014BF00210121E5B1D9B9092D19D0636DCF
:1054B00043F480136365D36813F0007F27D0636DD6
:1054C00023F4405343F48053636520E0134AACE770
:1054D000A2F58072C8E70022A265D4E7A2F5807227
:1054E000DBE7DA6812F0007F05D0626D22F44052EB
:1054F00042F4805262659968094A0A4042F0040207
:105500009A6004E0002384F8503000E0022038BDA7
:105510000220FCE700200240002102400063025804
:10552000C0FFFF7F38B5044603684F494F4A934296
:1055300018BF8B4223D14E4B9B6813F4403F14BFDE
:10554000012300234BB302F0DBFD05466368B3F58E
:10555000003F1CD0B3F5403F1DD0B3F5803F16D0BF
:10556000FFF76CFA41F20303984258D8414B9D4231
:105570004FD92268936843F48073936038BD3E4BE3
:105580009B6813F4403F14BF01230023DAE71B0C90
:10559000B5FBF3F5E4E78508E2E74FF400200021CE
:1055A00003F0A6FF05466368B3F5101F2DD022D87F
:1055B000B3F5E01F27D004D9B3F5001FD0D14509BA
:1055C000CEE7B3F5801F0DD006D9B3F5A01F09D0E3
:1055D000B3F5C01F06D0C3E7B3F5002F02D0B3F573
:1055E000402F04D19B0C5B00B5FBF3F5B8E7B3F596
:1055F000802FF7D0B4E7B3F5201F08D0B3F5301FE4
:10560000AED1050AACE70509AAE78509A8E7C509EF
:10561000A6E72268936823F480739360AEE7174B84
:105620009D4205D82268936823F440739360A5E7F0
:10563000134B9D4207D82268936823F4407343F4C8
:10564000807393609AE70F4B9D4207D82268936856
:1056500023F4407343F4007393608FE722689368E8
:1056600043F44073936089E7002002400021024028
:1056700000230240002D31010063025821BCBE000E
:1056800041787D0181F0FA0230B583B000230193A7
:10569000002800F010810446436DEBB123689A683E
:1056A00012F0005F03D09968844A0A409A60236828
:1056B0009A6812F0805F1CD19968814A0A4042F0D2
:1056C00080529A607F4B1B689B097F4AA2FB032391
:1056D0009B090133019309E0FCF778FF0023A365E0
:1056E00084F85030DAE7019B013B0193019B002BCA
:1056F000F9D12268936813F0805F40F09C80636D5D
:1057000043F010036365A36D43F00103A365012516
:10571000936813F0040300D00123616D11F0100FA2
:1057200040F0C180002B40F0BE80636D23F4817394
:1057300043F002036365936813F0010F21D16349BD
:10574000634B9A4218BF8A420CBF0122002274D1D7
:105750008B6813F0010300D001235D49896811F0C3
:10576000010100D001210B430CBF0123002343B1F1
:10577000002A6BD0574963688A6822F47C1213436D
:105780008B60FFF75BF941F20303984202D9A368EB
:10579000102B5DD0627D236B43EA4233A268134332
:1057A000227F43EA0243227F012A5CD0626A22B14F
:1057B00002F47872A16A0A4313432168C868464A12
:1057C00002401343CB6021688B6813F0040300D0C0
:1057D00001238A6812F0080200D0012213431BD172
:1057E000227DE36A43EA8232C8683C4B034013439C
:1057F000CB6094F83830012B3AD02268136923F03B
:10580000010313612268136923F07043616B0B433A
:1058100013612046FFF786FEE368012B3AD0226829
:10582000136B23F00F031363636D23F0030343F043
:10583000010363653CE000256AE7294B9B6813F090
:10584000010300D0012383F0010390E7254992E78B
:10585000617D226B42EA41321343227F43EA0243D5
:1058600043F00C039FE7226A013A43EA42439DE773
:10587000206802691C4B1340E26B511E226C42EA05
:105880000142616C0A43A16C0A43134343F00103D4
:105890000361B7E721680B6B23F00F03A269013A9C
:1058A00013430B63C0E7636D43F010036365012589
:1058B000284603B030BD0125FAE700BFC0FFFF5FF7
:1058C000C0FFFF6F28000024632D3E05002002402A
:1058D000002102400023024003C0F0FFFCBFFFFF95
:1058E00000600258006302581EF800FC70477047C1
:1058F000704770477047000090F85020012A00F070
:10590000A18030B49AB00346012280F850200022D2
:105910001692179200684C4A904242D0002201929F
:10592000019A002A41D0926812F0040200D00122AC
:10593000846814F0040F76D1002A74D1424C434A93
:10594000904218BFA04239D102F5007208680028C1
:105950003FD0906820F440404C6820439060186825
:10596000394D3A4CA04218BFA84229D1A86810F07E
:10597000010000D00120354CA46814F0010400D0CF
:10598000012420430CBF01200020002856D0946839
:105990002F4820400C68896821430843906000200C
:1059A00046E002F580720192BAE75A6D42F0200299
:1059B0005A65002283F8502001203CE0254AC5E7C3
:1059C0002548806810F0010000D0012080F001001F
:1059D000DBE7916821F44041916019681A4C1B483B
:1059E000814218BFA14215D1A16811F0010100D078
:1059F00001211648806810F0010000D00120014309
:105A00000CBF01210021D9B190681149014091607A
:105A100000200DE01049896811F0010100D001213A
:105A200081F00101EFE75A6D42F020025A65012032
:105A3000002283F850201AB030BC70470020F7E7EE
:105A40000020F5E7022070470020024000210240BC
:105A5000E0F0FFFF00630258006002580649CB687F
:105A600023F4E0631B041B0C000200F4E06003431A
:105A7000024A1A43CA60704700ED00E00000FA05D0
:105A800000B5174BDB68C3F30223C3F1070CBCF16D
:105A9000040F28BF4FF0040C03F1040EBEF1060FF3
:105AA00014D9033B4FF0FF3E0EFA0CFC21EA0C0127
:105AB00099400EFA03F322EA03031943002807DB97
:105AC0000901C9B2074B19545DF804FB0023E9E74B
:105AD00000F00F000901C9B2034B1954F4E700BFED
:105AE00000ED00E000E400E014ED00E0002807DB3A
:105AF00000F01F02400901239340024A42F820307F
