:020000040800F2
:1000000000000824153A0008A9300008AB300008A9
:10001000AD300008AF300008B1300008000000002B
:10002000000000000000000000000000B3300008E5
:10003000B530000800000000B7300008B9300008F3
:10004000653A0008653A0008653A0008653A000814
:10005000653A0008653A0008653A0008653A000804
:10006000653A0008653A0008653A0008C1300008A2
:10007000653A0008653A0008653A0008653A0008E4
:10008000653A0008653A0008D1300008653A000872
:10009000653A0008653A0008653A0008653A0008C4
:1000A000653A0008653A0008E1300008F1300008C0
:1000B000653A000801310008653A0008653A000811
:1000C000653A0008653A0008653A0008653A000894
:1000D000653A000811310008653A0008653A0008E1
:1000E000653A0008653A0008000000002131000868
:1000F000653A0008653A0008653A0008653A000864
:10010000653A0008653A0008653A0008653A000853
:10011000653A0008653A0008653A0008653A000843
:10012000653A0008653A0008653A0008653A000833
:10013000653A0008653A0008653A0008653A000823
:1001400000000000000000000000000000000000AF
:10015000653A0008653A0008653A0008653A000803
:10016000653A0008653A0008653A0008653A0008F3
:10017000653A0008653A0008653A0008653A0008E3
:10018000653A0008653A0008653A0008653A0008D3
:10019000653A0008653A0008653A0008653A0008C3
:1001A000653A0008653A0008653A0008653A0008B3
:1001B000653A0008653A0008653A0008653A0008A3
:1001C000653A0008653A0008653A0008653A000893
:1001D000653A0008653A0008653A0008653A000883
:1001E000653A0008653A0008653A0008653A000873
:1001F000653A0008653A0008653A0008653A000863
:10020000653A0008653A0008653A0008653A000852
:10021000653A0008653A0008653A0008653A000842
:10022000653A0008653A0008653A000800000000D9
:10023000653A0008653A000800000000653A0008C9
:10024000653A0008653A0008653A0008653A000812
:10025000653A0008653A0008653A0008653A000802
:10026000653A0008653A0008653A0008653A0008F2
:10027000653A0008653A0008653A00080000000089
:10028000653A0008653A0008653A00080000000079
:0802900000000000653A0008BF
:1002C00010B5054C237833B9044B13B10448AFF390
:1002D00000800123237010BDEC0900240000000001
:1002E000EC31010808B5034B1BB103490348AFF3D8
:1002F000008008BD00000000F0090024EC31010876
:1003000081F0004102E000BF83F0004330B54FEAC6
:1003100041044FEA430594EA050F08BF90EA020F33
:100320001FBF54EA000C55EA020C7FEA645C7FEAC6
:10033000655C00F0E2804FEA5454D4EB5555B8BFE9
:100340006D420CDD2C4480EA020281EA030382EA5A
:10035000000083EA010180EA020281EA0303362DEC
:1003600088BF30BD11F0004F4FEA01314FF4801CBF
:100370004CEA113102D0404261EB410113F0004FD1
:100380004FEA03334CEA133302D0524263EB430388
:1003900094EA050F00F0A780A4F10104D5F1200E26
:1003A0000DDB02FA0EFC22FA05F2801841F1000181
:1003B00003FA0EF2801843FA05F359410EE0A5F155
:1003C00020050EF1200E012A03FA0EFC28BF4CF086
:1003D000020C43FA05F3C01851EBE37101F000453C
:1003E00007D54FF0000EDCF1000C7EEB00006EEB49
:1003F0000101B1F5801F1BD3B1F5001F0CD34908D3
:100400005FEA30004FEA3C0C04F101044FEA445229
:1004100012F5800F80F09A80BCF1004F08BF5FEAB0
:10042000500C50F1000041EB045141EA050130BD90
:100430005FEA4C0C404141EB0101013C28BFB1F5A2
:10044000801FE9D291F0000F04BF01460020B1FAED
:1004500081F308BF2033A3F10B03B3F120020CDAC0
:100460000C3208DD02F1140CC2F10C0201FA0CF09E
:1004700021FA02F10CE002F11402D8BFC2F1200C03
:1004800001FA02F120FA0CFCDCBF41EA0C019040B9
:10049000E41AA2BF01EB0451294330BD6FEA040402
:1004A0001F3C1CDA0C340EDC04F11404C4F12002ED
:1004B00020FA04F001FA02F340EA030021FA04F3FF
:1004C00045EA030130BDC4F10C04C4F1200220FA56
:1004D00002F001FA04F340EA0300294630BD21FA94
:1004E00004F0294630BD94F0000F83F4801306BF5A
:1004F00081F480110134013D4EE77FEA645C18BF4E
:100500007FEA655C29D094EA050F08BF90EA020FE4
:1005100005D054EA000C04BF1946104630BD91EADC
:10052000030F1EBF0021002030BD5FEA545C05D1DF
:100530004000494128BF41F0004130BD14F580041E
:100540003CBF01F5801130BD01F0004545F0FE4192
:1005500041F470014FF0000030BD7FEA645C1ABFC7
:10056000194610467FEA655C1CBF0B46024650EAFE
:10057000013406BF52EA033591EA030F41F400212A
:1005800030BD00BF90F0000F04BF0021704730B5B0
:100590004FF4806404F132044FF000054FF0000185
:1005A00050E700BF90F0000F04BF0021704730B546
:1005B0004FF4806404F1320410F0004548BF40421B
:1005C0004FF000013EE700BF42004FEAE2014FEA70
:1005D00031014FEA02701FBF12F07F4393F07F4F4B
:1005E00081F06051704732F07F4208BF704793F04E
:1005F0007F4F04BF41F40021704730B54FF4607461
:1006000001F0004521F000411CE700BF50EA010263
:1006100008BF704730B54FF000050AE050EA01020C
:1006200008BF704730B511F0004502D5404261EB7C
:1006300041014FF4806404F132045FEA915C3FF4BD
:10064000D8AE4FF003025FEADC0C18BF03325FEA5A
:10065000DC0C18BF033202EBDC02C2F1200300FA0B
:1006600003FC20FA02F001FA03FE40EA0E0021FA30
:1006700002F11444BDE600BF4FF0FF3C06E000BFAE
:100680004FF0010C02E000BF4FF0010C4DF804CD1B
:100690004FEA410C7FEA6C5C4FEA430C18BF7FEADB
:1006A0006C5C1BD001B050EA410C0CBF52EA430C09
:1006B00091EA030F02BF90EA020F0020704710F189
:1006C000000F91EA030F58BF994208BF90422CBF18
:1006D000D8176FEAE37040F0010070474FEA410C11
:1006E0007FEA6C5C02D150EA013C07D14FEA430C2F
:1006F0007FEA6C5CD6D152EA033CD3D05DF8040BA0
:10070000704700BF8446104662468C4619466346D1
:1007100000E000BF01B5FFF7B7FF002848BF10F1A8
:10072000000F01BD4DF808EDFFF7F4FF0CBF0120ED
:1007300000205DF808FB00BF4DF808EDFFF7EAFF69
:1007400034BF012000205DF808FB00BF4DF808ED24
:10075000FFF7E0FF94BF012000205DF808FB00BF19
:100760004DF808EDFFF7CEFF94BF012000205DF8A3
:1007700008FB00BF4DF808EDFFF7C4FF34BF0120B0
:1007800000205DF808FB00BF4FEA410C7FEA6C5C7B
:1007900002D150EA013C0AD14FEA430C7FEA6C5C7B
:1007A00002D152EA033C02D14FF0000070474FF0F3
:1007B000010070474FEA410212F5001215D211D51F
:1007C0006FF47873B3EB625212D94FEAC12343F04E
:1007D000004343EA505311F0004F23FA02F018BFD0
:1007E000404270474FF00000704750EA013005D199
:1007F00011F0004008BF6FF0004070474FF000005C
:10080000704700BF80F0004002E000BF81F000416F
:1008100042001FBF5FEA410392EA030F7FEA226CA6
:100820007FEA236C6AD04FEA1262D2EB1363C1BF36
:10083000D218414048404140B8BF5B42192B88BFA5
:10084000704710F0004F40F4000020F07F4018BFC8
:10085000404211F0004F41F4000121F07F4118BFE8
:10086000494292EA030F3FD0A2F1010241FA03FC90
:1008700010EB0C00C3F1200301FA03F100F0004378
:1008800002D5494260EB4000B0F5000F13D3B0F140
:10089000807F06D340084FEA310102F10102FE2AAF
:1008A00051D2B1F1004F40EBC25008BF20F001001F
:1008B00040EA03007047490040EB0000013A28BFBE
:1008C000B0F5000FEDD2B0FA80FCACF1080CB2EB41
:1008D0000C0200FA0CF0AABF00EBC25052421843BF
:1008E000BCBFD0401843704792F0000F81F4000164
:1008F00006BF80F400000132013BB5E74FEA410337
:100900007FEA226C18BF7FEA236C21D092EA030FA2
:1009100004D092F0000F08BF0846704790EA010F1C
:100920001CBF0020704712F07F4F04D1400028BF49
:1009300040F00040704712F100723CBF00F500002B
:10094000704700F0004343F0FE4040F40000704761
:100950007FEA226216BF08467FEA2363014642020D
:1009600006BF5FEA412390EA010F40F48000704720
:100970004FF0000304E000BF10F0004348BF4042C6
:100980005FEA000C08BF704743F0964301464FF002
:1009900000001CE050EA010208BF70474FF000035E
:1009A0000AE000BF50EA010208BF704711F000439F
:1009B00002D5404261EB41015FEA010C02BF84466F
:1009C0000146002043F0B64308BFA3F18053A3F5CE
:1009D0000003BCFA8CF2083AA3EBC25310DB01FA15
:1009E00002FC634400FA02FCC2F12002BCF1004F99
:1009F00020FA02F243EB020008BF20F0010070472A
:100A000002F1200201FA02FCC2F1200250EA4C007D
:100A100021FA02F243EB020008BF20EADC707047C3
:100A20004FF0FF0C1CEAD0521EBF1CEAD15392EAD1
:100A30000C0F93EA0C0F6FD01A4480EA010C4002AD
:100A400018BF5FEA41211ED04FF0006343EA501007
:100A500043EA5111A0FB01310CF00040B1F5000F49
:100A60003EBF490041EAD3715B0040EA010062F1F8
:100A70007F02FD2A1DD8B3F1004F40EBC25008BFE2
:100A800020F00100704790F0000F0CF0004C08BF00
:100A900049024CEA502040EA51207F3AC2BFD2F1CD
:100AA000FF0340EAC250704740F400004FF00003DB
:100AB000013A5DDC12F1190FDCBF00F00040704715
:100AC000C2F10002410021FA02F1C2F1200200FA53
:100AD00002FC5FEA310040F1000053EA4C0308BF1A
:100AE00020EADC70704792F0000F00F0004C02BF6B
:100AF000400010F4000F013AF9D040EA0C0093F0E6
:100B0000000F01F0004C02BF490011F4000F013B3F
:100B1000F9D041EA0C018FE70CEAD15392EA0C0FAD
:100B200018BF93EA0C0F0AD030F0004C18BF31F018
:100B3000004CD8D180EA010000F00040704790F0EE
:100B4000000F17BF90F0004F084691F0000F91F092
:100B5000004F14D092EA0C0F01D142020FD193EA58
:100B60000C0F03D14B0218BF084608D180EA0100E0
:100B700000F0004040F0FE4040F40000704740F0BC
:100B8000FE4040F4400070474FF0FF0C1CEAD0528A
:100B90001EBF1CEAD15392EA0C0F93EA0C0F69D0E6
:100BA000A2EB030280EA010C49024FEA402037D051
:100BB0004FF0805343EA111143EA10130CF0004048
:100BC0008B4238BF5B0042F17D024FF4000C8B4238
:100BD00024BF5B1A40EA0C00B3EB510F24BFA3EB18
:100BE000510340EA5C00B3EB910F24BFA3EB9103E8
:100BF00040EA9C00B3EBD10F24BFA3EBD10340EA42
:100C0000DC001B0118BF5FEA1C1CE0D1FD2A3FF687
:100C100050AF8B4240EBC25008BF20F0010070473C
:100C20000CF0004C4CEA50207F32C2BFD2F1FF03DF
:100C300040EAC250704740F400004FF00003013A10
:100C400037E792F0000F00F0004C02BF400010F4B4
:100C5000000F013AF9D040EA0C0093F0000F01F0C8
:100C6000004C02BF490011F4000F013BF9D041EAEA
:100C70000C0195E70CEAD15392EA0C0F08D142021D
:100C80007FF47DAF93EA0C0F7FF470AF084676E7F0
:100C900093EA0C0F04D14B023FF44CAF08466EE7C9
:100CA00030F0004C18BF31F0004CCAD130F0004297
:100CB0007FF45CAF31F000437FF43CAF5FE700BFEF
:100CC00042000ED2B2F1FE4F0BD34FF09E03B3EBB6
:100CD000126209D44FEA002343F0004323FA02F0E2
:100CE00070474FF00000704712F1610F01D14202CE
:100CF00002D14FF0FF3070474FF00000704700BF47
:100D000053B94AB9002908BF00281CBF4FF0FF3172
:100D10004FF0FF3000F074B9ADF1080C6DE904CE6E
:100D200000F006F8DDF804E0DDE9022304B07047C6
:100D30002DE9F047089E0D4604468846002B4DD10C
:100D40008A42944668D9B2FA82F252B101FA02F3A9
:100D5000C2F1200120FA01F10CFA02FC41EA030879
:100D600094404FEA1C45210CB8FBF5FE1FFA8CF7A6
:100D700005FB1E8341EA03430EFB07F199420BD9A1
:100D80001CEB03030EF1FF3080F01E81994240F20C
:100D90001B81AEF1020E63445B1AA4B2B3FBF5F003
:100DA00005FB103344EA034400FB07F7A7420AD9C6
:100DB0001CEB040400F1FF3380F00881A74240F2ED
:100DC000058164440238E41B40EA0E4000211EB154
:100DD000D4400023C6E90043BDE8F0878B4208D920
:100DE000002E00F0EE800021C6E900050846BDE8AF
:100DF000F087B3FA83F100294AD1AB4202D3824291
:100E000000F2F980841A65EB030301209846002E56
:100E1000E2D0C6E90048DFE702B9FFDEB2FA82F2AB
:100E2000002A40F09180A1EB0C054FEA1C471FFA05
:100E30008CFE0121B5FBF7F307FB1350250C45EAA7
:100E400000450EFB03F0A84208D91CEB050503F191
:100E5000FF3802D2A84200F2CB8043462D1AA4B23A
:100E6000B5FBF7F007FB105544EA05440EFB00FE06
:100E7000A64508D91CEB040400F1FF3502D2A645B3
:100E800000F2BB802846A4EB0E0440EA03409EE734
:100E9000C1F120078B4022FA07FC4CEA030C20FA30
:100EA00007F405FA01F31C43FD404FEA1C4900FA20
:100EB00001F3B5FBF9F8200C1FFA8CFE09FB18555D
:100EC00040EA054508FB0EF0A84202FA01F20BD9F0
:100ED0001CEB050508F1FF3A80F08880A84240F23B
:100EE0008580A8F1020865442D1AA4B2B5FBF9F07B
:100EF00009FB105544EA054500FB0EFEAE4508D936
:100F00001CEB050500F1FF346CD2AE456AD90238FE
:100F1000654440EA0840A0FB0294A5EB0E05A542FB
:100F2000C846A64656D353D05EB1B3EB080265EB74
:100F30000E0505FA07F722FA01F3CD401F43C6E973
:100F400000750021BDE8F087C2F1200320FA03F10B
:100F50000CFA02FC25FA03F395400D434FEA1C47B7
:100F60001FFA8CFEB3FBF7F107FB11302B0C43EAA1
:100F7000004301FB0EF0984204FA02F408D91CEB7E
:100F8000030301F1FF382FD298422DD9023963446F
:100F90001B1AADB2B3FBF7F007FB103345EA03456C
:100FA00000FB0EF3AB4208D91CEB050500F1FF383E
:100FB00016D2AB4214D902386544ED1A40EA014119
:100FC00038E73146304607E78646E5E61846FAE652
:100FD0004B45A9D2B9EB020864EB0C0E0138A3E72C
:100FE0004046EAE7204694E74146D1E7D0467BE712
:100FF000023B654432E7084609E76444023842E7A9
:10100000704700BF844641EA000313F003036DD12B
:10101000403A41D351F8043B40F8043B51F8043BBB
:1010200040F8043B51F8043B40F8043B51F8043BC2
:1010300040F8043B51F8043B40F8043B51F8043BB2
:1010400040F8043B51F8043B40F8043B51F8043BA2
:1010500040F8043B51F8043B40F8043B51F8043B92
:1010600040F8043B51F8043B40F8043B51F8043B82
:1010700040F8043B51F8043B40F8043B51F8043B72
:1010800040F8043B51F8043B40F8043B51F8043B62
:1010900040F8043B403ABDD2303211D351F8043B02
:1010A00040F8043B51F8043B40F8043B51F8043B42
:1010B00040F8043B51F8043B40F8043B103AEDD2B1
:1010C0000C3205D351F8043B40F8043B043AF9D202
:1010D000043208D0D2071CBF11F8013B00F8013BD5
:1010E00001D30B8803806046704700BF082A13D3E2
:1010F0008B078DD010F003038AD0C3F10403D21AFA
:10110000DB071CBF11F8013B00F8013B80D331F82D
:10111000023B20F8023B7BE7043AD9D3013A11F8AD
:10112000013B00F8013BF9D20B7803704B78437018
:101130008B7883706046704700000000000000005C
:10114000A2EB0300704700BF02780B78012A28BF8A
:101150009A42F5D16DE9044540EA0104CDE9026700
:101160006FF0000C4FEA447212B380EA010414F0ED
:10117000070F6AD100F0070420F0070004F0030510
:1011800021F007014FEAC505F0E8042314F0040F2D
:10119000F1E804670CFA05F462EA040266EA040660
:1011A0000AD063EA0403624667EA0407664603E07E
:1011B000F0E80423F1E8046782FA4CF582EA0604B9
:1011C000A4FA8CF46CBB83FA4CF583EA0705A5FA04
:1011D0008CF595B950E9022351E9026782FA4CF582
:1011E00082EA0604A4FA8CF483FA4CF583EA070534
:1011F000A5FA8CF52543DBD09CB92DBAB5FA85F458
:1012000024F0070427FA04F1DDE9026723FA04F366
:1012100003F0FF0001F0FF01FDE80445A0EB010031
:10122000704724BAB4FA84F424F0070426FA04F1CF
:10123000DDE9026722FA04F202F0FF0001F0FF018B
:10124000FDE80445A0EB0100704714F0030F3CD10A
:1012500010F0030428D150F8082B51F8083B82FA0B
:101260004CF582EA0305A5FA8CF55DB950F8042C1B
:1012700051F8043C82FA4CF582EA0305A5FA8CF594
:10128000002DE8D02DBAB5FA85F424F0070423FA2E
:1012900004F122FA04F202F0FF0001F0FF01FDE880
:1012A0000445A0EB010070474FEAC40420F003009E
:1012B00050F8082B21F0030151F8083B0CFA04F414
:1012C00062EA040263EA0403C9E710F003041AD0D7
:1012D000A1EB040120F00300E40750F8042B06D032
:1012E0000FD28B785FFAA2F4E41A06D12BB1CB7837
:1012F0005FFAB2F4E41A00D11BB920465DF8104B36
:10130000704701F1040150F8042BCC0721F00301D0
:1013100051F8043B48D824D222F07F4482FA4CF59D
:1013200094EA1325A5FA8CF50AD165B951F8043B66
:1013300084EA0204B4EB036F0ED150F8042BEBE700
:101340004FEA132355E035F07F454DD10878FDE88D
:101350000445C0F1000070474FEA126203F0FF033A
:1013600047E002EA1C4482FA4CF594EA1345A5FAD8
:101370008CF50AD165B951F8043B84EA0204B4EB58
:10138000034F0CD150F8042BEBE74FEA134330E046
:1013900015EA1C4528D10B884FEA124229E04FEA92
:1013A000124203EA1C4324E002F0FF0482FA4CF5E7
:1013B00094EA1365A5FA8CF50AD165B951F8043B96
:1013C00084EA0204B4EB032F09D150F8042BEBE7B5
:1013D0004FEA13630DE015F0FF0F05D10B684FEADC
:1013E000122223F07F4304E04FF00000FDE80445A3
:1013F000704712BA1BBA82FA4CF482EA0304A4FAC8
:101400008CF5B5FA85F402FA04F203FA04F34FEA14
:101410001260FDE80445A0EB136070470000000077
:1014200000000000000000000000000000000000BC
:1014300000000000000000000000000000000000AC
:1014400090F800F06DE9024520F007016FF0000C04
:1014500010F0070491F820F040F049804FF00004AC
:101460006FF00700D1E9002391F840F000F1080087
:1014700082FA4CF2A4FA8CF283FA4CF3A2FA8CF3BF
:101480004BBBD1E9022382FA4CF200F10800A4FA26
:101490008CF283FA4CF3A2FA8CF3E3B9D1E904237A
:1014A00082FA4CF200F10800A4FA8CF283FA4CF3B1
:1014B000A2FA8CF37BB9D1E9062301F1200182FA6B
:1014C0004CF200F10800A4FA8CF283FA4CF3A2FA71
:1014D0008CF3002BC6D0002A04BF04301A4612BA7F
:1014E000B2FA82F2FDE8024500EBD2007047D1E982
:1014F000002304F00305C4F100004FEAC50514F011
:10150000040F91F840F00CFA05F562EA05021CBFE1
:1015100063EA050362464FF00004A9E700000000FB
:1015200001F0FF01102A2BDB10F0070F08D010F894
:10153000013B013A8B422DD010F0070F42B3F6D198
:10154000F0B441EA012141EA014122F007047FF0B1
:1015500000070023F0E80256083C85EA010586EA08
:10156000010685FA47F5A3FA87F586FA47F6A5FA44
:1015700087F68EB9EED1F0BC01F0FF0102F0070250
:1015800032B110F8013B013A83EA010313B1F8D1FB
:101590000020704701387047002D06BF35460338DC
:1015A000073815F0010F07D1013015F4807F02BF15
:1015B000013015F4C03F0130F0BC0138704700BF66
:1015C00070B54FF0FF0C4CF4E06C1CEA11541DBFD9
:1015D0001CEA135594EA0C0F95EA0C0F00F0DEF8A4
:1015E0002C4481EA030621EA4C5123EA4C5350EA89
:1015F000013518BF52EA033541F4801143F48013DA
:1016000038D0A0FB02CE4FF00005E1FB02E506F06A
:101610000042E0FB03E54FF00006E1FB03569CF0BF
:10162000000F18BF4EF0010EA4F1FF04B6F5007FC5
:1016300064F5407404D25FEA4E0E6D4146EB060637
:1016400042EAC62141EA55514FEAC52040EA5E50C0
:101650004FEACE2EB4F1FD0C88BFBCF5E06F1ED86A
:10166000BEF1004F08BF5FEA500E50F1000041EBA1
:10167000045170BD06F0004646EA010140EA02004E
:1016800081EA0301B4EB5C04C2BFD4EB0C0541EA70
:10169000045170BD41F480114FF0000E013C00F385
:1016A000AB8014F1360FDEBF002001F0004170BDA9
:1016B000C4F10004203C35DA0C341BDC04F11404C2
:1016C000C4F1200500FA05F320FA04F001FA05F24E
:1016D00040EA020001F0004221F0004110EBD3701B
:1016E00021FA04F642EB06015EEA430E08BF20EA47
:1016F000D37070BDC4F10C04C4F1200500FA04F3EA
:1017000020FA05F001FA04F240EA020001F000417B
:1017100010EBD37041F100015EEA430E08BF20EAEE
:10172000D37070BDC4F1200500FA05F24EEA020E36
:1017300020FA04F301FA05F243EA020321FA04F065
:1017400001F0004121FA04F220EA020000EBD3701C
:101750005EEA430E08BF20EAD37070BD94F0000F1C
:101760000FD101F00046400041EB010111F4801F50
:1017700008BF013CF7D041EA060195F0000F18BF01
:10178000704703F00046520043EB030313F4801F3D
:1017900008BF013DF7D043EA0603704794EA0C0FF7
:1017A0000CEA135518BF95EA0C0F0CD050EA41060D
:1017B00018BF52EA4306D1D181EA030101F000418A
:1017C0004FF0000070BD50EA410606BF10461946B2
:1017D00052EA430619D094EA0C0F02D150EA0136BE
:1017E00013D195EA0C0F05D152EA03361CBF1046FF
:1017F00019460AD181EA030101F0004141F0FE419E
:1018000041F470014FF0000070BD41F0FE4141F421
:10181000780170BD70B54FF0FF0C4CF4E06C1CEA21
:1018200011541DBF1CEA135594EA0C0F95EA0C0FD6
:1018300000F0A7F8A4EB050481EA030E52EA033591
:101840004FEA013100F088804FEA03334FF08055B2
:1018500045EA131343EA12634FEA022245EA1115DF
:1018600045EA10654FEA00260EF000419D4208BF90
:10187000964244F1FD0404F5407402D25B084FEA3D
:101880003202B61A65EB03055B084FEA32024FF4E9
:1018900080104FF4002CB6EB020E75EB030E22BF46
:1018A000B61A754640EA0C005B084FEA3202B6EB06
:1018B000020E75EB030E22BFB61A754640EA5C00B5
:1018C0005B084FEA3202B6EB020E75EB030E22BF45
:1018D000B61A754640EA9C005B084FEA3202B6EB46
:1018E000020E75EB030E22BFB61A754640EADC0005
:1018F00055EA060E18D04FEA051545EA16754FEA67
:1019000006164FEAC30343EA52734FEAC2025FEA84
:101910001C1CC0D111F4801F0BD141EA00014FF013
:1019200000004FF0004CB6E711F4801F04BF0143E4
:101930000020B4F1FD0C88BFBCF5E06F3FF6AFAE00
:10194000B5EB030C04BFB6EB020C5FEA500C50F190
:10195000000041EB045170BD0EF0004E4EEA113113
:1019600014EB5C04C2BFD4EB0C0541EA045170BD1A
:1019700041F480114FF0000E013C90E645EA060E5E
:101980008DE60CEA135594EA0C0F08BF95EA0C0F8C
:101990003FF43BAF94EA0C0F0AD150EA01347FF4D4
:1019A00034AF95EA0C0F7FF425AF104619462CE7AB
:1019B00095EA0C0F06D152EA03353FF4FDAE10460E
:1019C000194622E750EA410618BF52EA43067FF45F
:1019D000C5AE50EA41047FF40DAF52EA43057FF4EF
:1019E000EBAE12E74A0011D212F5001211D20DD55A
:1019F0006FF47873B3EB62520ED44FEAC12343F015
:101A0000004343EA505323FA02F070474FF00000BE
:101A1000704750EA013002D14FF0FF3070474FF06D
:101A20000000704738B505460C462846214600227E
:101A30000023FEF781FE28B928462146BDE838403C
:101A400000F00AB8284604F1004100F005F84042D1
:101A500061EB410138BD00BFD0B50C4B00220646FA
:101A60000F46FFF7ADFDFFF7BDFF0446FEF78AFD09
:101A7000074B0022FFF7A4FD02460B4630463946CD
:101A8000FEF742FCFFF7AEFF2146D0BD0000F03D5F
:101A90000000F04120B310B58646002301E0013379
:101AA0009BB28B4209D21EF803C0BCF1550FF6D190
:101AB0000EEB03025278AA2AF1D18B4209D0C91A3F
:101AC0008CB222460EEB03017046FFF79BFA2046CC
:101AD00010BD0A46002170460AF008F80020F7E71A
:101AE000004870470CFEFFFF00B586464FF0000C23
:101AF000604611E00133DBB2072B09D800F0010288
:101B00004008002AF6D048F20842424090B2F1E77D
:101B10000CF1010C1FFA8CFC8C4504D21EF80C3021
:101B200058400023E8E75DF804FB00002DE9F04190
:101B3000002B18BF002831D006461F460378552BCE
:101B40002FD14378AA2B2FD1837893422FD10479B8
:101B5000C37804EB0324A4B20639A046A14229DDD0
:101B600003199D79EE2D0FD02146701DFFF7BCFFA4
:101B700033195B7905EB0325A8421ED144B94FF018
:101B800000084046BDE8F0815B79EE2BECD1F5E72B
:101B90002246711D3846FFF735FAF2E7DFF820805C
:101BA000EFE7DFF82080ECE7DFF81880E9E7DFF8FF
:101BB0001880E6E76FF0C708E3E7DFF81080E0E79A
:101BC0000CFEFFFFD4FEFFFF70FEFFFFA8FDFFFF2E
:101BD00010B5494B1B68B3F5026F03DB72B6474B78
:101BE00001221A60464B1B68B3F5007F20DB454B92
:101BF0001B68EBB172B6434B00221A60424B1A6865
:101C0000424B1B689A422FD0414B1A68414B1B68CC
:101C10009A4250D0404B01221A603B4B1A683B4B12
:101C20001B689A4249D062B63C4B187801F084FF99
:101C3000354B1A68354B1B689A4202DD324B002245
:101C40001A602E4B1B68012B3CD010BD344A32F871
:101C50001300344951F82320024441F82320013372
:101C6000B3F5007FF2DBCFE70023F9E72D4951F808
:101C7000232028480068B2FBF0F22B4820F81320FC
:101C8000002241F823200133B3F5007FEEDB274C1F
:101C9000FF23237063704FF480622349A01CFFF779
:101CA000B1F940F202422146214808F065F8184B8C
:101CB00000221A60AEE70023E6E7154A13680133F5
:101CC0001360B0E7144B1B68012BBED172B60E4AED
:101CD0001368013313600023074A1360154A136029
:101CE000074A136062B6054A13600B4A1360054B3E
:101CF00001221A60A9E700BF080A0024180A00247C
:101D00000C0A0024100000242C21002408000024C8
:101D1000140A0024000000240C0000240400002405
:101D2000C41B00242C1200242C0E00241C0A0024A6
:101D300044230024100A00244FF07E507047000016
:101D400010B500F051FF04464368012B2DD0A36865
:101D5000012B2DD0E368012B2DD02369012B2DD031
:101D60006369012B2DD02368012B2DD0217E002902
:101D700034D1617E002937D1E169002914DB236A5F
:101D8000002B11DBB3F5006F02DD4FF4006323621B
:101D9000184B1960236A184C2360184809F004FF97
:101DA0002168174809F000FF10BD00F069F8CEE780
:101DB00000F074F8CEE700F081F8CEE700F08EF87E
:101DC000CEE700F09BF8CEE7FFF7B6FFFEF7FCFB8F
:101DD00002460B460B4809F0E7FEC7E70A4B1970AD
:101DE0000A4809F0E1FEC4E7094B1960094809F007
:101DF000DBFEC1E72C000024300000245032010833
:101E00006032010808320108040000241C32010875
:101E10000000002438320108F8B5154B1988B3F9D1
:101E20000030002B03DB134B00221A70F8BDC9B23F
:101E3000114E002575548CB221463046FFF72AFE1C
:101E40000E4F3B462A4621463046FFF76FFE384686
:101E500000F0F0FD064B1D804FF4C8722946304655
:101E600009F044FEC8222946384609F03FFEDDE766
:101E7000C822002420000024382100242C1A002429
:101E800008B5044B044A07CA83E80700184609F05E
:101E9000EDFE08BD141B00247032010810B5054C7E
:101EA000054A234607CA03C31A70204609F0DEFE1E
:101EB00010BD00BF201B00247C32010810B5054C6A
:101EC000054A234607CA03C31A70204609F0CEFE0E
:101ED00010BD00BF081B00248832010808B5054B5F
:101EE000054A92E8030018601971184609F0BEFE11
:101EF00008BD00BF001B00249432010808B5034848
:101F0000034B036009F0B2FE08BD00BFF41A0024C1
:101F10003531320010B58AB0002307930893099336
:101F20000093019302930393049305930693264829
:101F3000264A02604FF4802242608360C36004221C
:101F400002610375012242758261037743628362F5
:101F5000C3624FF480520263436380F8383002F06A
:101F600025FC38BB0023079307A9174802F056FD4C
:101F700018BB174B0093062301930023029340F2F2
:101F8000FF7203920422049205938DF8193069467A
:101F90000D4801F0F3FF98B90B4C6946204601F05B
:101FA000EDFF204602F0C8FA0A21204601F0DEFDCE
:101FB0000AB010BD00F0D3FED4E700F0D0FED8E7A1
:101FC00000F0CDFEE8E700BF2C1B002400200240FB
:101FD0000008302E10B5B8B004460021339134917A
:101FE000359136913791C02202A809F07FFD226811
:101FF0001F4B9A4201D038B010BD4FF4002200238D
:10200000CDE902234FF400332B9302A805F05CFACC
:1020100058BB184BD3F8D82042F02002C3F8D82080
:10202000D3F8D82002F020020092009AD3F8E020E2
:1020300042F00402C3F8E020D3F8E03003F00403D8
:102040000193019B0223339303233493002435949B
:1020500033A9094804F0F2F922462146122002F081
:10206000A1FD122002F0D4FDC5E700F078FED0E714
:10207000002002400044025800080258002918BFFE
:10208000002826D000B586468C4688420BD1002019
:102090001DE002F120010FE0814217D1DAB10EF10B
:1020A000010E0CF1010C9EF800200C4BD35C03F0E8
:1020B0000303012BEDD011469CF80000074BC35CD5
:1020C00003F00303012BE7D12030E5E7081A5DF8A0
:1020D00004FB012070470020F9E700BF85340108A8
:1020E0002E2070478446002318460AE0A1F14102E1
:1020F000D2B2052A11D808443738022B00D8000183
:102100000133032B11D81CF80310A1F13002D2B215
:10211000092AEBD808443038EFE7A1F16102D2B2C6
:10212000052A03D808445738E7E77047002070476E
:10213000F8B50B1A052B60DD06460F461546023032
:10214000FFF7D0FF0446A0F55C43B3F5806F56D38C
:10215000A0F55843B3F5806F1CD2B11D7F1A052F2F
:102160004FDDB3795C2B4ED1F379752B4DD106F150
:102170000800FFF7B7FFA0F55C43B3F5806F46D2C8
:10218000254B03EA8424C0F30900204300F5803482
:102190000C2000E006207F2C0BD9B4F5006F0DD386
:1021A000B4F5803F0DD3B4F5881F32D2F027042652
:1021B00001E000270126731EDBB20EE0C0270226D5
:1021C000F9E7E0270326F6E704F03F012A6841F02B
:1021D0008001D154A409013BDBB2002BF4D1012EC4
:1021E00006D92B683C431C702B6833442B6005E0F8
:1021F0002B6804F07F041C70F6E70020F8BD002077
:10220000FCE70020FAE70020F8E70020F6E70020CE
:10221000F4E70020F2E700BF00FC0F002DE9F041D9
:1022200082B00E460F688B685D1C3D44002201920F
:1022300007EB030CFB5C222B40F0858080462C468C
:10224000104600E00134E11B726891420AD2237803
:10225000222B07D05C2BF5D10134E31B934272D2C1
:102260000130EFE791426ED22378222B6BD1A4EBA1
:102270000C0CACEB0000336901309847074600288E
:102280005DD001902BE0631B002B58DD6B78752B24
:1022900055D85C2B11D35C3B192B50D8DFE803F0E9
:1022A000114F4F4F4F4F184F4F4F2B4F4F4F4F4FD7
:1022B0004F4F324F4F4F394F4047222B01D02F2BDA
:1022C0003DD1019B5A1C01926A781A70022305E0E5
:1022D000019B5A1C019208221A7002231D44A54238
:1022E00039D22B785C2BCED0019B5A1C019215F869
:1022F000012B1A70F3E7019B5A1C01920C221A70F1
:102300000223EBE7019B5A1C01920A221A70022356
:10231000E4E7019B5A1C01920D221A700223DDE7AB
:10232000019B5A1C019209221A700223D6E701AAC6
:1023300021462846FFF7FCFE03460028CED117B100
:10234000736938469847ADB13368ED1AB56000201F
:1023500002B0BDE8F081019B00221A701023C8F87A
:102360000C30C8F810703368E41AB4600134B460FB
:102370000120EDE70020EBE70246D0B110B404687D
:10238000ACB183684068834202D30AE001339360B2
:102390009368984202D9E15C2029F7D99368984262
:1023A00002D0104610BC7047013B9360F9E722460B
:1023B000F7E7704710B5036828209847044618B11E
:1023C0002822002109F092FB204610BD38B50446B2
:1023D00078B1006878B1A5687DB92B1D6268934219
:1023E00007D203220649284409F070FF08B90335D3
:1023F000A560204638BD0446FBE70024F9E700BF8E
:102400009C320108000000002DE9F04393B005461E
:102410000C4600231193FFF763FE002C00F0998017
:102420002368002B00F09780002331E0652A29D033
:1024300048336B44002203F8442C0DF1040911A920
:1024400048460AF01DFF06460F46DDF84480C845A1
:1024500000F08380C5E9066741A3D3E90023FEF7B6
:102460007FF9002864D06FF000436B610823EB60B4
:1024700001ABA8EB0308A3684344A360012013B099
:10248000BDE8F08303F14801694401F8442C0133AD
:102490003E2BCDD8A2681A4461688A42C8D221680E
:1024A0008A5C452AC2D82B2AC2D3A2F12B011A2951
:1024B000BED801A656F821F0852400083124000872
:1024C00085240008252500083124000885240008FB
:1024D0008524000885240008852400088524000838
:1024E0008524000885240008852400088524000828
:1024F0008524000831240008312400083124000814
:102500003124000831240008312400083124000857
:102510003124000831240008312400083124000847
:102520008524000803F148026A4402F8440CAEE72F
:1025300000220D4B30463946FEF708F918B14FF02E
:1025400000436B6192E730463946FEF733F9686124
:102550008CE7002093E7002091E700208FE700BF81
:102560000000C0FFFFFFDF410000E0C138B50029D7
:1025700018BF00281AD00D4684680AB90AE02468FA
:102580007CB1216A69B12846FEF7DEFD0028F6D14C
:1025900007E024682CB1216A2846FFF76FFD002868
:1025A000F7D12CB1236A2BB1204638BD0024FBE7BC
:1025B0000024F9E70024F7E738B5044616E0E3689D
:1025C00013F4807F04D1206910B10F4B5B689847EA
:1025D000E36813F4007F04D1206A10B10A4B5B68F2
:1025E0009847094B5B68204698472C4654B12568AC
:1025F000E36813F4807FE2D1A0680028DFD0FFF702
:10260000DBFFDCE738BD00BF14000024CB68B3F566
:102610007A7F80F08B802DE9F04106460C4601332D
:10262000CB60002900F084808B684A68934280F078
:1026300081800A68D25C7B2A02D00020BDE8F0814C
:1026400001338B600846FFF797FEA36862689342E8
:1026500003D22268D35C7D2B59D0A3686268934271
:1026600004D2013BA36000252F4634E0013BA36068
:102670000020E3E70746A3680133A3602046FFF785
:102680007BFE21462846FFF7C9FD002839D02046A9
:10269000FFF772FE2B692B6200232B61A36862682F
:1026A00093422ED22268D25C3A2A2AD10133A36007
:1026B0002046FFF761FE2146284600F03FF800B3B0
:1026C0002046FFF759FEA3686268934211D2226840
:1026D000D35C2C2B0DD1A84604F11000FFF76AFE45
:1026E000054670B1002FC5D0C8F80000C0F80480BE
:1026F000C1E7A3686268934203D22268D35C7D2B52
:1027000007D0CFB13846FFF757FF002096E70025E6
:102710002F46E368013BE36007B17D604023F3602F
:10272000B760A3680133A360012087E700207047EA
:10273000002083E7002081E700207FE7002975D093
:1027400070B506460C460D68002D71D08868021DD4
:102750004B689A4206D804223749284409F0B6FD4E
:1027600000283AD0A068421D63689A4206D8052224
:102770003249284409F0AAFD002835D0A068021D7E
:1027800063689A4206D804222D49284409F09EFD28
:1027900000282FD0A3686268934202D2EB5C222B00
:1027A00030D0A3686268934207D2EA5CA2F130039A
:1027B000DBB22D2A18BF092B29D9A368626893427E
:1027C00002D2EB5C5B2B27D0A3686268934231D2C4
:1027D000EB5C7B2B25D000202DE00423F360A36865
:1027E0000433A360012026E00120F060A2680532D6
:1027F000A26020E00223F36001207061A26804322D
:10280000A26018E021463046FFF708FD13E021469C
:102810003046FFF7F9FD0EE02146304600F012F891
:1028200009E021463046FFF7F1FE04E00020704742
:10283000002000E0002070BDA0320108C032010875
:10284000C8320108CB68B3F57A7F6DD22DE9F0412B
:1028500006460C460133CB600A688B68D25C5B2A63
:1028600002D00020BDE8F08101338B600846FFF7FD
:1028700083FD3CB1A3686268934203D22268D35CB3
:102880005D2B48D044B1A3686268934204D2013BF7
:10289000A36000252F461EE0A368013BA360002033
:1028A000E0E7C8F80000C0F80480A3680133A36023
:1028B0002046FFF761FD21462846FFF73FFF68B33A
:1028C0002046FFF759FDA368626893420ED2226842
:1028D000D35C2C2B0AD1A84604F11000FFF76AFD47
:1028E0000546D8B1002FDCD10746DEE7A368626851
:1028F000934213D22268D35C5D2B0FD1E368013B76
:10290000E36007B17D602023F360B760A368013303
:10291000A3600120A6E700252F46EFE737B1384630
:10292000FFF74AFE00209DE700207047002099E74E
:10293000F0B58BB015461E4600240394049405940C
:1029400006940794089409942B4B1C605C60044621
:10295000002918BF002817D1002C4AD00194002369
:102960000293059A049B9A423ED2029215B1029BB1
:1029700023442B60204B01AA92E8030083E8030064
:10298000002738460BB0F0BD039004911B4B93E831
:1029900007000AAF07E907001846FFF70BFD0746D7
:1029A000E0B103A8FFF712FDFFF7E6FC0146384649
:1029B000FFF7C4FE90B136B9002DE2D0039B059A13
:1029C00013442B60DDE703A8FFF7D6FC059B049AB0
:1029D000934203D2039AD35C002BEDD0002FBBD0DF
:1029E0003846FFF7E9FDB7E7002BBFD0013B029364
:1029F000BCE72746C5E700BF901B00241400002455
:102A000070B5044648B10D461646FEF719FD33462B
:102A10002A46411C2046FFF78BFF70BD08B50022F7
:102A20001146FFF7EDFF08BD08B50022FFF79EFD38
:102A300008BD00002DE9F04F85B004460146554819
:102A400009F0B2F82046FFF7E9FF002800F09A806D
:102A500004465149FFF7E8FF054650492046FFF775
:102A6000E3FF06464E492046FFF7DEFF80464D490C
:102A70002046FFF7D9FF07464B492046FFF7D4FF12
:102A800082464A492046FFF7CFFF81464849204603
:102A9000FFF7CAFF019047492046FFF7C5FF83466D
:102AA00045492046FFF7C0FF029044492046FFF702
:102AB000BBFF002D18BF002E1CD03B1E18BF0123EA
:102AC000B8F1000F16D0ABB1B9F1000318BF012364
:102AD000BAF1000F0ED06BB1BBF1000318BF012398
:102AE000019A3AB133B10390031E18BF0123029932
:102AF00001B143B9324B01221A702046FFF75CFD49
:102B000005B0BDE8F08F69692E4809F04DF871698C
:102B10002D4809F049F8D8F814102C4809F044F869
:102B200079692B4809F040F8DAF81410294809F0BF
:102B30003BF8D9F81410284809F036F8019A516981
:102B4000264809F031F8D8F81420254B9A607269AC
:102B50005A606A691A607A69DA60DAF814201A61D0
:102B6000D9F814205A61019A52691A76DBF81420B8
:102B70005A7602994A69DA61DDF80CC0DCF8142053
:102B80001A62B7E7174809F071F80D4B00221A7066
:102B9000B6E700BFD0320108E4320108F032010884
:102BA000F4320108F832010808330108183301082B
:102BB0002C330108443301085433010864330108FD
:102BC0002000002474330108883301089033010881
:102BD00098330108AC330108C0330108D833010829
:102BE000981B0024F433010800487047981B002408
:102BF00000B583B00B4BD3F8D82042F00102C3F8E4
:102C0000D820D3F8D83003F001030193019B0022B0
:102C100011460B2001F0C6FF0B2001F0F9FF03B0B5
:102C20005DF804FB004402582DE9F0418AB000240D
:102C300005940694079408940994304BD3F8E02047
:102C400042F08002C3F8E020D3F8E02002F08002D6
:102C50000092009AD3F8E02042F00402C3F8E0208A
:102C6000D3F8E02002F004020192019AD3F8E020A8
:102C700042F00102C3F8E020D3F8E02002F00102A4
:102C80000292029AD3F8E02042F01002C3F8E0204A
:102C9000D3F8E02002F010020392039AD3F8E02068
:102CA00042F00202C3F8E020D3F8E03003F0020360
:102CB0000493049BDFF848802246C621404603F077
:102CC000D1FC104D22463021284603F0CBFCC62310
:102CD00005930127069707940226089605A9404602
:102CE00003F0ACFB3023059306970794089605A9DB
:102CF000284603F0A3FB0AB0BDE8F0810044025867
:102D0000000002580008025810B584B00024009456
:102D100001940294039401F09DFF01238DF800308B
:102D20008DF801404FF01052019212228DF80820C8
:102D30008DF809408DF80A4003228DF80B208DF89C
:102D40000C408DF80D308DF80E308DF80F40684630
:102D500001F09EFF042001F08BFF04B010BD72B69D
:102D6000FEE7000000B59FB04C2200210BA808F040
:102D7000BDFE2022002103A808F0B8FE022003F0C7
:102D800077FC002300933A4BDA6A22F00102DA6200
:102D9000DB6A03F001030093364B9A6942F4404228
:102DA0009A619B6903F440430093009B314B9B69FC
:102DB00013F4005FFAD0304BD3F8F42042F0020253
:102DC000C3F8F420D3F8F43003F002030193019B1D
:102DD00000230293274B9A6942F440429A619B690F
:102DE00003F440430293224BDA6A42F00102DA62B2
:102DF000DB6A03F001030293029B1E4B9B6913F4F1
:102E0000005FFAD003230B934FF480330C9301231C
:102E10000E9340230F930223149315931693F022DD
:102E20001792189319931A9308231B9300231C934A
:102E30001D930BA803F046FCB0B93F230393032373
:102E400004930023059308230693402307930893D4
:102E50004FF4806209920A93042103A804F098F8C1
:102E600020B91FB05DF804FBFFF779FFFFF777FF8C
:102E700000040058004802580044025800B5B1B0A0
:102E8000C0220021684608F031FE4FF000420023C6
:102E9000CDE90023684604F017FB10B931B05DF8A6
:102EA00004FBFFF75CFF000008B5FFF72DFF394B6F
:102EB0005B6913F4003F13D1BFF34F8FBFF36F8FE4
:102EC000344B0022C3F85022BFF34F8FBFF36F8FF4
:102ED0005A6942F400325A61BFF34F8FBFF36F8FCC
:102EE0002C4B5B6913F4803F27D12A4B0022C3F897
:102EF0008420BFF34F8FD3F88040C4F34E3000E0FE
:102F00001846C4F3C90243F6E07303EA401343EAE8
:102F100082732049C1F860321346013A002BF2D186
:102F2000431E0028ECD1BFF34F8F4B6943F480332D
:102F30004B61BFF34F8FBFF36F8F00F0BDFDFFF705
:102F400011FFFFF79BFFFFF76FFEFFF751FE00F049
:102F500081F900F07FFB00F063FC0F4800F022F8DD
:102F600000F02EFAFEF7D6FF00F0D0F900210B4852
:102F700006F0DEFC06E0FEF7E3FE094B00221A70C5
:102F8000FEF726FEFEF748FF054B1B78002BF2D11B
:102F9000F6E700BF00ED00E0442300249420002465
:102FA0002000002408B5054B1860054B1868002365
:102FB00002221946806809F06BF808BDBC1B00248A
:102FC0003C000024022801D80120704708B508F011
:102FD000A3FA09230360002008BD000010B50138E2
:102FE00001280AD814464FF0FF3392B20748006810
:102FF00007F0B0FF40B9204610BD08F08DFA092354
:1030000003604FF0FF30F7E70520F5E7BC1B002415
:10301000022801D80020704708B508F07DFA09237E
:1030200003604FF0FF3008BD08B508F075FA0923BA
:1030300003604FF0FF3008BD08B548B94FF0FF33CB
:1030400001220848006807F0EDFF40B9012008BDE3
:1030500008F062FA092303604FF0FF30F7E705201C
:10306000F5E700BFBC1B002408B5022804D84FF4C4
:1030700000534B60002008BD08F04EFA092303609E
:10308000F8E7000082B0074BD3F8F42042F00202C8
:10309000C3F8F420D3F8F43003F002030193019B4A
:1030A00002B0704700440258FEE7FEE7FEE7FEE785
:1030B000FEE770477047704708B500F02BFD08BD6C
:1030C00008B5024802F01EFE08BD00BFCC22002455
:1030D00008B5024800F0E6FD08BD00BF2C1B002427
:1030E00008B5024805F0C5FF08BD00BFFC1F00245D
:1030F00008B5024805F0BDFF08BD00BFFC1F002455
:1031000008B5024805F0B5FF08BD00BFE020002467
:1031100008B5024806F0F2FE08BD00BF44230024B3
:1031200008B5024805F0A5FF08BD00BF48200024EF
:103130000120704708B508F0EFF9162303604FF03F
:10314000FF3008BD08B54FF0FF31FFF7F3FFFEE792
:1031500010B503460C4A0D490D48006840B10C48B3
:1031600000680344521A934206D8094A136010BDFE
:103170000748084C0460F2E708F0CEF90C2303601E
:103180004FF0FF30F3E700BF000008240004000008
:10319000C01B002428240024244B1B6803F00F03C9
:1031A000062B06D8214A136823F00F0343F00703C8
:1031B00013601F4B1A6842F001021A6000221A6164
:1031C00019681C4A0A401A60184B1B6813F0080F54
:1031D00006D0164A136823F00F0343F00703136069
:1031E000134B00229A61DA611A62134999621349FA
:1031F000D962134919635A639963DA6319645A648B
:10320000196821F4802119601A660E4B1A680E4B5A
:103210001340B3F1005F03D20C4B0122C3F8082125
:103220000B4B43F2D2021A60704700BF00200052DD
:10323000004402587FEDF6EA000202020000FF019E
:10324000800201010010005C0000FFFF00800051BF
:103250000040005200B58DB00023079308930993F6
:103260000A930B930493059306930093019302939F
:1032700003932448244A02600922426083604FF687
:10328000FF72C26003614361836106F041F850BB85
:103290001C4806F09DF848BB04230793502308936D
:1032A000002309930B9307A9164806F009FB00BBFE
:1032B000002304930593069304A9124806F0C4FC66
:1032C000D0B9002200920123019302920392694631
:1032D0000C4806F0DFF990B900210A4806F0DCFB43
:1032E0000DB05DF804FBFFF73AFDD1E7FFF737FDBE
:1032F000D2E7FFF734FDDBE7FFF731FDE1E7FFF74A
:103300002EFDE9E7FC1F00240000014000B58DB050
:1033100000230793089309930A930B93049305934F
:10332000069300930193029303932348234A026078
:103330000922426083604FF6FF72C26003618361BD
:1033400005F0E6FF48BB1C4806F042F840BB0423EA
:10335000079350230893002309930B9307A916485A
:1033600006F0AEFAF8B900230493069304A91248B4
:1033700006F06AFCD0B90022009201230193029268
:10338000039269460C4806F085F990B900210A4875
:1033900006F082FB0DB05DF804FBFFF7E0FCD2E71E
:1033A000FFF7DDFCD3E7FFF7DAFCDCE7FFF7D7FC3C
:1033B000E1E7FFF7D4FCE9E7E02000240004004047
:1033C00000B58DB000230793089309930A930B93DC
:1033D0000493059306930093019302930393224869
:1033E000224A02600922426083604FF6FF72C26087
:1033F0000361836105F08CFF38BB1B4805F0E8FFD3
:1034000030BB04230793502308930223099300231E
:103410000B9307A9144806F053FAE0B9002304936C
:10342000069304A9104806F00FFCB8B902230093D4
:103430000123019300220292039269460A4806F092
:1034400029F970B90DB05DF804FBFFF788FCD4E7EB
:10345000FFF785FCD5E7FFF782FCDFE7FFF77FFC8E
:10346000E4E7FFF77CFCEDE748200024001800406B
:1034700000B58DB000230793089309930A930B932B
:1034800003684C4A934208D04B4A93423AD04B4A85
:10349000934262D00DB05DF804FB494BD3F8F020A5
:1034A00042F00102C3F8F020D3F8F02002F001024C
:1034B0000192019AD3F8E02042F01002C3F8E02014
:1034C000D3F8E03003F010030293029B4FF4007333
:1034D00007930223089301230B9307A9394802F0AD
:1034E000ADFF002211461A2001F05CFB1A2001F00A
:1034F0008FFB002211461B2001F054FB1B2001F022
:1035000087FBC7E72E4BD3F8E82042F00202C3F84E
:10351000E820D3F8E82002F002020392039AD3F8DD
:10352000E02042F00402C3F8E020D3F8E03003F0DA
:1035300004030493049B40230793022308930B93F3
:1035400007A9214802F07AFF002211461D2001F050
:1035500029FB1D2001F05CFB9CE7194BD3F8E82008
:1035600042F04002C3F8E820D3F8E82002F040021D
:103570000592059AD3F8E02042F00202C3F8E02059
:10358000D3F8E03003F002030693069B4FF4804328
:103590000793022308930B9307A90C4802F04EFFF0
:1035A000002211462B2001F0FDFA2B2001F030FB08
:1035B00070E700BF00000140000400400018004018
:1035C0000044025800100258000802580004025833
:1035D0000368B3F1804F00D0704782B0074BD3F837
:1035E000E82042F00102C3F8E820D3F8E83003F005
:1035F00001030193019B02B0704700BF00440258D1
:1036000000B587B0002301930293039304930593BD
:103610000368B3F1804F02D007B05DF804FB0B4B99
:10362000D3F8E02042F00102C3F8E020D3F8E03004
:1036300003F001030093009B0123019302220292F5
:10364000059301A9024802F0F9FEE5E7004402589B
:103650000000025800B58BB000230793089309932C
:1036600000930193029303930493059306931848E0
:103670004FF0804202600922426083606422C2608F
:103680000361836105F074FEC8B9002307930993B1
:1036900007A90F4806F0D8FAA0B960230093322397
:1036A00001930022029204926946094805F00AFF3C
:1036B00058B90748FFF7A4FF0BB05DF804FBFFF70C
:1036C0004EFBE2E7FFF74BFBE7E7FFF748FBF0E7CE
:1036D0009420002410B504460268454B9A4204D059
:1036E0002268444B9A4264D010BD037F012BF7D16E
:1036F000414B1B68002B2CD03F4B1B68012B2ED05D
:103700003E4B1A683E4B1B689A423ADA3A4B1B68AA
:10371000012B05DD384B1A683A4B1B689A4224DBB3
:10372000354B1A68374B1B689A4205DB324B1A68D7
:10373000354B1B689A421EDB01224021334802F0C0
:1037400091FF334B01221A702B4A13680133136027
:10375000C6E7012204212D4802F084FFCCE70022B5
:1037600004212A4802F07EFFCAE7012240212748AF
:1037700002F078FFE5E700224021244802F072FFC2
:10378000DFE71E4B1A681E4B1B689A42DCD1204BA8
:103790001B78002BD8D0184B1B68012B03DC1C4B6B
:1037A00000221A70D0E701224021184802F05AFF87
:1037B000F5E7237F012B97D1164800F06DFA164AE2
:1037C0001168164B23F81100126833F812204EF6D8
:1037D00060239A4206D9104B1A68104B4EF66021AE
:1037E00023F812100C4A1368013313607CE700BF02
:1037F0000000014000040040080A00242C2100249D
:10380000080000242C00002430000024000002588E
:10381000302100242C1B00240C0A0024C41B00248B
:1038200008B51A481A4B03604FF4E1334360002394
:103830008360C36003610C2242618361C3610362E0
:103840004362836207F0DEFC98B900210F4807F05D
:1038500019FE88B900210D4807F039FE78B90B48E8
:1038600007F0F1FD70B901220A49084807F09CFDF4
:1038700008BDFFF774FAE8E7FFF771FAEAE7FFF728
:103880006EFAECE7FFF76BFAEDE700BF4423002484
:10389000001001403421002430B5B9B004460021A5
:1038A00033913491359136913791C02202A808F0B6
:1038B0001DF922682F4B9A4201D039B030BD012248
:1038C0000023CDE9022302A803F0FEFD00284AD11F
:1038D000294BD3F8F02042F01002C3F8F020D3F8BF
:1038E000F02002F010020092009AD3F8E02042F09B
:1038F0000102C3F8E020D3F8E03003F001030193A4
:10390000019B4FF4C0633393022334930025359514
:1039100036930723379333A9184802F08FFD1848D0
:10392000184B03602A23436040238360C5604FF433
:103930008063036145618561C5614FF48033036233
:10394000456201F0E9FB88B90D4BE3679C630022F7
:103950001146252001F026F9252001F059F9E06FE4
:1039600001F0DAFBA9E7FFF7FAF9B1E7FFF7F7F99A
:10397000EAE700BF0010014000440258000002586E
:10398000CC2200241000024008B502681B4B9A426A
:1039900000D008BD1A4A1388B2F90020002A09DBBA
:1039A00013F4804F11D0174A12780A2A08D0144B0A
:1039B00000221A8001221349134807F0F5FCE8E7BA
:1039C000124A1A430E4B1A80F4E70E4A12780D2A57
:1039D0000ED0C3F30D010E48425401339BB2084A86
:1039E0001380B3F5C87FE5D3134600221A80E1E7C0
:1039F00043F48043024A1380DCE700BF001001401B
:103A0000C822002434210024442300240080FFFF26
:103A100038210024DFF834D0FFF7BEFB0C480D49F5
:103A20000D4A002302E0D458C4500433C4188C4219
:103A3000F9D30A4A0A4C002301E013600432A2427F
:103A4000FBD307F06FFDFFF72FFA70470000082443
:103A500000000024EC090024903A0108EC0900243D
:103A600024240024FEE70000104B1B780BB9012032
:103A7000704710B504464FF47A70B0FBF3F30C4A6C
:103A80001068B0FBF3F001F0D1F868B90F2C01D940
:103A900001200AE0002221464FF0FF3001F082F8B9
:103AA000044B1C60002000E0012010BD3400002405
:103AB000240000243800002410B5032001F060F831
:103AC00003F05AF90F498B69C3F303230E4AD35C01
:103AD00003F01F03D8408B6903F00F03D35C03F09E
:103AE0001F0320FA03F3094A1360094B18600F20E3
:103AF000FFF7BAFF10B10124204610BD0446FFF7BE
:103B0000C1FAF9E7004402584434010828000024AF
:103B100024000024034B1B78034A11680B441360F4
:103B2000704700BF34000024D8230024014B1868DC
:103B3000704700BFD823002438B50446FFF7F6FFCE
:103B40000546B4F1FF3F02D0044B1B781C44FFF73D
:103B5000EDFF401BA042FAD338BD00BF3400002463
:103B6000014B1868000C70470010005C2DE9F04113
:103B700004460E4603684549454A934218BF8B42A6
:103B800013D102F50072976807F01F072569082D09
:103B900012D0052F18BF002F09D0092F07D0936826
:103BA00013F4404F2DD1042506E03A4AEBE7DB68D9
:103BB00013F0010F1FD10425FFF7B8FF80462368DB
:103BC0001A682A4223D1B6F1FF3FF8D0FFF7AEFFC3
:103BD000A0EB0800B04201D8002EF0D123681B688A
:103BE0002B42ECD1636D43F004036365002384F83A
:103BF0005030032045E0636D43F0200363650120EE
:103C00003FE0636D43F020036365012039E0626D9E
:103C100042F400726265DA6812F4406F11D1627D7D
:103C20007AB91A6812F0080F0BD0626D22F4807214
:103C30006265626D12F4805F03D1626D42F0010231
:103C40006265134A93420CD01A4693420CD0052F5A
:103C500014BF002101213FB131B9092F04D0D2682E
:103C600003E0A2F58072F0E7DA68082D06D012F4BE
:103C7000804F08D10C221A60002002E008221A604E
:103C80000020BDE8F0810020FBE700BF00200240DB
:103C900000210240006302580368186C70477047A7
:103CA00070477047F8B5044603681D685E6896491A
:103CB000964A934218BF8B4240D1954B9F6807F0BC
:103CC0001F0715F0020F10D016F0020F0DD0636D14
:103CD00013F0100F03D1636D43F400636365204656
:103CE00000F09AFE236802221A6015F0040F02D039
:103CF00016F0040F05D115F0080F4FD016F0080F7D
:103D00004CD0636D13F0100F03D1636D43F4007357
:103D100063652368DA6812F4406F39D17B4A9342B5
:103D20000ED01A4693420ED0052F14BF0021012158
:103D30004FB141B9092F06D0D26805E0754BBDE7F8
:103D4000A2F58072EEE7DA6812F4005F20D11A68FB
:103D500012F0080F1CD09A6812F0040F10D15A68A4
:103D600022F00C025A60636D23F480736365636D07
:103D700013F4805F0CD1636D43F00103636507E0CA
:103D8000636D43F010036365A36D43F00103A36506
:103D90002046FFF784FF23680C221A6015F0200FDD
:103DA00002D016F0200F05D115F0400F63D016F0A9
:103DB000400F60D0636D13F0100F03D1636D43F4B7
:103DC000005363652368DA6C12F4C07F19D10121B6
:103DD000DA6812F4406F16D101204C4A934214D095
:103DE0001A46934214D0062F14BF4FF0000C4FF028
:103DF000010C6FB1BCF1000F0AD1072F08D0D268B7
:103E000007E00021E4E70020E7E7A2F58072E8E799
:103E1000DA6851B312F0007F03D030B312F4005FC0
:103E200023D1196811F0400F1FD012F4001F1CD1CC
:103E30009A6812F0080F10D15A6822F060025A6096
:103E4000636D23F480536365636D13F4807F0CD13D
:103E5000636D43F00103636507E0636D43F0100396
:103E60006365A36D43F00103A365204600F0D0FD18
:103E7000236860221A6015F0800F02D016F0800FC0
:103E800036D115F4807F02D016F4807F44D115F42A
:103E9000007F02D016F4007F4AD115F0100F20D019
:103EA00016F0100F1DD0236B6BB1002F4ED023687E
:103EB0001549164A934218BF8B4245D1144B9B6853
:103EC00013F4404F0AD0636D43F480636365A36DC0
:103ED00043F00203A3652046FFF7E3FE23681022A8
:103EE0001A6015F4806F02D016F4806F34D1F8BDDB
:103EF000636D43F4803363652046FFF7D1FE23688A
:103F000080221A60BDE700BF00200240002102406D
:103F10000023024000630258636D43F4003363657D
:103F2000204600F077FD23684FF480721A60AEE7F8
:103F3000636D43F480236365204600F06CFD2368C5
:103F40004FF400721A60A8E70B4BB8E72368DB68F0
:103F500013F0030FC2D0B6E7636D43F4804363658B
:103F6000A36D43F00803A36523684FF480621A60D1
:103F7000204600F04EFDBAE700630258F0B583B06A
:103F80000022019290F85020012A00F05582034649
:103F9000012280F850200068826812F0040F09D0D6
:103FA0005A6D42F020025A650120002283F8502009
:103FB00003B0F0BD0A68C2F31304002C4ED1C2F363
:103FC000846201249440C2692243C2611D684C6826
:103FD0003035220A920002F00C02A85804F01F0E9D
:103FE0001F2404FA0EF420EA04000C68C4F3846C65
:103FF0000CFA0EFC40EA0C00A8501C68A26812F0F3
:10400000040200D00122A06810F0080000D00120B6
:1040100002432FD01868826812F0010F40F0088226
:104020000A68CD68D0F8C040C2F3130624EA06043B
:1040300005F0180CB24D25FA0CF52A40C2F3130214
:104040002243C0F8C020C868AE4A904200F0B08059
:104050000A68002AC0F26B810020A6E792FAA2F259
:1040600032B1B2FA82F202F01F0201249440AAE7B0
:104070002022F8E70F688D681434780E800000F075
:1040800004002658C7F3045E4FF0070C0CFA0EFC30
:1040900026EA0C0C05FA0EF54CEA050525509A485F
:1040A000006800F07040B0F1805F0BD01C68E068E1
:1040B00010F0100F39D14869E468C4F38204640039
:1040C000A04006E048691C68E468C4F38204640008
:1040D000A0400D69042D36D01F680E68603757F870
:1040E000254004F0004406F0F8463043204347F8EA
:1040F000250018680E694C7E012C1ED015466030D4
:1041000050F8264024F000442C4340F826401D6817
:104110000C69087E012813D0286920F4F04004F0CF
:104120001F04A24002432A6174E74869E468A408B6
:1041300004F004046400A040CBE74FF00045DEE744
:104140004FF40062E8E71868026E02F0F8420C686B
:10415000B2EB846F1DD01868426E02F0F8420C6812
:10416000B2EB846F1AD01868826E02F0F8420C68C5
:10417000B2EB846F17D01868C26E02F0F8420C6878
:10418000B2EB846F7FF446AFC26E22F00042C2668B
:1041900040E7026E22F000420266DCE7426E22F047
:1041A00000424266DFE7826E22F000428266E2E76A
:1041B0001C680A68C2F31305002D34D1900E01303B
:1041C00000F01F0009288CBF00200120002861D0CA
:1041D000002D37D1900E0130800600F0F840002D00
:1041E0003CD1960E013606F01F070126BE40304333
:1041F000002D41D1920E013202F01F0202EB420269
:104200001205024388681434550EAD0005F004050C
:104210006659C2F304520727974026EA07069040E2
:104220003043605114E792FAA2F048B1B0FA80F03E
:10423000013000F01F0009288CBF00200120C5E7D5
:104240002020F5E792FAA2F030B1B0FA80F0013008
:10425000800600F0F840C2E72020F8E792FAA2F6C4
:1042600046B1B6FA86F6013606F01F06012707FAB0
:1042700006F6BCE72026F6E792FAA2F242B1B2FABD
:1042800082F2013202F01F0202EB42021205B8E78D
:104290002022F6E7CDB9900E0130800600F0F840FC
:1042A000FDB9960E013606F01F070126BE403043C9
:1042B00065BB920E013202F01F0202EB42021E3A6F
:1042C000120542F0007202439CE792FAA2F030B16C
:1042D000B0FA80F00130800600F0F840E0E72020DE
:1042E000F8E792FAA2F646B1B6FA86F6013606F07B
:1042F0001F06012707FA06F6D9E72026F6E700BFD2
:10430000FFFF0F000000FF470010005C92FAA2F2CE
:104310005AB1B2FA82F2013202F01F0202EB4202FB
:104320001E3A120542F00072CDE72022F3E7196829
:104330004248434CA14218BF81420CBF01200020DB
:1043400021D1404EB56805F0E077F0B13B48806878
:1043500010F0010000D00120394CA46814F00104D1
:1043600000D0012420430CBF01200020002859D098
:104370003548824212D03548824231D03448824298
:104380003FD0002011E6334EDCE73348806810F060
:10439000010000D0012080F00100E7E715F4000FD4
:1043A000E9D12D4A914201D00020FEE547F40002F8
:1043B000B16821F0E0710A43B260284A126892099C
:1043C0002749A1FB0212920901325200019202E038
:1043D000019A013A0192019A002AF9D10020E4E5FC
:1043E00015F0807FCAD11C4A914201D00020DCE543
:1043F00047F08072B16821F0E0710A43B26000209A
:10440000D3E515F4800F15D1134A914201D0002055
:10441000CBE547F48002B16821F0E0710A43B26055
:104420000020C2E55A6D42F020025A650120BCE529
:104430000020BAE50020B8E50220B9E500200240DE
:104440000021024000230240000084CB000052C73C
:104450000000B8CF00630258006002582400002416
:10446000632D3E0538B503689A6812F0010F56D1E6
:10447000044699682B4A114209D0436D43F010035A
:104480004365836D43F001038365012048E099682B
:10449000254A0A4042F001029A60FFF747FB0546B1
:1044A00023682249224A934218BF8B420DD102F55C
:1044B0000072926802F01F021D498B4207D0194614
:1044C000994207D032B100202AE01A4AF1E7A1F55B
:1044D0008071F5E723681A6812F0010F1DD19A6800
:1044E00012F0010F05D199680F4A0A4042F001020B
:1044F0009A60FFF71BFB401B0228EBD923681B685F
:1045000013F0010FE6D1636D43F010036365A36DF3
:1045100043F00103A365012002E0002000E0002039
:1045200038BD00BF3F000080C0FFFF7F0020024079
:10453000002102400063025838B5044603683E4932
:104540003E4A934218BF8B4252D102F500729568E1
:1045500005F01F059B6813F0040F69D194F85030E3
:10456000012B67D0012384F850302046FFF77AFFF3
:10457000002859D1626DA0F60273134043F4807392
:10458000636523682D4A934234D01A46934200D083
:104590001DB9626D22F480126265626D12F4805F53
:1045A0002BD0A26D22F00602A2651C221A60002305
:1045B00084F850302368214A934221D01A4693420E
:1045C00021D0052D14BF00210121E5B1D9B9092D54
:1045D00019D0636D43F480136365D36813F0007FD3
:1045E00027D0636D23F4405343F48053636520E088
:1045F000134AACE7A2F58072C8E70022A265D4E7AF
:10460000A2F58072DBE7DA6812F0007F05D0626DF8
:1046100022F4405242F4805262659968094A0A4085
:1046200042F004029A6004E0002384F8503000E075
:10463000022038BD0220FCE7002002400021024099
:1046400000630258C0FFFF7F38B5044603684F4936
:104650004F4A934218BF8B4223D14E4B9B6813F4B1
:10466000403F14BF012300234BB302F0DBFD05469E
:104670006368B3F5003F1CD0B3F5403F1DD0B3F5E0
:10468000803F16D0FFF76CFA41F20303984258D8E6
:10469000414B9D424FD92268936843F480739360E5
:1046A00038BD3E4B9B6813F4403F14BF01230023E9
:1046B000DAE71B0CB5FBF3F5E4E78508E2E74FF416
:1046C0000020002103F0A6FF05466368B3F5101F24
:1046D0002DD022D8B3F5E01F27D004D9B3F5001FA1
:1046E000D0D14509CEE7B3F5801F0DD006D9B3F57B
:1046F000A01F09D0B3F5C01F06D0C3E7B3F5002F44
:1047000002D0B3F5402F04D19B0C5B00B5FBF3F551
:10471000B8E7B3F5802FF7D0B4E7B3F5201F08D082
:10472000B3F5301FAED1050AACE70509AAE7850944
:10473000A8E7C509A6E72268936823F4807393600D
:10474000AEE7174B9D4205D82268936823F4407367
:104750009360A5E7134B9D4207D82268936823F422
:10476000407343F4807393609AE70F4B9D4207D8E0
:104770002268936823F4407343F4007393608FE7D7
:104780002268936843F44073936089E700200240F5
:104790000021024000230240002D31010063025835
:1047A00021BCBE0041787D0181F0FA0230B583B0B2
:1047B00000230193002800F010810446436DEBB103
:1047C00023689A6812F0005F03D09968844A0A400F
:1047D0009A6023689A6812F0805F1CD19968814AB8
:1047E0000A4042F080529A607F4B1B689B097F4AC7
:1047F000A2FB03239B090133019309E0FDF7EAFBC8
:104800000023A36584F85030DAE7019B013B019354
:10481000019B002BF9D12268936813F0805F40F070
:104820009C80636D43F010036365A36D43F0010347
:10483000A3650125936813F0040300D00123616D83
:1048400011F0100F40F0C180002B40F0BE80636D6E
:1048500023F4817343F002036365936813F0010F3F
:1048600021D16349634B9A4218BF8A420CBF01228F
:10487000002274D18B6813F0010300D001235D493D
:10488000896811F0010100D001210B430CBF012305
:10489000002343B1002A6BD0574963688A6822F429
:1048A0007C1213438B60FFF75BF941F203039842DC
:1048B00002D9A368102B5DD0627D236B43EA42339B
:1048C000A2681343227F43EA0243227F012A5CD07D
:1048D000626A22B102F47872A16A0A431343216822
:1048E000C868464A02401343CB6021688B6813F0C6
:1048F000040300D001238A6812F0080200D00122CC
:1049000013431BD1227DE36A43EA8232C8683C4BE1
:1049100003401343CB6094F83830012B3AD022681F
:10492000136923F0010313612268136923F07043B4
:10493000616B0B4313612046FFF786FEE368012B92
:104940003AD02268136B23F00F031363636D23F0D7
:10495000030343F0010363653CE000256AE7294B4C
:104960009B6813F0010300D0012383F0010390E75B
:10497000254992E7617D226B42EA41321343227F4F
:1049800043EA024343F00C039FE7226A013A43EAF9
:1049900042439DE7206802691C4B1340E26B511EA5
:1049A000226C42EA0142616C0A43A16C0A43134340
:1049B00043F001030361B7E721680B6B23F00F039A
:1049C000A269013A13430B63C0E7636D43F0100320
:1049D00063650125284603B030BD0125FAE700BF15
:1049E000C0FFFF5FC0FFFF6F24000024632D3E0562
:1049F00000200240002102400023024003C0F0FFDB
:104A0000FCBFFFFF00600258006302581EF800FC64
:104A100070477047704770477047000090F850200B
:104A2000012A00F0A18030B49AB00346012280F838
:104A3000502000221692179200684C4A904242D0B1
:104A400000220192019A002A41D0926812F00402D9
:104A500000D00122846814F0040F76D1002A74D1AA
:104A6000424C434A904218BFA04239D102F500722D
:104A7000086800283FD0906820F440404C682043EC
:104A800090601868394D3A4CA04218BFA84229D10D
:104A9000A86810F0010000D00120354CA46814F083
:104AA000010400D0012420430CBF01200020002875
:104AB00056D094682F4820400C68896821430843E9
:104AC0009060002046E002F580720192BAE75A6DCC
:104AD00042F020025A65002283F8502001203CE079
:104AE000254AC5E72548806810F0010000D0012064
:104AF00080F00100DBE7916821F440419160196882
:104B00001A4C1B48814218BFA14215D1A16811F06F
:104B1000010100D001211648806810F0010000D08A
:104B2000012001430CBF01210021D9B19068114936
:104B30000140916000200DE01049896811F00101E9
:104B400000D0012181F00101EFE75A6D42F020020F
:104B50005A650120002283F850201AB030BC7047FB
:104B60000020F7E70020F5E7022070470020024010
:104B700000210240E0F0FFFF00630258006002588D
:104B80000649CB6823F4E0631B041B0C000200F40D
:104B9000E0600343024A1A43CA60704700ED00E038
:104BA0000000FA0500B5174BDB68C3F30223C3F11D
:104BB000070CBCF1040F28BF4FF0040C03F1040EE6
:104BC000BEF1060F14D9033B4FF0FF3E0EFA0CFC6A
:104BD00021EA0C0199400EFA03F322EA0303194378
:104BE000002807DB0901C9B2074B19545DF804FB23
:104BF0000023E9E700F00F000901C9B2034B195483
:104C0000F4E700BF00ED00E000E400E014ED00E098
:104C1000002807DB00F01F02400901239340024AED
:104C200042F82030704700BF00E100E00138B0F1E9
:104C3000807F0BD24FF0E0235861054AF02182F8C3
:104C400023100020986107221A61704701207047E5
:104C500000ED00E0BFF35F8F044B5A6A22F480320C
:104C60005A620022C3F89420704700BF00ED00E0B4
:104C700040F00100054BC3F894005A6A42F48032B8
:104C80005A62BFF34F8FBFF36F8F704700ED00E0A4
:104C90004278164BC3F898200378FBB14368134A57
:104CA000C2F89C30017BC37A1B0643EA0173817A08
:104CB00043EAC143417B43EA8143817B43EA414369
:104CC000C17B43EA0143417A43EA0123017A43EA83
:104CD000410301780B43C2F8A0307047034B002218
:104CE000C3F89C20C3F8A020704700BF00ED00E08F
:104CF000F0B4876D0468664E664DAC4218BFB4428E
:104D000042D01835AC423FD01835AC423CD01835B3
:104D1000AC4239D01835AC4236D01835AC4233D01D
:104D20001835AC4230D005F55675AC422CD018354C
:104D3000AC4229D01835AC4226D01835AC4223D02D
:104D40001835AC4220D01835AC421DD01835AC42D5
:104D50001AD01835AC4217D04F4DAC4214D0143590
:104D6000AC4211D01435AC420ED01435AC420BD04D
:104D70001435AC4208D01435AC4205D01435AC42E1
:104D800002D01435AC4207D1446E856E6560C46EA6
:104D900014B1046F456F656004683D4E3D4DAC42F3
:104DA00018BFB44252D01835AC424FD01835AC427F
:104DB0004CD01835AC4249D01835AC4246D01835E5
:104DC000AC4243D01835AC4240D005F55675AC42E4
:104DD0003CD01835AC4239D01835AC4236D01835F5
:104DE000AC4233D01835AC4230D01835AC422DD05F
:104DF0001835AC422AD01835AC4227D0264E274D64
:104E0000AC4218BFB44211D0254DAC420ED014357F
:104E1000AC420BD01435AC4208D01435AC4205D0AE
:104E20001435AC4202D01435AC4224D1C46D04F028
:104E30001F050124AC407C60046863608368402BDC
:104E400020D0036899600368DA6014E0C46D04F050
:104E50001F0C3F2404FA0CF4BC6005682C6824F491
:104E600080242C60046863608368402B05D003684D
:104E700099600368DA60F0BC704703689A60036861
:104E8000D960F8E703689A600368D960F3E700BF68
:104E90001000024028000240085402581C540258D6
:104EA0003054025803682749274A934218BF8B425F
:104EB0002FD0183293422CD01832934229D0183276
:104EC000934226D01832934223D01832934220D0F6
:104ED000183293421DD002F55672934219D01832FF
:104EE000934216D01832934213D01832934210D006
:104EF000183293420DD0183293420AD0183293429E
:104F000007D01832934204D023F0FF038365806DED
:104F1000704710B4D9B210390C4AA2FB0142C2F357
:104F200002120B4CA25CC2655F2906D9094A1A40DD
:104F300004328265806D10BC7047064A1A40826553
:104F4000F8E700BF1000024028000240ABAAAAAA5E
:104F50005434010800FCFFFF83699BB9836A012B6D
:104F60000AD0022B02D00BB100207047C36A13F0A5
:104F7000807F2AD100207047C36AB3F1C07F26D05A
:104F800000207047B3F5005F0AD0836A022B26D950
:104F9000032B26D1C36A13F0807F24D100207047F1
:104FA000836A032B03D8DFE803F01404140A0020FB
:104FB0007047C36A13F0807F0DD100207047C36A29
:104FC000B3F1C07F09D00020704701207047012055
:104FD0007047012070470120704701207047012071
:104FE0007047002070470120704700000368224985
:104FF000224A934218BF8B4228D01432934225D0C4
:105000001432934222D0143293421FD0143293426E
:105010001CD01432934219D01432934216D0DAB213
:10502000103A1749A1FB0212120916491944A8297E
:105030001FD9154B13449B000366144B436602F0C3
:105040001F02012303FA02F282667047DBB2083BBB
:105050000F4AA2FB03230F4A02EB131292000266CF
:105060000D4A4266C3F30413012202FA03F3836676
:1050700070470832DDE700BF085402581C5402583C
:10508000ABAAAAAAF0FBFDBF008200108008024074
:10509000CDCCCCCC009600168058025801794A1E1F
:1050A000072A2CD830B40368154D164CA34218BFFC
:1050B000AB4218D01434A34215D01434A34212D0FA
:1050C0001434A3420FD01434A3420CD01434A3429E
:1050D00009D01434A34206D00B4B0B449B00C3668B
:1050E0000A4B036705E00A4B0B449B00C366094B60
:1050F0000367012303FA02F2426730BC704770472E
:10510000085402581C5402583F82001040090240C3
:105110003F9600164059025870B50446FEF706FD4A
:10512000002C00F0B681054623685349534A934248
:1051300018BF8B420CBF0122002250D030318B426D
:105140004DD018318B424AD018318B4247D018319C
:105150008B4244D018318B4241D018318B423ED023
:1051600001F556718B423AD018318B4237D0183145
:105170008B4234D018318B4231D018318B422ED033
:1051800018318B422BD018318B4228D018318B42EA
:1051900025D03B493B4A934218BF8B4200F03181F6
:1051A000394A934200F02D811432934200F0298154
:1051B0001432934200F025811432934200F0218191
:1051C0001432934200F01D811432934200F0198191
:1051D00040236365032384F8353001204AE002212F
:1051E00084F83510002184F834107ABB274A9342A2
:1051F0002CD01832934229D01832934226D018323C
:10520000934223D01832934220D0183293421DD0BB
:1052100002F55672934219D01832934216D01832C2
:10522000934213D01832934210D0183293420DD0CB
:10523000183293420AD01832934207D01832934260
:1052400004D01A6822F001021A6003E01A6822F002
:1052500001021A6023681A6812F0010F18D0FEF7D5
:1052600065FC431B052BF5D920236365032384F8D4
:105270003530012070BD00BF100002402800024000
:10528000085402581C54025830540258400002403E
:105290001A6881481040A168E2680A4321690A43FC
:1052A00061690A43A1690A43E1690A43216A0A4321
:1052B0000243616A042900F09980784908687849B6
:1052C0000140B1F1005F11D36168A1F12905A1F19D
:1052D0003F00032888BF052D06D9A1F1470001280A
:1052E00002D94F39032901D842F480121A60266886
:1052F000756925F00705636A1D43042B08D1A36A6D
:105300001D43E36A23B12046FFF726FE002872D131
:1053100075612046FFF7C6FDE36D03F01F023F23D2
:105320009340836023685F495F4A934218BF8B4272
:1053300042D0183293423FD0183293423CD01832B8
:10534000934239D01832934236D01832934233D038
:105350001832934230D002F5567293422CD0183254
:10536000934229D01832934226D01832934223D048
:105370001832934220D0183293421DD018329342F3
:105380001AD01832934217D0484A934214D014329C
:10539000934211D0143293420ED0143293420BD068
:1053A0001432934208D01432934205D014329342FF
:1053B00002D01432934213D12046FFF717FEA368A0
:1053C000802B59D0236E22791A60636EA26E5A60C8
:1053D0006368013B072B52D90023E36623676367A9
:1053E00000206065012384F8353043E7E16A206BD3
:1053F00001430A4361E740236365012084F83500D7
:1054000038E7022284F83520002284F834201A6814
:1054100027491140A268402A2CD0802A27D0002298
:10542000E06842EAD002206942EAD002606942EABA
:10543000D002A06942EAD002E06942EAD002206AC2
:1054400042EA10120A431A6022681A4B13441A4A9D
:10545000A2FB03231B099B00E3652046FFF722FD07
:10546000E26D02F01F0101228A4042605AE74FF4C8
:105470008042D5E71022D3E700236360A2E72046ED
:10548000FFF70CFEE36E00221A60236F626F5A6012
:10549000A6E70120EEE600BF3F8010FE0010005C92
:1054A0000000FFFF1000024028000240085402588C
:1054B0000F00FEFFF8ABFDA7CDCCCCCC002800F050
:1054C0003E8170B5044690F83400012800F039811F
:1054D000012084F8340094F83500C0B2012807D0C8
:1054E0004FF400636365002384F83430012070BDFD
:1054F000022084F83500002060652068924E934DAC
:10550000A84218BFB0422FD01835A8422CD0183569
:10551000A84229D01835A84226D01835A84223D051
:105520001835A84220D01835A8421DD005F556756B
:10553000A84219D01835A84216D01835A84213D061
:105540001835A84210D01835A8420DD01835A842F9
:105550000AD01835A84207D01835A84204D00568EB
:1055600025F00105056003E0056825F001050560EB
:105570002046FFF7BDFB23687349744A934218BF66
:105580008B4238D01832934235D01832934232D001
:10559000183293422FD0183293422CD018329342B3
:1055A00029D01832934226D002F55672934222D067
:1055B000183293421FD0183293421CD018329342B3
:1055C00019D01832934216D01832934213D01832A1
:1055D000934210D0183293420DD01A6822F00E0276
:1055E00042F00A021A60236C93B12268136843F0F8
:1055F000040313600CE01A6822F01E0242F0160247
:105600001A60236C23B12268136843F00803136007
:1056100023684D494D4A934218BF8B4242D01832FD
:1056200093423FD0183293423CD01832934239D043
:105630001832934236D01832934233D01832934204
:1056400030D002F5567293422CD01832934229D0B2
:105650001832934226D01832934223D01832934204
:1056600020D0183293421DD0183293421AD01832EB
:10567000934217D0364A934214D01432934211D039
:10568000143293420ED0143293420BD01432934210
:1056900008D01432934205D01432934202D014320F
:1056A00093420ED1236E1A6812F4803F03D01A6819
:1056B00042F480721A60E36E1BB11A6842F4807281
:1056C0001A6023682049214A934218BF8B4230D088
:1056D000183293422DD0183293422AD01832934276
:1056E00027D01832934224D01832934221D0183256
:1056F00093421ED002F5567293421AD0183293424A
:1057000017D01832934214D01832934211D0183265
:1057100093420ED0183293420BD01832934208D0E5
:105720001832934205D01A6842F001021A60002034
:10573000DDE61A6842F001021A600020D7E6012077
:1057400070470220D3E600BF10000240280002404C
:105750000854025870B50446FEF7E8F9002C00F032
:105760009181054694F83530DBB2022B06D08023B8
:105770006365002384F83430012070BD23688C49B0
:105780008C4A934218BF8B4230D0183293422DD0AE
:10579000183293422AD01832934227D018329342BB
:1057A00024D01832934221D0183293421ED002F5F1
:1057B000567293421AD01832934217D0183293423D
:1057C00014D01832934211D0183293420ED01832AE
:1057D00093420BD01832934208D01832934205D02E
:1057E0001A6822F00E021A60266809E01A6822F090
:1057F0001E021A602268536923F0800353612668F1
:1058000023686B496B4A934218BF8B4242D01832CF
:1058100093423FD0183293423CD01832934239D051
:105820001832934236D01832934233D01832934212
:1058300030D002F5567293422CD01832934229D0C0
:105840001832934226D01832934223D01832934212
:1058500020D0183293421DD0183293421AD01832F9
:10586000934217D0544A934214D01432934211D029
:10587000143293420ED0143293420BD0143293421E
:1058800008D01432934205D01432934202D014321D
:10589000934204D1226E136823F48073136023684B
:1058A0004349444A934218BF8B422FD01832934247
:1058B0002CD01832934229D01832934226D0183275
:1058C000934223D01832934220D0183293421DD0F5
:1058D00002F55672934219D01832934216D01832FC
:1058E000934213D01832934210D0183293420DD005
:1058F000183293420AD01832934207D0183293429A
:1059000004D01A6822F001021A6003E01A6822F03B
:1059100001021A60336813F0010F0ED0FEF706F98A
:10592000431B052BF6D920236365032384F8353008
:10593000002384F8343001201FE723681C491D4AE6
:10594000934218BF8B4239D01832934236D0183266
:10595000934233D01832934230D0183293422DD034
:10596000183293422AD01832934227D002F5567249
:10597000934223D01832934220D0183293421DD044
:10598000183293421AD01832934217D018329342E9
:1059900014D01832934211D0183293420ED0A16D18
:1059A000E36D03F01F02012393404B600DE000BF45
:1059B000100002402800024008540258A16DE36D17
:1059C00003F01F023F2393408B6023682E492F4A28
:1059D000934218BF8B4242D0183293423FD01832C4
:1059E00093423CD01832934239D01832934236D089
:1059F0001832934233D01832934230D002F55672A7
:105A000093422CD01832934229D01832934226D098
:105A10001832934223D01832934220D01832934246
:105A20001DD0183293421AD01832934217D0184A18
:105A3000934214D01432934211D0143293420ED0B8
:105A4000143293420BD01432934208D01432934252
:105A500005D01432934202D0143293420BD1636EBC
:105A6000A26E5A60E36E33B11A6822F480721A6033
:105A7000236F626F5A60012384F83530002084F868
:105A800034007AE6012078E6100002402800024047
:105A900008540258002800F0298108B5024690F801
:105AA0003530DBB2022B03D080234365012008BDD3
:105AB0000368904890498B4218BF83420CBF012174
:105AC000002166D03030834263D01830834260D0EA
:105AD000183083425DD0183083425AD01830834248
:105AE00057D01830834254D000F55670834250D0BE
:105AF000183083424DD0183083424AD01830834248
