:020000040800F2
:1000000038230024B102000895830008A57D00086C
:100010009183000821060008819A00080000000072
:10002000000000000000000000000000A986000899
:10003000A10B00080000000099830008AB860008AF
:10004000CB020008CB020008CB020008CB0200085C
:10005000CB020008CB020008CB020008CB0200084C
:10006000CB020008CB020008CB02000825060008DE
:10007000CB020008CB020008CB020008CB0200082C
:10008000CB020008CB02000811060008CB020008D2
:10009000CB020008CB020008CB020008CB0200080C
:1000A000CB020008CB020008FD880008ED8800089C
:1000B000CB0200080D890008CB020008CB02000823
:1000C000CB020008CB020008CB020008CB020008DC
:1000D000CB020008719A0008CB020008CB0200088E
:1000E000CB020008CB020008000000001D890008B8
:1000F000CB020008CB020008CB020008CB020008AC
:10010000CB020008CB020008CB020008CB0200089B
:10011000CB020008CB020008CB020008CB0200088B
:10012000CB020008CB020008CB020008CB0200087B
:10013000CB020008CB020008CB020008CB0200086B
:1001400000000000000000000000000000000000AF
:10015000CB020008CB020008CB020008CB0200084B
:10016000CB020008CB020008CB020008CB0200083B
:10017000CB020008CB020008CB020008CB0200082B
:10018000CB020008CB020008CB020008CB0200081B
:10019000CB020008CB020008CB020008CB0200080B
:1001A000CB020008CB020008CB020008CB020008FB
:1001B000CB020008CB020008CB020008CB020008EB
:1001C000CB020008CB020008CB020008CB020008DB
:1001D000CB020008CB020008CB020008CB020008CB
:1001E000CB020008CB020008CB020008CB020008BB
:1001F000CB020008CB020008CB020008CB020008AB
:10020000CB020008CB020008CB020008CB0200089A
:10021000CB020008CB020008CB020008CB0200088A
:10022000CB020008CB020008CB020008000000004F
:10023000CB020008CB02000800000000CB0200083F
:10024000CB020008CB020008CB020008CB0200085A
:10025000CB020008CB020008CB020008CB0200084A
:10026000CB020008CB020008CB020008CB0200083A
:10027000CB020008CB020008CB02000800000000FF
:10028000CB020008CB020008CB02000800000000EF
:1002900000000000CB020008DFF810D000F08EF85C
:1002A00000480047DD9A0008AFF30080382300249F
:1002B0000648804706480047FEE7FEE7FEE7FEE700
:1002C000FEE7FEE7FEE7FEE7FEE7FEE7F187000850
:1002D000990200082DE9F05F0546002092469B46F2
:1002E00088460646814640241BE02846414647464C
:1002F000224600F053F853465A46C01A914110D393
:1003000011461846224600F03AF82D1A67EB01080C
:100310004F4622460120002100F031F817EB00097A
:100320004E41201EA4F10104DFDC484631462A4636
:100330004346BDE8F09F40EA01039B0703D009E074
:1003400008C9121F08C0042AFAD203E011F8013BC1
:1003500000F8013B521EF9D27047D2B201E000F81A
:10036000012B491EFBD270470022F6E710B5134659
:100370000A4604461946FFF7F0FF204610BD202A22
:1003800004DB203A00FA02F1002070479140C2F1EC
:10039000200320FA03F3194390407047202A04DB1E
:1003A000203A21FA02F00021704721FA02F3D040EE
:1003B000C2F120029140084319467047064C074D90
:1003C00006E0E06840F0010394E807009847103425
:1003D000AC42F6D3FFF764FFA09D0008C09D000863
:1003E00070B504464F492068884203D04E492068C2
:1003F000884208D14D48006800F4403008B101201F
:1004000009E0002007E04A48006800F4403008B1E5
:10041000012000E00020B8B105F06AFC05466068E4
:10042000B0F5803F06D0B0F5003F04D0B0F5403FB6
:1004300008D105E000BF6068000CB5FBF0F502E0F4
:10044000AD0800E000BF2BE04FF40020002103F0D6
:10045000B3FF05466068C0F31101F9B980140C2898
:100460001CD2DFE800F01B060708090A0B11131560
:10047000171900BF00BF00BF00BF00BF6068800C3D
:100480004000B5FBF0F50AE02D0908E06D0906E033
:10049000AD0904E0ED0902E02D0A00E000BF00BF55
:1004A00003F0B0FA41F20301884210D82148854296
:1004B00006D92068806840F48070216888602FE049
:1004C0002068806820F480702168886028E06D08CA
:1004D0001948854206D82068806820F44070216859
:1004E00088601DE01548854208D82068806820F49F
:1004F000407040F480702168886011E010488542A7
:1005000008D82068806820F4407040F400702168AA
:10051000886005E02068806840F440702168886049
:1005200070BD00000020024000210240082302406C
:1005300008630258002D3101105E5F0020BCBE0030
:1005400040787D0170B50446206807F044FC00281F
:1005500051D1206880682949084048B1606D40F059
:1005600010006065A06D40F00100A065012070BD25
:10057000206807F019FC03F04BFA0546204A216871
:10058000914203D01F4A2168914201D11E4900E0E7
:100590001E49084607F015FC06461A49206888429D
:1005A00001D1174800E020682168884200D00EBBC6
:1005B0001AE0206807F00FFC10B9206807F0F4FB80
:1005C00003F026FA401B02280ED92068006800F0CC
:1005D000010048B9606D40F010006065A06D40F00A
:1005E0000100A0650120C2E72068006800F001005A
:1005F0000028DED000BF0020B9E700003F000080E7
:100600000020024000210240002302400063025803
:1006100010B5024800F028FE10BD00003C10002478
:1006200000BFFEE710B5024801F0ECFE10BD00006F
:10063000BC1E00240146374A0868904249D0354A1A
:1006400018320868904244D0324A303208689042EA
:100650003FD0304A4832086890423AD02D4A603242
:100660000868904235D02B4A78320868904230D0E2
:10067000284A9032086890422BD0264AA83208684F
:10068000904226D0244A0868904222D0224A18324A
:10069000086890421DD0204A30320868904218D035
:1006A0001D4A48320868904213D01B4A60320868DD
:1006B00090420ED0184A78320868904209D0164A03
:1006C00090320868904204D0134AA83208689042D9
:1006D00001D1012000E00020B0B10A78103A1823BF
:1006E000B2FBF3F000F007020C4B9A5CCA650328DA
:1006F00005D90A686FF30902121D8A6503E00A68CA
:100700006FF309028A6503E0086820F0FF0088653E
:10071000886D70471000024010040240609D000880
:1007200010B502682B4C0368A34222D0294C143424
:100730000368A3421DD0274C28340368A34218D075
:10074000244C3C340368A34213D0224C5034036839
:10075000A3420ED01F4C64340368A34209D01D4C41
:1007600078340368A34204D01A4C8C340368A34243
:1007700001D1012300E000238BB10378083B14244E
:10078000B3FBF4F1144B03EB81030366124B80338C
:10079000436601F01F040123A340836618E0037839
:1007A000103B1824B3FBF4F10C4B9A4204D80B4BCA
:1007B000A83B9A4200D30831094B03EB810303663F
:1007C000074B8033436601F01F040123A340836677
:1007D00010BD00000854025800580258B8040240E6
:1007E000000802400179A9B3082940D8204B0268CB
:1007F0009A4222D01E4B143302689A421DD01C4BE1
:10080000283302689A4218D0194B3C3302689A4246
:1008100013D0174B503302689A420ED0144B6433F6
:1008200002689A4209D0124B783302689A4204D087
:100830000F4B8C3302689A4201D1012200E0002262
:100840004AB14A1E0B4B03EB8202C266094A403290
:10085000026708E00BE04A1E074B03EB8202C26608
:10086000054A403202674A1E01239340436770479E
:10087000085402580059025800090240014600205D
:100880008A69D2B98A6A32B1012A0DD0022A03D00C
:10089000032A10D10EE000BFCA6A02F08072B2F1E2
:1008A000807F00D1012007E0CA6AB2F1C07F00D189
:1008B000012001E000E000BF36E08A69B2F5005F88
:1008C0001BD18A6A32B1012A07D0022A03D0032A37
:1008D00011D10AE000BF01200EE0CA6A02F0807266
:1008E000B2F1807F00D1012006E0CA6AB2F1C07F78
:1008F00000D1012000E000BF16E08A6A32B1012A6F
:1009000005D0022A04D0032A0CD103E000BF00BFA7
:10091000012008E0CA6A02F08072B2F1807F00D143
:10092000012000E000BF00BF70470000F0B5856DFA
:10093000846D984F0668BE4270D0964F183706688F
:10094000BE426BD0934F30370668BE4266D0914F9F
:1009500048370668BE4261D08E4F60370668BE4297
:100960005CD08C4F78370668BE4257D0894F90379D
:100970000668BE4252D0874FA8370668BE424DD0A7
:10098000854F0668BE4249D0834F18370668BE427D
:1009900044D0814F30370668BE423FD07E4F483743
:1009A0000668BE423AD07C4F60370668BE4235D0FA
:1009B000794F78370668BE4230D0774F9037066857
:1009C000BE422BD0744FA8370668BE4226D0734F64
:1009D0000668BE4222D0714F14370668BE421DD051
:1009E0006E4F28370668BE4218D06C4F3C370668F9
:1009F000BE4213D0694F50370668BE420ED0674FD3
:100A000064370668BE4209D0644F78370668BE4234
:100A100004D0624F8C370668BE4201D1012600E047
:100A200000263EB1D0E919767E60C66E16B1D0E9D7
:100A30001C767E60574F0668BE4249D0554F183726
:100A40000668BE4244D0534F30370668BE423FD09E
:100A5000504F48370668BE423AD04E4F603706685E
:100A6000BE4235D04B4F78370668BE4230D0494F32
:100A700090370668BE422BD0464FA8370668BE4264
:100A800026D0454F0668BE4222D0434F183706682D
:100A9000BE421DD0404F30370668BE4218D03E4F90
:100AA00048370668BE4213D03B4F60370668BE42E7
:100AB0000ED0394F78370668BE4209D0364F90378E
:100AC0000668BE4204D0344FA8370668BE4201D142
:100AD000012600E00026DEB190F85C6006F01F07FA
:100AE0003F26BE40AE600668366826F4802607685A
:100AF0003E60066873608668402E04D10668B26066
:100B00000668F16044E00668B1600668F2603FE0A4
:100B1000224F0668BE4222D0204F14370668BE42DC
:100B20001DD01E4F28370668BE4218D01B4F3C37D9
:100B30000668BE4213D0194F50370668BE420ED029
:100B4000164F64370668BE4209D0144F78370668DE
:100B5000BE4204D0114F8C370668BE4201D1012637
:100B600000E00026A6B190F85C6006F01F070126A1
:100B7000BE406660066873608668402E04D10668D1
:100B8000B2600668F16003E00668B1600668F26072
:100B9000F0BD00001000024010040240085402584A
:100BA000704772B600BFFEE77047704770477047E6
:100BB000704700002DE9F04399B004460E464FF00F
:100BC0000008306800B100BF00BF94F85000012851
:100BD00003D1022019B0BDE8F083012084F8500051
:100BE00000BF00201590169046492068884202D127
:100BF0004548009001E000200090009850B9606DD9
:100C000040F02000606500BF002084F8500000BF65
:100C10000120DFE7009807F0F2F80746206807F0A8
:100C2000EEF8002861D1002F5FD136492068884254
:100C300003D035492068884201D1344800E0344867
:100C40000546306858B3A86820F4404071680843EE
:100C5000A8602C492068884203D02B49206888422C
:100C600001D12A4800E02A482849884209D125486C
:100C700007F0B6F88146244807F0B2F849EA0000C8
:100C800002E0244807F0ACF870BBB1683068084354
:100C9000A96840F61F7291430843A8602BE0A8683A
:100CA00020F44040A86017492068884203D01649C4
:100CB0002068884201D1154800E015481349884250
:100CC00009D1104807F08CF881460F4807F088F8E2
:100CD00049EA000002E00F4807F082F820B9A8684E
:100CE00040F61F718843A86005E0606D40F0200069
:100CF00060654FF0010800BF002084F8500000BF7D
:100D0000404667E7002002400021024000230240E5
:100D100000630258006002582DE9F84F04460D4662
:100D20004FF0000A0020009094F83800012800D10C
:100D300000E000BFF849E868884200D00EE0F749BB
:100D40002068884200D100BFF5492068884200D160
:100D500000BFF4492068884200D100BF00BF94F86A
:100D60005000012802D10220BDE8F88F012084F84C
:100D7000500000BF206807F03DF800287ED12068B1
:100D8000C1692868C0F3130018B92868C0F38460EB
:100D900004E0286890FAA0F0B0FA80F000F01F029A
:100DA0000120904001432068C1612168D5E90020FD
:100DB00001F1300CC0F3012B0CEB8B03D3F800C016
:100DC00000F01F0E4FF01F0B0BFA0EFB2CEA0B0C62
:100DD00000F01F0BC2F3846E0EFA0BFE4CEA0E0CF1
:100DE000C3F800C000BF206807F004F881462068FF
:100DF00006F0ECFF8046B9F1000F6FD1B8F1000F9B
:100E0000FBD1AA682968206807F010F8C648006876
:100E100000F07040B0F1805F07D168692168C9684F
:100E2000C1F382014900884014E02068C06800F0E6
:100E3000100038B968692168C968C1F382014900A6
:100E4000884007E068692168C96801F010018908D5
:100E50004900884007462869042840D020682A684D
:100E6000296900F1600C0CEB8103D3F800C00CF091
:100E7000004C02F0F84B4BEA070B00E0CCE14CEAE7
:100E80000B0CC3F800C000BF20686A7E2969012AE4
:100E900001D1D20700E00022134600F1600C0CEBF8
:100EA0008102D2F800C02CF0004C4CEA030CC2F8CE
:100EB00000C000BF20682B7E2969012B01D1DB0215
:100EC00000E000231A46036923F4F04301F01F0CED
:100ED00002FA0CFC43EA0C03036100BF37E0206810
:100EE000006E00F0F8402978B0EB816F05D12068E2
:100EF000006E20F00040216808662068406E00F017
:100F0000F8402978B0EB816F05D12068406E20F061
:100F10000040216848662068806E00F0F84029781B
:100F2000B0EB816F05D12068806E20F00040216811
:100F300088662068C06E00F0F8402978B0EB816FB9
:100F400005D12068C06E20F000402168C866206886
:100F500006F041FF002872D12068EA682968D0F8BD
:100F6000C030C1F3130C23EA0C0302F0180BDFF8B6
:100F7000BCC12CFA0BFC0CEA010C43EA0C03C0F8D0
:100F8000C03000BF6449E86888427DD12B68C3F354
:100F900013031BB92B68C3F3846304E02B6893FA33
:100FA000A3F3B3FA83F35B1C03F01F03092B3ED8B2
:100FB0002B68C3F313031BB92B68C3F3846304E0EA
:100FC0002B6893FAA3F3B3FA83F35B1C03F01F03BC
:100FD0004FF0010C0CFA03FC2B68C3F313031BB98D
:100FE0002B68C3F3846304E02B6893FAA3F3B3FA8A
:100FF00083F35B1C03F01F034CEA836C2B68C3F381
:1010000013031BB92B68C3F3846304E02B6893FAC2
:10101000A3F3B3FA83F35B1C03F01F0303EB430357
:101020004FF0000B4BEA03534CEA030341E02B68FB
:10103000C3F3130323B92B68C3F3846305E0A9E06A
:101040002B6893FAA3F3B3FA83F35B1C03F01F033B
:101050004FF0010C0CFA03FC2B68C3F313031BB90C
:101060002B68C3F3846304E02B6893FAA3F3B3FA09
:1010700083F35B1C03F01F034CEA836C2B68C3F300
:1010800013032BB92B6800E018E0C3F3846304E07A
:101090002B6893FAA3F3B3FA83F35B1C03F01F03EB
:1010A0000A3B03EB43034FF0007B4BEA03534CEA4C
:1010B00003031946AA68206806F0B8FE286800F005
:1010C0000040002866D0154A2168914203D0144A96
:1010D0002168914201D1164900E01649084681680D
:1010E00001F0E07600BF0D492068884203D00C492A
:1010F0002068884201D10E4800E00E480C49884221
:101100001AD1064806F067FE8346054806F063FEDE
:101110004BEA000013E000000000FF4700200240FF
:1011200000210240006002580010005CFFFF0F0029
:1011300000230240006302583E4806F04CFEE8BB24
:101140003D492868884226D106F4000018BB394979
:101150002068884266D1394B22689A4203D0384BC6
:1011600022689A4201D1374A00E0374A104646F4D5
:10117000000106F06FFE354800683549B0FBF1F01C
:10118000401C4000009002E00098401E0090009833
:101190000028F9D146E02F492868884219D106F085
:1011A0008070B0B92349206888423BD1234B226824
:1011B0009A4205D0224B22689A4200E025E001D1F4
:1011C000204A00E0204A104646F0807106F042FEB8
:1011D00028E021492868884224D106F4800008BB11
:1011E0001449206888421DD1144B22689A4203D0CA
:1011F000134B22689A4201D1124A00E0124A10466B
:1012000046F4800106F026FE0CE0606D40F0200000
:1012100060654FF0010A05E0606D40F020006065F8
:101220004FF0010A00BF002084F8500000BF504674
:101230009AE5000000600258000084CB00200240C4
:1012400000210240002302400063025824000024D1
:10125000400D0300000052C70000B8CF7047704730
:1012600001460868006C70472DE9F84F04460020DD
:1012700000902068056820684668CD4A2168914240
:1012800003D0CC4A2168914201D1CB4900E0CB493F
:10129000084606F096FD074605F00200022811D127
:1012A00006F0020002280DD1606D00F0100018B9A0
:1012B000606D40F4006060652046FFF775FC022019
:1012C0002168086005F00400042803D106F004003A
:1012D000042807D005F0080008285DD106F00800B2
:1012E000082859D1606D00F0100018B9606D40F405
:1012F00000706065206806F087FD002846D0AD4983
:101300002068884201D1AA4800E02068216888420C
:1013100004D01FB1052F01D0092F03D12068D0F8C8
:101320000C8009E0A3492068884201D1A04800E070
:1013300020688346DBF80C8008F40050B0F5005FAD
:1013400024D02068006800F0080008281ED120681A
:1013500006F050FD90B92068406820F00C0021682C
:101360004860606D20F480706065606D00F48050AE
:1013700060B9606D40F00100606507E0606D40F0AD
:1013800010006065A06D40F00100A0652046FFF7E9
:1013900065FF0C202168086005F02000202803D19B
:1013A00006F02000202807D005F04000402870D12A
:1013B00006F0400040286CD1606D00F0100018B9B4
:1013C000606D40F4005060652068C16C01F4C0712C
:1013D00009B9012100E000218A4600BF206806F01B
:1013E00013FD814673492068884201D1704800E0AE
:1013F00020682168884204D01FB1062F01D0072F32
:1014000003D12068D0F80C8009E06A49206888423E
:1014100001D1674800E020688346DBF80C80BAF110
:10142000000F30D008F0007028B1B9F1000F2AD0B9
:1014300008F4005038BB2068006800F040004028E5
:1014400021D108F40010F0B9206806F0BFFC90B973
:101450002068406820F0600021684860606D20F4DA
:1014600080506065606D00F4807060B9606D40F020
:101470000100606507E0606D40F010006065A06DE0
:1014800040F00100A0652046FFF78FFB6020216837
:10149000086005F0800080280DD106F080008028CB
:1014A00009D1606D40F480306065204600F0CEF9CF
:1014B00080202168086005F48070B0F5807F0FD12E
:1014C00006F48070B0F5807F0AD1606D40F4003082
:1014D00060652046FFF76BFB4FF480702168086061
:1014E00005F40070B0F5007F0FD106F40070B0F580
:1014F000007F0AD1606D40F4802060652046FFF7D0
:1015000057FB4FF400702168086005F010001028A8
:1015100033D106F0100010282FD1206B10B9012014
:10152000009019E08FB1224A2168914203D0214AEC
:101530002168914201D1204900E02049084606F087
:101540003BFC48B10120009006E02068C06800F034
:10155000030008B101200090009801280AD1606DB5
:1015600040F480606065A06D40F00200A0652046F8
:10157000FFF775FE10202168086005F48060B0F563
:10158000806F13D106F48060B0F5806F0ED1606D6E
:1015900040F480406065A06D40F00800A0654FF405
:1015A0008060216808602046FFF700FBBDE8F88FE7
:1015B0000020024000210240002302400063025844
:1015C0002DE9F84F04464FF000090020009014B9AF
:1015D0000120BDE8F88FE06818B1207F012800D114
:1015E00000BF606D30B9204600F032F90020A065E0
:1015F00084F8500020688168C1F3407131B12068DF
:101600008168874A1140816000BF00BF206806F0F2
:10161000ECFBA8B920688168824A114041F08051F2
:10162000816000BF804800688049B0FBF1F0401C39
:10163000009002E00098401E009000980028F9D128
:10164000206806F0D2FB48B9606D40F0100060657C
:10165000A06D40F00100A0654FF00109206806F080
:10166000C9FB0646606D00F0100000287ED1002EF8
:10167000FCD1606D20F4807040F00200606520684D
:1016800006F0A9FB78BB6A492068884203D0694903
:101690002068884201D1684800E06848664988426D
:1016A00009D1634806F097FB8246624806F093FB37
:1016B0004AEA000002E0624806F08DFB98B95C4BF4
:1016C00022689A4203D05B4B22689A4201D15A4A5F
:1016D00000E05A4A10466168826822F47C120A438C
:1016E000826000BF00BF02F08DF941F20301884221
:1016F0000ED9A06810280BD1607D216B41EA4030E3
:10170000A168084340F00C01207F41EA004508E051
:10171000607D216B41EA4030A1680843217F40EAA7
:101720000145207F012803D1208C401E45EA404519
:10173000606A28B1A08C00F47870A16A0843054360
:101740002068C0683F49084028432168C860206875
:1017500006F050FB8046206806F038FB0746B8F1DB
:10176000000F3BD1D7BB207DE16A00E050E041EAA9
:1017700080352068C06844F203018843284321680B
:10178000C86094F83800012817D1606A08B1A06ACF
:1017900000B900BFA08F401E012141EA0041206C2A
:1017A0000843616C0843A16C084321680969264A13
:1017B000114008432168086105E02068006920F0B5
:1017C0000100216808612068006920F07040616BA9
:1017D0000843216808612046FEF702FEE068012800
:1017E00009D12068006B20F00F00A169491E084351
:1017F0002168086305E02068006B20F00F00216875
:101800000863606D20F0020040F00100606505E0B3
:10181000606D40F0100060654FF001094846D8E661
:10182000C0FFFF5FC0FFFF7F24000024400D0300C6
:1018300000200240002102400023024000630258C1
:101840000060025803C0F0FF1EF800FC7047000063
:1018500010B5B8B00446142132A8FEF785FDC021AA
:1018600002A8FEF781FD2149206888423CD14FF44F
:1018700000210020CDE9021088102B9002A803F06F
:10188000F3F908B1FFF78DF900BF1948006840F07F
:101890002000174908600846006800F02000019009
:1018A00000BF00BF00BF12480830006840F00400CD
:1018B0000F49083108600846006800F004000190F4
:1018C00000BF00BF022032900320339000203490EC
:1018D00032A9084801F092FF00221146122002F0BE
:1018E0008FF9122002F078F938B010BD00200240C4
:1018F000D8440258000802582DE9F04704460F4624
:10190000524A2168914203D0514A2168914201D143
:10191000504900E05049084606F053FA0546206950
:10192000082801D1082628E01DB1052D01D0092D78
:101930000DD12068C06800F0010030B1606D40F04A
:10194000200060650120BDE8F087042615E03F4ACD
:101950002168914203D03E4A2168914201D13D491C
:1019600000E03D49084606F027FA28B1606D40F0D6
:10197000200060650120E6E7042602F049F8804671
:1019800017E0781CA8B102F043F8A0EB0800B842B9
:1019900000D877B920680068304050B9606D40F0D9
:1019A0000400606500BF002084F8500000BF0320E1
:1019B000C9E72068006830400028E2D0606D40F43C
:1019C00000706065206806F01FFA98B1607D88B9E4
:1019D0002068006800F0080008280BD1606D20F432
:1019E00080706065606D00F4805018B9606D40F0E3
:1019F0000100606516492068884201D1134800E063
:101A000020682168884204D01DB1052D01D0092D20
:101A100003D12068D0F80C9009E00D492068884275
:101A200001D10A4800E020688246DAF80C90082EBE
:101A300003D108202168086005E009F4804010B94E
:101A40000C202168086000207DE700000020024093
:101A50000021024000230240006302582DE9F041BA
:101A60000446474A2168914203D0464A2168914280
:101A700001D1454900E04549084606F0A2F905466E
:101A8000206806F0B7F9002877D100BF94F850001D
:101A9000012802D10220BDE8F081012084F8500025
:101AA00000BF2046FEF74EFD0646002E60D1606D59
:101AB00040F60161884340F48070606531492068D8
:101AC000884201D12E4800E020682168884200D079
:101AD0001DB9606D20F480106065606D00F4805069
:101AE000B0F5805F04D1A06D20F00600A06501E094
:101AF0000020A0651C202168086000BF002084F839
:101B0000500000BF1F492068884201D11C4800E0F6
:101B100020682168884204D01DB1052D01D0092D0F
:101B20000ED12068C06800F0007028B1606D20F40C
:101B3000005040F480506065206806F06FF91DE0A9
:101B4000606D40F4801060650E492068884201D1C4
:101B50000B4800E020680746F86800F0007068B1A4
:101B6000606D20F4005040F48050606506E004E0B1
:101B700000BF002084F8500000E0022630468AE7CB
:101B8000002002400021024000230240006302586E
:101B90002DE9F041044601F03BFF804614B90120D5
:101BA000BDE8F08194F83500022808D080206065F7
:101BB00000BF002084F8340000BF0120F0E7FE4998
:101BC0002068884249D0FC4918312068884244D0B6
:101BD000F9493031206888423FD0F74948312068C0
:101BE00088423AD0F44960312068884235D0F249C1
:101BF00078312068884230D0EF499031206888429F
:101C00002BD0ED49A8312068884226D0EB492068C6
:101C1000884222D0E9491831206888421DD0E7491E
:101C200030312068884218D0E44948312068884221
:101C300013D0E2496031206888420ED0DF49783104
:101C40002068884209D0DD4990312068884204D05C
:101C5000DA49A8312068884201D1012000E0002043
:101C600068B12068006820F01E00216808602068C4
:101C7000406920F0800021684861256806E02068FE
:101C8000006820F00E00216808602568CA492068B5
:101C9000884270D0C8491831206888426BD0C64944
:101CA00030312068884266D0C34948312068884274
:101CB00061D0C1496031206888425CD0BE4978312A
:101CC0002068884257D0BC4990312068884252D061
:101CD000B949A831206888424DD0B8492068884267
:101CE00049D0B64918312068884244D0B3493031D0
:101CF000206888423FD0B1494831206888423AD0B4
:101D0000AE4960312068884235D0AC4978312068CE
:101D1000884230D0A9499031206888422BD0A74909
:101D2000A8312068884226D0A5492068884222D060
:101D3000A3491431206888421DD0A1492831206868
:101D4000884218D09E493C312068884213D09C4973
:101D50005031206888420ED0994964312068884209
:101D600009D0974978312068884204D094498C3151
:101D70002068884201D1012000E0002028B1206EB7
:101D8000006820F48070216E08608B4920688842CA
:101D900049D0894918312068884244D08649303179
:101DA000206888423FD084494831206888423AD030
:101DB000814960312068884235D07F497831206878
:101DC000884230D07C499031206888422BD07A49B3
:101DD000A8312068884226D078492068884222D0DD
:101DE00076491831206888421DD074493031206806
:101DF000884218D0714948312068884213D06F4911
:101E00006031206888420ED06C4978312068884261
:101E100009D06A4990312068884204D06749A831C6
:101E20002068884206D12068006820F001002168FF
:101E3000086005E02068006820F001002168086063
:101E400011E001F0E5FDA0EB080005280BD92020EA
:101E50006065032084F8350000BF002084F834005A
:101E600000BF01209CE6286800F001000028E8D1AE
:101E700051492068884249D04F491831206888422A
:101E800044D04D493031206888423FD04A494831DA
:101E9000206888423AD0484960312068884235D06D
:101EA000454978312068884230D0434990312068D4
:101EB00088422BD04049A8312068884226D03F492B
:101EC0002068884222D03D491831206888421DD0C0
:101ED0003A4930312068884218D038494831206862
:101EE000884213D035496031206888420ED033498A
:101EF00078312068884209D0304990312068884282
:101F000004D02E49A8312068884201D1012000E088
:101F1000002040B1A66D94F85C0000F01F013F2046
:101F20008840B06007E0A76D94F85C0000F01F01E6
:101F300001208840786020492068884276D01E4978
:101F400018312068884271D01B493031206888429E
:101F50006CD0194948312068884267D016496031F1
:101F60002068884262D014497831206888425DD068
:101F7000114990312068884258D00F49A831206813
:101F8000884253D00D49206888424FD00B49183100
:101F9000206888424AD0094930312068884245D0BB
:101FA000064948312068884240D0044960312068A1
:101FB00088423BD0014905E0100002401004024075
:101FC000085402587831206888422FD0254920686B
:101FD00088422BD0234918312068884226D02249D4
:101FE0002068884222D020491431206888421DD0C0
:101FF0001D4928312068884218D01B493C3120688F
:10200000884213D018495031206888420ED01649B2
:1020100064312068884209D01349783120688842A9
:1020200004D011498C312068884201D1012000E0A0
:10203000002068B1D4E919104860E06E40B1E06E4C
:10204000006820F48070E16E0860D4E91C104860DC
:10205000012084F8350000BF002084F8340000BF60
:1020600000BF9DE5A00402400854025870B5044624
:102070000CB9012070BD94F83500022803D08020EF
:1020800060650120F6E7DC492068884249D0DA49DA
:1020900018312068884244D0D749303120688842BE
:1020A0003FD0D5494831206888423AD0D249603182
:1020B0002068884235D0D04978312068884230D0B5
:1020C000CD499031206888422BD0CB49A831206877
:1020D000884226D0C9492068884222D0C749183191
:1020E000206888421DD0C54930312068884218D008
:1020F000C24948312068884213D0C0496031206805
:1021000088420ED0BD4978312068884209D0BB4949
:1021100090312068884204D0B849A83120688842AC
:1021200001D1012000E00020F0B3042084F8350044
:10213000B149206888424BD0AF49183120688842A5
:1021400046D0AD4930312068884241D0AA49483153
:10215000206888423CD0A84960312068884237D046
:10216000A54978312068884232D0A349903120684F
:1021700088422DD0A049A8312068884228D09F49A4
:102180002068884224D09D491831206888421FD099
:102190009A493031206888421AD0984948312068DD
:1021A000884215D0954900E020E0603120688842DF
:1021B0000ED0924978312068884209D08F499031F9
:1021C0002068884204D08D49A8312068884206D111
:1021D0002068006820F001002168086009E120689B
:1021E000006820F001002168086002E120680068B2
:1021F00020F00E00216808607F492068884249D09D
:102200007D4918312068884244D07B4930312068AC
:1022100088423FD078494831206888423AD0764990
:1022200060312068884235D073497831206888420F
:1022300030D071499031206888422BD06E49A83146
:102240002068884226D06D492068884222D06B4998
:102250001831206888421DD0684930312068884292
:1022600018D0664948312068884213D063496031EC
:10227000206888420ED0614978312068884209D0B0
:102280005E4990312068884204D05C49A8312068BA
:10229000884206D12068006820F0010021680860AB
:1022A00005E02068006820F00100216808605249BC
:1022B0002068884270D050491831206888426BD01D
:1022C0004D4930312068884266D04B4948312068FA
:1022D000884261D048496031206888425CD04649D4
:1022E00078312068884257D043499031206888422D
:1022F00052D04149A831206888424DD03F492068DA
:10230000884249D03D4918312068884244D03B4931
:102310003031206888423FD03849483120688842AF
:102320003AD0364960312068884235D03349783117
:102330002068884230D031499031206888422BD0C3
:102340002E49A8312068884226D02D49206888422D
:1023500022D02B491431206888421DD028492831C9
:102360002068884218D026493C312068884213D022
:1023700023495031206888420ED0214964312068B9
:10238000884209D01E4978312068884204D01C490F
:102390008C312068884201D1012000E00020D8B1B2
:1023A000206E006820F48070216E0860A56D94F89E
:1023B0005C0000F01F01012088406860D4E919101A
:1023C0004860E06E40B1E06E006820F48070E16E1D
:1023D0000860D4E91C104860012084F8350000BF73
:1023E000002084F8340000BF206D10B12046216D1C
:1023F000884700203EE60000100002401004024022
:10240000085402582DE9F84F044600200090FE4879
:1024100000684FF41651B0FBF1FAA66DD4F858805D
:102420003768D8F80090F9492068884249D0F749C0
:1024300018312068884244D0F449303120688842FD
:102440003FD0F2494831206888423AD0EF496031A4
:102450002068884235D0ED4978312068884230D0F4
:10246000EA499031206888422BD0E849A831206899
:10247000884226D0E6492068884222D0E4491831B3
:10248000206888421DD0E24930312068884218D047
:10249000DF4948312068884213D0DD496031206827
:1024A00088420ED0DA4978312068884209D0D8496C
:1024B00090312068884204D0D549A83120688842EC
:1024C00001D1012000E0002000287DD094F85C00BC
:1024D00000F01F01082088403840002868D0CB4910
:1024E0002068884249D0C94918312068884244D0C0
:1024F000C6493031206888423FD0C44948312068FD
:1025000088423AD0C14960312068884235D0BF49FD
:1025100078312068884230D0BC49903120688842A8
:102520002BD0BA49A8312068884226D0B849206803
:10253000884222D0B6491831206888421DD0B4495B
:1025400030312068884218D0B1494831206888422B
:1025500013D0AF496031206888420ED0AC49783141
:102560002068884209D0AA4990312068884204D066
:10257000A749A8312068884204D12068006800F08B
:10258000040003E02068006800F0080080B12068C3
:10259000006820F004002168086094F85C0000F0F6
:1025A0001F0108208840B060606D40F00100606548
:1025B00094F85C0000F01F01012088403840E8B327
:1025C00092492068884200E0B7E24BD08F49183129
:1025D0002068884246D08D4930312068884241D0F9
:1025E0008A494831206888423CD088496031206857
:1025F000884237D0854978312068884232D0834973
:102600009031206888422DD08049A83120688842C6
:1026100028D07F492068884224D07D49183120681D
:1026200088421FD07A493031206888421AD07849D0
:1026300048312068884215D0754900E026E06031B5
:10264000206888420ED0724978312068884209D0CB
:102650006F4990312068884204D06D49A8312068C4
:10266000884204D12068406900F0800002E02068C0
:102670000068002050B194F85C0000F01F010120B8
:102680008840B060606D40F00200606594F85C00C6
:1026900000F01F01042088403840E8B35B492068FF
:1026A00088424BD0594918312068884246D0574952
:1026B00030312068884241D05449483120688842EE
:1026C0003CD0524960312068884237D04F49783138
:1026D0002068884232D04D499031206888422DD000
:1026E0004A49A8312068884228D049492068884250
:1026F00024D047491831206888421FD044493031DE
:10270000206888421AD0424948312068884215D052
:102710003F496031206800E024E088420ED03C4907
:1027200078312068884209D0394990312068884240
:1027300004D03749A8312068884204D12068006855
:1027400000F0020002E020680068002050B194F818
:102750005C0000F01F0104208840B060606D40F014
:102760000400606594F85C0000F01F0110208840B0
:102770003840E8B325492068884251D023491831B0
:10278000206888424CD0214930312068884247D0A7
:102790001E4948312068884242D01C496031206877
:1027A00088423DD0194978312068884238D017498D
:1027B00090312068884233D01449A831206888427B
:1027C0002ED01349206888422AD011491831206838
:1027D000884225D00E4930312068884220D00C49EB
:1027E0004831206888421BD009496031206800E0E8
:1027F0004DE0884214D006497831206888420FD0D5
:1028000003499031206805E02400002410000240B4
:1028100010040240884203D0FE492068884204D157
:102820002068006800F0080003E02068006800F0FD
:10283000040060B394F85C0000F01F011020884091
:10284000B0602068006800F4802080B120680068D3
:1028500000F4002028B9206CC8B12046216C8847BC
:1028600015E0A06C98B12046A16C88470FE0206865
:10287000006800F4807028B92068006820F0080023
:1028800021680860206C10B12046216C884794F8BC
:102890005C0000F01F0120208840384000287DD0D7
:1028A000DD492068884249D0DB49183120688842D8
:1028B00044D0D9493031206888423FD0D649483188
:1028C000206888423AD0D44960312068884235D0A7
:1028D000D14978312068884230D0CF499031206882
:1028E00088422BD0CC49A8312068884226D0C949DB
:1028F000A8392068884221D0C6499039206888428A
:102900001CD0C44978392068884217D0C149603941
:102910002068884212D0BF494839206888420DD0CB
:10292000BC4930392068884208D0BA491839206833
:10293000884203D0B7492068884204D120680068E3
:1029400000F0100003E02068006800F0020028B3E7
:1029500094F85C0000F01F0120208840B06094F8DB
:10296000350004282DD12068006820F01600216869
:1029700008602068406920F0800021684861206C70
:1029800008B9A06C28B12068006820F00800216810
:10299000086094F85C0000F01F0100E03FE03F2079
:1029A0008840B060012084F8350000BF002084F822
:1029B000340000BF206D10B12046216D8847BDE86E
:1029C000F88F2068006800F4802080B120680068DB
:1029D00000F4002028B9606C08B32046616C884779
:1029E0001DE0E06BD8B12046E16B884717E0206816
:1029F000006800F4807068B92068006820F010005A
:102A000021680860012084F8350000BF002084F8A8
:102A1000340000BFE06B10B12046E16B8847606D69
:102A200000287AD0606D00F00100E8B3042084F83B
:102A300035007949206888424BD0774918312068A1
:102A4000884246D0744930312068884241D072496A
:102A50004831206888423CD06F4960312068884204
:102A600037D06D4978312068884232D06A49903138
:102A7000206888422DD06849A8312068884228D033
:102A80006449A8392068884223D062499039206877
:102A900088421ED05F4978392068884219D05D4944
:102AA00060392068884200E040E012D05949483936
:102AB000206888420DD0574930392068884208D0B4
:102AC000544918392068884203D052492068884206
:102AD00006D12068006820F001002168086005E048
:102AE0002068006820F001002168086000BF00989D
:102AF000401C0090504500D905E02068006800F0B7
:102B000001000028F3D100BF2068006800F0010038
:102B100020B1032084F8350003E00DE0012084F8A3
:102B2000350000BF002084F8340000BFE06C0028AE
:102B300002D02046E16C8847D9E1384920688842B4
:102B400022D036491431206888421DD033492831BB
:102B50002068884218D031493C312068884213D01F
:102B60002E495031206888420ED02C4964312068AB
:102B7000884209D0294978312068884204D0274901
:102B80008C312068884201D1012000E0002000281B
:102B9000D2D02068056894F85C0000F01F01042082
:102BA000884000EA0900D8B305F00400C0B394F8E7
:102BB0005C0000F01F0104208840C8F8040005F400
:102BC000004080B105F4803030B9A06C0028B3D04B
:102BD0002046A16C88478AE1206C0028ACD02046B2
:102BE000216C884783E105F02000E8BB0A49206892
:102BF000884253D008491831206888424ED006498F
:102C000030312068884249D00349483120688842E1
:102C100044D006E0B80402401000024008540258B4
:102C20004FE0B44960312068884237D0B1497831EB
:102C30002068884232D0AF499031206888422DD038
:102C4000AC49A8312068884228D0AB492068884226
:102C500024D0A9491831206888421FD0A6493031B4
:102C6000206888421AD000E025E0A3494831206856
:102C7000884213D0A0496031206888420ED09E4916
:102C800078312068884209D09B4990312068884279
:102C900004D09949A8312068884206D1206800688C
:102CA00020F008002168086005E02068006820F036
:102CB000040021680860206C10B32046216C88470E
:102CC00015E194F85C0000F01F010220884000EA42
:102CD0000900E8B305F00200D0B394F85C0000F0FE
:102CE0001F0102208840C8F8040005F4004070B1BC
:102CF00005F4803028B9606C10B12046616C8847BB
:102D0000F5E0E06BF0B32046E16B8847EFE005F0BB
:102D10002000C0BB7749206888424ED075491831E1
:102D20002068884249D0734930312068884244D0B5
:102D300070494831206888423FD06E496031206830
:102D400088423AD06B4978312068884235D000E01B
:102D50004EE068499031206888422ED06549A831FC
:102D60002068884229D064492068884225D0624979
:102D700018312068884220D05F493031206888426D
:102D80001BD001E06EE02DE05B49483120688842AD
:102D900013D059496031206888420ED056497831A5
:102DA0002068884209D0544990312068884204D074
:102DB0005149A8312068884206D12068006820F077
:102DC00014002168086005E02068006820F00A000F
:102DD00021680860012084F8350000BF002084F8D5
:102DE000340000BFE06BE8B32046E16B88477EE02B
:102DF00094F85C0000F01F010820884000EA0900F8
:102E000080B305F0080068B33A49206888424BD087
:102E1000384918312068884246D036493031206818
:102E2000884241D033494831206888423CD03149FA
:102E300060312068884237D02E4978312068884236
:102E400032D02C499031206888422DD02949A831B0
:102E50002068884228D028492068884224D0264902
:102E6000183100E043E0206888421DD0224930310B
:102E70002068884218D0204948312068884213D001
:102E80001D496031206888420ED01B497831206886
:102E9000884209D0184990312068884204D01649E8
:102EA000A8312068884206D12068006820F01C0004
:102EB0002168086005E02068006820F00E002168A5
:102EC000086094F85C0000F01F0101208840C8F8F9
:102ED00004000120606584F8350000BF002084F8FC
:102EE000340000BFE06C10B12046E16C884700BFA1
:102EF00065E5000010000240100402402DE9F04199
:102F0000044600F085FD804614B90120BDE8F0813B
:102F1000FE492068884249D0FC491831206888421F
:102F200044D0FA493031206888423FD0F7494831CF
:102F3000206888423AD0F54960312068884235D00F
:102F4000F24978312068884230D0F04990312068C9
:102F500088422BD0ED49A8312068884226D0EC4920
:102F60002068884222D0EA491831206888421DD062
:102F7000E74930312068884218D0E5494831206857
:102F8000884213D0E2496031206888420ED0E0497F
:102F900078312068884209D0DD4990312068884224
:102FA00004D0DB49A8312068884201D1012000E02B
:102FB0000020002873D0606A00B100BF022084F8AE
:102FC000350000BF002084F8340000BFCF492068DE
:102FD000884249D0CD4918312068884244D0CB4935
:102FE0003031206888423FD0C84948312068884243
:102FF0003AD0C64960312068884235D0C34978311B
:103000002068884230D0C1499031206888422BD056
:10301000BE49A8312068884226D0BD492068884230
:1030200022D0BB491831206888421DD0B8493031C0
:103030002068884218D0B64948312068884213D0A9
:10304000B3496031206888420ED0B1497831206898
:10305000884209D0AE4990312068884204D0AC49FA
:10306000A8312068884206D12068006820F001005D
:103070002168086005E02068006820F001002168F0
:1030800008600DE000F0C4FCA0EB0800052807D99B
:1030900020206065032084F83500012036E76AE0CF
:1030A0002068006800F001000028EBD12068056866
:1030B00098480540D4E90201084321690843616941
:1030C0000843A1690843E1690843216A08430543AD
:1030D000606A042803D1D4E90B01084305438E48F4
:1030E00000686FF30F00B0F1005F1DD360682928FE
:1030F00002D360682E2811D960683F2802D3606827
:1031000042280BD96068472802D36068482805D94F
:1031100060684F2804D36068522801D8012000E07D
:10312000002008B145F480152068056020684569D5
:1031300025F00705606A0543606A04280DD1A06A7E
:103140000543E06A48B12046FDF798FB28B14020CE
:103150006065012084F83500D8E620684561204686
:10316000FDF768FA064694F85C0000F01F013F2066
:103170008840B0609EE069492068884222D0674953
:103180001431206888421DD0644928312068884263
:1031900018D062493C312068884213D05F495031D1
:1031A000206888420ED05D4964312068884209D089
:1031B0005A4978312068884204D058498C312068B7
:1031C000884201D1012000E00020E0B3534920688B
:1031D000884222D051491431206888421DD04F497D
:1031E00028312068884218D04C493C3120688842F8
:1031F00013D04A495031206888420ED04749643183
:103200002068884209D0454978312068884204D036
:1032100042498C312068884201D1012000E0002021
:1032200000B100BF022084F8350000BF002084F800
:10323000340000BF2068056839480540A068402870
:1032400002D1102106E02EE0A068802801D1C10142
:1032500000E00021E06841EAD001206941EAD001A4
:10326000606941EAD001A06941EAD001E06941EA20
:10327000D001206A41EA1010054320680560274903
:103280002068401A1421B0FBF1F08000E065204670
:10329000FDF7D0F9074694F85C0000F01F0101200B
:1032A0008840786006E040206065032084F835009F
:1032B00001202BE61549206888427FD01349183138
:1032C000206888427AD0114930312068884275D010
:1032D0000E4948312068884270D00C49603120681E
:1032E00088426BD0094978312068884266D0074906
:1032F00090312068884261D00449A8312068884212
:103300005CD003492068884258D00BE0100002408E
:10331000100402403F8010FE0010005C0854025868
:103320000F00FEFF3B4918312068884246D03949DA
:1033300030312068884241D036494831206888427F
:103340003CD0344960312068884237D031497831E7
:103350002068884232D02F499031206888422DD091
:103360002C49A8312068884228D02B4920688842FF
:1033700024D029491431206888421FD02649283199
:10338000206888421AD024493C312068884215D0F0
:10339000214950312068884210D01F49643120688B
:1033A00088420BD01C4978312068884206D01A49DF
:1033B0008C312068884200E000E001D1012000E06B
:1033C000002000B32046FDF7ABF9A068802801D1AA
:1033D000002060602079216E0860D4E919104860EF
:1033E000606860B16068082809D82046FDF7FAF9DE
:1033F0000020E16E0860D4E91C10486003E0002062
:10340000E0662067606700206065012084F8350071
:1034100000207BE510040240085402582DE9F041D9
:1034200004460D4616461F464FF0000814B9012009
:10343000BDE8F08100BF94F83400012801D10220DA
:10344000F6E7012084F8340000BF94F83500012825
:103450007ED1022084F8350000206065E4492068B0
:10346000884249D0E24918312068884244D0E04976
:103470003031206888423FD0DD4948312068884299
:103480003AD0DB4960312068884235D0D84978315C
:103490002068884230D0D6499031206888422BD0AD
:1034A000D349A8312068884226D0D2492068884272
:1034B00022D0D0491831206888421DD0CD49303102
:1034C0002068884218D0CB4948312068884213D000
:1034D000C8496031206888420ED0C64978312068DA
:1034E000884209D0C34990312068884204D0C1493C
:1034F000A8312068884206D12068006820F00100C9
:103500002168086005E02068006820F0010021685B
:1035100008603B46324629462046FDF707FAB44983
:10352000206888424BD0B24918312068884246D082
:10353000AF4930312068884241D0AD4948312068D8
:1035400088423CD0AA4960312068884237D000E0E8
:1035500042E1A74978312068884230D0A4499031AF
:10356000206888422BD0A249A8312068884226D002
:10357000A0492068884222D09E491831206888429C
:103580001DD09C4930312068884218D09949483173
:103590002068884213D097496031206888420ED055
:1035A000944978312068884209D092499031206846
:1035B000884204D08F49A8312068884201D1012077
:1035C00000E0002080B12068006820F01E0040F07C
:1035D000160021680860206CB0B12068006840F0D7
:1035E0000800216808600FE02068006820F00E00E5
:1035F00040F00A0021680860206C28B1206800684B
:1036000040F004002168086079492068884270D041
:1036100077491831206888426BD07549303120686D
:10362000884266D0724948312068884261D070492A
:103630006031206888425CD06D49783120688842CA
:1036400057D06B4990312068884252D06849A831E0
:10365000206888424DD067492068884249D0654932
:1036600018312068884244D062493031206888424D
:103670003FD060494831206888423AD05D49603186
:103680002068884235D05B4978312068884230D044
:1036900058499031206888422BD05649A83120687B
:1036A000884226D054492068884222D05249143199
:1036B000206888421DD0504928312068884218D09F
:1036C0004D493C312068884213D04B495031206825
:1036D00088420ED0484964312068884209D0464962
:1036E00078312068884204D043498C312068884270
:1036F00001D1012000E0002090B1206E006800F4AC
:10370000803028B1206E006840F48070216E08601F
:10371000E06E28B1E06E006840F48070E16E0860F1
:1037200033492068884249D031491831206888429D
:1037300044D02F493031206888423FD02C4948314D
:10374000206888423AD02A4960312068884235D0C2
:10375000274978312068884230D025499031206847
:1037600088422BD02249A8312068884226D021499E
:103770002068884222D01F491831206888421DD015
:103780001C4930312068884218D01A4948312068D5
:10379000884213D017496031206888420ED01549FD
:1037A00078312068884209D01249903120688842D7
:1037B00004D01049A8312068884206D120680068EA
:1037C00040F001002168086010E02068006840F0C7
:1037D00001002168086009E04FF40060606500BFE7
:1037E000002084F8340000BF4FF0010840461FE677
:1037F000100002401004024008540258F8B5024676
:103800000B4600216F4DD7E001278F401E6806EA66
:103810000704002C72D01E7906F00306012E04D096
:103820001E7906F00306022E13D190684F0003267E
:10383000BE40B0434F00DE68BE40304390605068E9
:1038400001268E40B0431E79C6F300168E403043E9
:1038500050601E7906F00306032E09D0D0684F0091
:103860000326BE40B0434F009E68BE403043D06048
:103870001E7906F00306022E13D1CF0802F12006AE
:1038800056F827004E07F70E0F26BE40B0434F07ED
:10389000FF0E1E69BE403043CF0802F1200646F8F5
:1038A000270010684F000326BE40B0431E7906F083
:1038B00003064F00BE40304310605E6806F4403699
:1038C000002E78D000BF404E366846F002063E4FCC
:1038D0003E603E46366806F00206009600BF00BF16
:1038E0003A4E8F0856F827008E07370F0F26BE4036
:1038F000B043374EB24202D100262EE05BE0354E97
:10390000B24201D1012628E0334EB24201D1022653
:1039100023E0324EB24201D103261EE0304EB242C5
:1039200001D1042619E02F4EB24201D1052614E040
:103930002D4EB24201D106260FE02C4EB24201D1EB
:1039400007260AE02A4EB24201D1082605E0294E98
:10395000B24201D1092600E00A268F073F0FBE4080
:1039600030431A4E8F0846F827004FF0B0463068B3
:10397000A0435E6806F4801606B120434FF0B046BF
:1039800030607068A0435E6806F4001606B12043FC
:103990004FF0B04670606868A0435E6806F4003679
:1039A00006B1204368602868A0435E6806F480364C
:1039B00006B120432860491C1E68CE40002E7FF4CB
:1039C00023AFF8BD80000058F444025808040058A2
:1039D000000002580004025800080258000C025867
:1039E000001002580014025800180258001C025817
:1039F00000200258002402580AB1816101E00B0442
:103A00008361704701480068000C70470010005C3B
:103A1000014800687047000018000024034800684F
:103A200003490978084401490860704718000024D8
:103A30002000002410B5032000F020F902F0A2F9C4
:103A400010490968C1F303210F4A515C01F01F01BD
:103A500020FA01F40B48006800F00F001146085CE2
:103A600000F01F0024FA00F00849086008480460CC
:103A70000F2000F00FF808B1012010BD00F09AF8F7
:103A80000020FAE718440258909D000828000024FE
:103A90002400002470B504461148007808B90120BC
:103AA00070BD0F4800784FF47A71B1FBF0F00D490A
:103AB0000968B1FBF0F5284602F0A6FE08B1012026
:103AC000EEE7102C07D200222146501E00F098F895
:103AD0000548046001E00120E2E70020E0E7000083
:103AE00020000024240000241C0000244178154AF2
:103AF00011600178F9B1121D41681160017B09075D
:103B0000C27A41EA0261827A41EAC241427B41EAD9
:103B10008241827B41EA4241C27B41EA0241427AD0
:103B200041EA0221027A41EA420102781143054A40
:103B30000832116005E00021024A121D1160121DB9
:103B40001160704798ED00E000BF00BF00BFBFF3F9
:103B50005F8F00BF00BF00BF0548006820F48030C1
:103B60000349086000200249703108607047000076
:103B700024ED00E040F001010D4A11600C4970395C
:103B8000096841F480310A4A703A116000BF00BFF1
:103B900000BFBFF34F8F00BF00BF00BF00BF00BF1B
:103BA00000BFBFF36F8F00BF00BF00BF70470000B2
:103BB00094ED00E008B500BF0648006840F0020040
:103BC000044908600846006800F00200009000BF49
:103BD00000BF08BDF44402580146084600280DDB2A
:103BE00000BF00BF00F01F0301229A4043099B0061
:103BF00003F1E023C3F8002100BF00BF00BF7047FE
:103C00002DE9F05F80460D46164605F03BFF07465E
:103C100039462A46334601F00700C0F1070ABAF1D7
:103C2000040F02D94FF0040A01E0C0F1070AD1469F
:103C300000F1040ABAF1070F02D24FF0000A01E0C6
:103C4000A0F1030AD4464FF0010A0AFA09FAAAF1D0
:103C5000010A0AEA020A0AFA0CFA4FF0010B0BFAFF
:103C60000CFBABF1010B0BEA030B4AEA0B042146F8
:103C7000404605F00FFFBDE8F09F000000BF00F0D8
:103C80000702064B19684FF6FF031940044B0B431C
:103C900043EA0221014B196000BF70470CED00E0C0
:103CA0000000FA0570B5044615480068C0F38000AE
:103CB00048B91348006800F00700A04201D0012075
:103CC00070BD0020FCE70E48006820F0070020438C
:103CD0000B490860FFF79CFE054607E0FFF798FEDA
:103CE000401BB0F57A7F01D90120E9E70448083884
:103CF0000068C0F340300028F0D00020E0E700006A
:103D00000C48025810B501F0F3FF05490968C1F3EA
:103D10000211044A515C01F01F01C84010BD0000AF
:103D200020440258909D000870B50146844D2D68CE
:103D300005F00303824D2D68C5F30510804D2D1D40
:103D40002D6805F001047E4D0C352D68C5F3CC05BA
:103D500015FB04F501EE105AB8EE411AF0EE410AD7
:103D600000286FD023B1012B4ED0022B6BD16BE01A
:103D7000734D283D2D68C5F340153DB3704D283D6A
:103D80002D68C5F3C1066F4D25FA06F201EE102A23
:103D9000F8EE411A01EE100AB8EE411A81EE812ABE
:103DA0009FED691AC0EE811A654D08352D68C5F37F
:103DB000080501EE105AB8EE411A31EE811AF7EEFD
:103DC000001A31EE211A22EE010A1CE001EE100A5F
:103DD000B8EE411ADFED5D1A81EE812A9FED5A1A85
:103DE000C0EE811A564D08352D68C5F3080501EE61
:103DF000105AB8EE411A31EE811AF7EE001A31EE80
:103E0000211A22EE010A5BE001EE100AB8EE411A17
:103E1000DFED4F1A81EE812A9FED4B1AC0EE811A19
:103E2000474D08352D68C5F3080501EE105AB8EE68
:103E3000411A31EE811AF7EE001A31EE211A22EE04
:103E4000010A3DE077E01DE001EE100AB8EE411AEC
:103E50009FED402AC2EE011A9FED3B1A80EE812AA7
:103E6000374D08352D68C5F3080501EE105AB8EE38
:103E7000411A32EE011AB7EE002A31EE021A21EE93
:103E8000810A1DE001EE100AB8EE411ADFED2F1A8B
:103E900081EE812A9FED2C1AC0EE811A284D08353B
:103EA0002D68C5F3080501EE105AB8EE411A31EE3F
:103EB000811AF7EE001A31EE211A22EE010A00BF34
:103EC00000BF1F4D08352D68C5F3462501EE105A79
:103ED000B8EE411AF7EE001A31EE211AC0EE011ABF
:103EE000BCEEE11A81ED001A154D08352D68C5F3B9
:103EF000064501EE105AB8EE411AF7EE001A31EEFF
:103F0000211AC0EE011ABCEEE11A81ED011A0C4D26
:103F100008352D68C5F3066501EE105AB8EE411A52
:103F2000F7EE001A31EE211AC0EE011ABCEEE11ACA
:103F300081ED021A03E000250D604D608D6070BDBB
:103F4000284402580090D003000000460024744C1E
:103F50000024744A0024F44A70B50146844D2D684B
:103F600005F00303824D2D68C5F30530804D2D1DEE
:103F70002D68C5F300147E4D14352D68C5F3CC05AE
:103F800015FB04F501EE105AB8EE411AF0EE410AA5
:103F900000286FD023B1012B4ED0022B6BD16BE0E8
:103FA000734D283D2D68C5F340153DB3704D283D38
:103FB0002D68C5F3C1066F4D25FA06F201EE102AF1
:103FC000F8EE411A01EE100AB8EE411A81EE812A8C
:103FD0009FED691AC0EE811A654D10352D68C5F345
:103FE000080501EE105AB8EE411A31EE811AF7EECB
:103FF000001A31EE211A22EE010A1CE001EE100A2D
:10400000B8EE411ADFED5D1A81EE812A9FED5A1A52
:10401000C0EE811A564D10352D68C5F3080501EE26
:10402000105AB8EE411A31EE811AF7EE001A31EE4D
:10403000211A22EE010A5BE001EE100AB8EE411AE5
:10404000DFED4F1A81EE812A9FED4B1AC0EE811AE7
:10405000474D10352D68C5F3080501EE105AB8EE2E
:10406000411A31EE811AF7EE001A31EE211A22EED2
:10407000010A3DE077E01DE001EE100AB8EE411ABA
:104080009FED402AC2EE011A9FED3B1A80EE812A75
:10409000374D10352D68C5F3080501EE105AB8EEFE
:1040A000411A32EE011AB7EE002A31EE021A21EE61
:1040B000810A1DE001EE100AB8EE411ADFED301A58
:1040C00081EE812A9FED2C1AC0EE811A284D103501
:1040D0002D68C5F3080501EE105AB8EE411A31EE0D
:1040E000811AF7EE001A31EE211A22EE010A00BF02
:1040F00000BF1F4D10352D68C5F3462501EE105A3F
:10410000B8EE411AF7EE001A31EE211AC0EE011A8C
:10411000BCEEE11A81ED001A154D10352D68C5F37E
:10412000064501EE105AB8EE411AF7EE001A31EECC
:10413000211AC0EE011ABCEEE11A81ED011A0C4DF4
:1041400010352D68C5F3066501EE105AB8EE411A18
:10415000F7EE001A31EE211AC0EE011ABCEEE11A98
:1041600081ED021A03E000250D604D608D6070BD89
:10417000284402580090D003000000460024744CEC
:104180000024744A0024F44A70B50146844D2D6819
:1041900005F00303824D2D68C5F30550804D2D1D9C
:1041A0002D68C5F300247E4D1C352D68C5F3CC0564
:1041B00015FB04F501EE105AB8EE411AF0EE410A73
:1041C00000286FD023B1012B4ED0022B6BD16BE0B6
:1041D000734D283D2D68C5F340153DB3704D283D06
:1041E0002D68C5F3C1066F4D25FA06F201EE102ABF
:1041F000F8EE411A01EE100AB8EE411A81EE812A5A
:104200009FED691AC0EE811A654D18352D68C5F30A
:10421000080501EE105AB8EE411A31EE811AF7EE98
:10422000001A31EE211A22EE010A1CE001EE100AFA
:10423000B8EE411ADFED5D1A81EE812A9FED5A1A20
:10424000C0EE811A564D18352D68C5F3080501EEEC
:10425000105AB8EE411A31EE811AF7EE001A31EE1B
:10426000211A22EE010A5BE001EE100AB8EE411AB3
:10427000DFED4F1A81EE812A9FED4B1AC0EE811AB5
:10428000474D18352D68C5F3080501EE105AB8EEF4
:10429000411A31EE811AF7EE001A31EE211A22EEA0
:1042A000010A3DE077E01DE001EE100AB8EE411A88
:1042B0009FED402AC2EE011A9FED3B1A80EE812A43
:1042C000374D18352D68C5F3080501EE105AB8EEC4
:1042D000411A32EE011AB7EE002A31EE021A21EE2F
:1042E000810A1DE001EE100AB8EE411ADFED301A26
:1042F00081EE812A9FED2C1AC0EE811A284D1835C7
:104300002D68C5F3080501EE105AB8EE411A31EEDA
:10431000811AF7EE001A31EE211A22EE010A00BFCF
:1043200000BF1F4D18352D68C5F3462501EE105A04
:10433000B8EE411AF7EE001A31EE211AC0EE011A5A
:10434000BCEEE11A81ED001A154D18352D68C5F344
:10435000064501EE105AB8EE411AF7EE001A31EE9A
:10436000211AC0EE011ABCEEE11A81ED011A0C4DC2
:1043700018352D68C5F3066501EE105AB8EE411ADE
:10438000F7EE001A31EE211AC0EE011ABCEEE11A66
:1043900081ED021A03E000250D604D608D6070BD57
:1043A000284402580090D003000000460024744CBA
:1043B0000024744A0024F44A2DE9F04389B00646EB
:1043C0000F464FF4807186EA0100384370D1F748F8
:1043D000006800F00709B9F1050F65D2DFE809F0C0
:1043E000031221623000F1485038006800F000707C
:1043F000B0F1007F04D106A8FFF796FC079C00E00F
:10440000002453E0E9485038006800F00060B0F143
:10441000006F04D103A8FFF79FFD039C00E0002478
:1044200044E0E2485038006800F00050B0F1005F0E
:1044300004D16846FFF7A8FE009C00E0002435E0A8
:10444000DA48001F006800F04055D848503800682E
:1044500000F00400042809D145B9D4485038006858
:10446000C0F3C101D24820FA01F41AE0CF48503815
:10447000006800F48070B0F5807F04D1B5F1805FF2
:1044800001D1CC4C0DE0C9485038006800F4003030
:10449000B0F5003F04D1B5F1005F01D1C64C00E09A
:1044A000002403E0C54C01E0002400BFD4E3FFE793
:1044B0004FF4007186EA010038437AD1BB480068A6
:1044C00000F4E079B9F1800F2CD006DCB9F1000FCF
:1044D0000AD0B9F1400F69D115E0B9F1C00F63D02E
:1044E000B9F5807F62D12CE0B0485038006800F008
:1044F0000070B0F1007F04D106A8FFF715FC079CFF
:1045000000E0002454E0A9485038006800F0006042
:10451000B0F1006F04D103A8FFF71EFD039C00E07B
:10452000002445E0A1485038006800F00050B0F188
:10453000005F04D16846FFF727FE009C00E00024DE
:1045400036E09A48001F006800F040559748503800
:10455000006800F00400042809D145B99348503898
:104560000068C0F3C101924820FA01F41BE08F48B3
:104570005038006800F48070B0F5807F04D1B5F148
:10458000805F01D18B4C0EE088485038006800F401
:104590000030B0F5003F05D1B5F1005F02D1864C87
:1045A00001E006E0002403E0844C01E0002400BFA9
:1045B00052E34FF4806186EA010038437BD17B48A7
:1045C0000830006800F46009B9F5800F2CD006DCD3
:1045D000B9F1000F0AD0B9F5001F69D115E0B9F59E
:1045E000C00F63D0B9F5000F62D12CE06F4850388E
:1045F000006800F00070B0F1007F04D106A8FFF75A
:1046000093FB079C00E0002454E0684850380068A1
:1046100000F00060B0F1006F04D103A8FFF79CFC2C
:10462000039C00E0002445E060485038006800F03A
:104630000050B0F1005F04D16846FFF7A5FD009C73
:1046400000E0002436E05948001F006800F04055A3
:1046500056485038006800F00400042809D145B9D4
:10466000524850380068C0F3C101514820FA01F4A3
:104670001BE04E485038006800F48070B0F5807F31
:1046800004D1B5F1805F01D14A4C0EE04748503863
:10469000006800F40030B0F5003F05D1B5F1005FCF
:1046A00002D1454C01E006E0002403E0434C01E068
:1046B000002400BFD0E24FF4006186EA01003843D5
:1046C00073D13A480830006800F0E069B9F1007F22
:1046D0002CD006DCB9F1000F0AD0B9F1807F75D17A
:1046E00015E0B9F1407F6FD0B9F1806F6ED12CE049
:1046F0002E485038006800F00070B0F1007F04D1FF
:1047000006A8FFF711FB079C00E0002460E02748A3
:104710005038006800F00060B0F1006F04D103A8C9
:10472000FFF71AFC039C00E0002451E01F485038BA
:10473000006800F00050B0F1005F04D16846FFF758
:1047400023FD009C00E0002442E01848001F0068A0
:1047500000F0405515485038006800F00400042867
:1047600009D145B9114850380068C0F3C10110485B
:1047700020FA01F427E00D485038006800F48070FA
:10478000B0F5807F04D1B5F1805F01D1094C1AE00A
:1047900006485038006800F40030B0F5003F11D1F1
:1047A000B5F1005F0ED1044C0DE012E05044025808
:1047B0000090D00300093D0000127A000080BB0089
:1047C00004E001E0002403E0F74C01E0002400BF16
:1047D00042E24FF4805186EA010038437AD1F3482F
:1047E000006800F4E048B8F5005F2CD006DCB8F1B2
:1047F000000F0AD0B8F5805F69D115E0B8F5405FC9
:1048000063D0B8F5804F62D12CE0E848503800689A
:1048100000F00070B0F1007F04D106A8FFF784FA21
:10482000079C00E0002454E0E0485038006800F0A5
:104830000060B0F1006F04D103A8FFF78DFB039C6B
:1048400000E0002445E0D9485038006800F00050EE
:10485000B0F1005F04D16846FFF796FC009C00E0D1
:10486000002436E0D148001F006800F04055CF48D2
:104870005038006800F00400042809D145B9CB483D
:1048800050380068C0F3C101C94820FA01F41BE0A8
:10489000C6485038006800F48070B0F5807F04D1BD
:1048A000B5F1805F01D1C34C0EE0C04850380068BC
:1048B00000F40030B0F5003F05D1B5F1005F02D142
:1048C000BD4C01E006E0002403E0B74C01E0002409
:1048D00000BFC1E14FF4005186EA0100384367D1BF
:1048E000B248006800F4E028B8F5403F33D009DC56
:1048F000B8F1000F0DD0B8F5803F0ED0B8F5003FED
:1049000053D119E0B8F5802F37D0B8F5A02F4CD18E
:104910003FE001F013FA044649E0A448503800682B
:1049200000F00060B0F1006F04D103A8FFF714FBA2
:10493000049C00E000243AE09C485038006800F0F5
:104940000050B0F1005F04D16846FFF71DFC019CE8
:1049500000E000242BE095485038006800F0040087
:10496000042808D1914850380068C0F3C10190482C
:1049700020FA01F400E0002419E08C485038006867
:1049800000F48070B0F5807F01D18A4C00E00024F3
:104990000DE086485038006800F40030B0F5003F64
:1049A00001D1854C00E0002401E0002400BF53E168
:1049B0004FF4002186EA0100384361D17B4808307A
:1049C000006800F44038B8F1000F06D0B8F5803F19
:1049D00012D0B8F5003F50D11DE07448503800683F
:1049E00000F00060B0F1006F04D103A8FFF7B4FA43
:1049F000039C00E0002442E06C485038006800F05E
:104A00000050B0F1005F04D16846FFF7BDFB029C87
:104A100000E0002433E06548001F006800F04055C6
:104A200062485038006800F00400042809D145B9F4
:104A30005E4850380068C0F3C1015D4820FA01F4B7
:104A40001AE05A485038006800F48070B0F5807F52
:104A500004D1B5F1805F01D1564C0DE05348503878
:104A6000006800F40030B0F5003F04D1B5F1005FFC
:104A700001D1514C00E0002401E0002400BFEBE034
:104A80004FF4803186EA010038432CD14748001F9B
:104A9000006800F48038B8F1000F03D0B8F5803F0B
:104AA0001ED10EE041485038006800F00070B0F1AF
:104AB000007F04D106A8FFF737F9079C00E0002427
:104AC00010E03A485038006800F00060B0F1006F24
:104AD00004D103A8FFF740FA059C00E0002401E0A0
:104AE000002400BFB8E04FF4804186EA010038435B
:104AF00072D12E480830006800F0E048B8F1405FFD
:104B000033D009DCB8F1000F0DD0B8F1805F0ED0C2
:104B1000B8F1005F5DD119E0B8F1804F37D0B8F13E
:104B2000A04F56D14AE0FFF7EDF8044653E01F4886
:104B30005038006800F00060B0F1006F04D103A8A5
:104B4000FFF70AFA049C00E0002444E017485038BC
:104B5000006800F00050B0F1005F04D16846FFF734
:104B600013FB019C00E0002435E010485038006839
:104B700000F00400042808D10C4850380068C0F345
:104B8000C1010B4820FA01F400E0002423E00748AB
:104B90005038006800F48070B0F5807F01D1054C7A
:104BA00000E0002417E017E00080BB0050440258EA
:104BB0000090D00300093D0000127A0028480068E8
:104BC00000F40030B0F5003F01D1264C00E0002495
:104BD00001E0002400BF3FE04FF4004186EA0100FD
:104BE000384338D11E485030006800F04058B8F1C2
:104BF000000F06D0B8F1805F0ED0B8F1005F27D16A
:104C000018E01748006800F40030B0F5003F01D10B
:104C1000144C00E000241DE01148006800F0007012
:104C2000B0F1007F04D106A8FFF77EF8079C00E0F2
:104C300000240FE00A48006800F00060B0F1006F47
:104C400004D103A8FFF788F9049C00E0002401E0E8
:104C5000002400BF00E00024204609B0BDE8F08336
:104C60000044025800127A002DE9F0410446002564
:104C7000A8464FF00062D4E900101140002013460E
:104C800059404040014331D1A06E48B1B0F5801F7A
:104C90000DD0B0F5001F11D0B0F5401F16D114E0B3
:104CA000F948006840F40030F749086010E002213C
:104CB00004F1080003F086FB054609E0022104F137
:104CC000280003F031FC054602E001E0012500BFA9
:104CD00000BF55B9EC482430006820F44010A16EA4
:104CE0000843E9492431086000E0A8464FF4807386
:104CF000D4E90010194000205940404001432ED112
:104D0000A06D05281BD2DFE800F0030A1118190076
:104D1000DD48006840F40030DB49086011E0002104
:104D200004F1080003F04EFB05460AE0002104F1FF
:104D3000280003F0F9FB054603E002E001E001254D
:104D400000BF00BF55B9D0482430006820F00700EC
:104D5000A16D0843CC492431086000E0A8464FF417
:104D60000073D4E90010194000205940404001432D
:104D700034D1E06D802818D003DC40B140281DD12B
:104D80000CE0C02818D0B0F5807F17D115E0BE48E0
:104D9000006840F40030BC49086011E0002104F1D3
:104DA000080003F00FFB05460AE0002104F128008B
:104DB00003F0BAFB054603E002E001E0012500BF75
:104DC00000BF55B9B0482430006820F4E070E16DB0
:104DD0000843AD492431086000E0A8464FF48063E1
:104DE000D4E900101940002059404040014339D116
:104DF000D4F8A800B0F5800F1AD004DC50B1B0F59B
:104E0000001F1ED10DE0B0F5C00F18D0B0F5000F97
:104E100017D115E09C48006840F400309A490860BA
:104E200011E0002104F1080003F0CCFA05460AE085
:104E3000002104F1280003F077FB054603E002E0BF
:104E400001E0012500BF00BF5DB98F482C3000682C
:104E500020F46000D4F8A81008438B492C31086076
:104E600000E0A8464FF40062D4E900101140002091
:104E7000134659404040014339D1D4F8AC00B0F159
:104E8000007F1AD004DC50B1B0F1807F1ED10DE05C
:104E9000B0F1407F18D0B0F1806F17D115E07A489B
:104EA000006840F400307849086011E0002104F106
:104EB000080003F087FA05460AE0002104F1280003
:104EC00003F032FB054603E002E001E0012500BFEC
:104ED00000BF5DB96C482C30006820F0E060D4F869
:104EE000AC10084368492C31086000E0A8464FF038
:104EF0000073D4E90001184000215840494008439C
:104F000028D1E06CA8B1102804D0202809D030287E
:104F100010D10DE05C48006840F400305A49086048
:104F20000AE0022104F1080003F04CFA054603E010
:104F300002E001E0012500BF00BF55B95248203012
:104F4000006820F03000E16C08434F4920310860D0
:104F500000E0A8464FF48053D4E900101940002027
:104F600059404040014337D1206EB0F5005F1AD060
:104F700004DC50B1B0F5805F1ED10DE0B0F5405FAC
:104F800018D0B0F5804F17D115E03F48006840F4C5
:104F900000303D49086011E0002104F1080003F0F1
:104FA00011FA05460AE0002104F1280003F0BCFADA
:104FB000054603E002E001E0012500BF00BF55B94E
:104FC00031482430006820F4E040216E08432E4927
:104FD0002431086000E0A8464FF40053D4E90010E3
:104FE0001940002059404040014335D1606EB0F572
:104FF000403F1ED007DC68B1B0F5803F0BD0B0F564
:10500000003F19D10EE0B0F5802F13D0B0F5A02FDE
:1050100012D110E012E0012104F1080003F0D2F9EE
:1050200005460BE0012104F1280003F07DFA054656
:1050300004E003E002E001E0012500BF00BF55B934
:1050400011482430006820F4E020616E08430E49C6
:105050002431086000E0A8464FF48043D4E9000101
:105060001840002158404940084337D1D4F8B000D7
:10507000B0F1405F20D009DC78B1B0F1805F0DD095
:10508000B0F1005F1BD110E02C440258B0F1804F0A
:1050900013D0B0F1A04F12D110E012E0012104F1C1
:1050A000080003F08FF905460BE0012104F1280008
:1050B00003F03AFA054604E003E002E001E00125CE
:1050C00000BF00BF4DB9FE48006820F0E040D4F8B2
:1050D000B0100843FA49086000E0A8464FF40042C7
:1050E000D4E90010114000201346594040400143CC
:1050F00029D1206FB0B1B0F1805F03D0B0F1005F73
:1051000011D108E0EE482C38006840F40030EC493A
:105110002C39086009E0012104F1080003F052F97C
:10512000054602E001E0012500BF00BF55B9E44893
:105130000838006820F04050216F0843E0490839E2
:10514000086000E0A8464FF08072D4E900101140DA
:10515000002013465940404001432AD1A06CB8B109
:10516000012804D002280BD0032812D10FE0D44824
:105170002C38006840F40030D1492C3908600AE02E
:10518000022104F1080003F01DF9054603E002E0E6
:1051900001E0012500BF00BF55B9C9480C380068BF
:1051A00020F00300A16C0843C5490C39086000E0F9
:1051B000A8464FF48002D4E90001104000211346B4
:1051C0005840494008437DD1BE48006840F4807093
:1051D000BC490860FEF71CFC064606E0FEF718FC1A
:1051E000801B642801D9032505E0B648006800F457
:1051F00080700028F2D000BF85BBB148183000682D
:1052000000F44070B4F8B41001F44071884213D037
:10521000AB481830006820F44077A948183000687F
:1052200040F48030A649183108600846006820F430
:105230008030086008460760D4F8B400B0F5807F7D
:1052400015D1FEF7E5FB064609E0FEF7E1FB801B02
:1052500041F28831884202D9032507E038E09848B6
:1052600018300068C0F340000028EED000BF55BBE6
:1052700000BFB4F8B40000F44070B0F5407F0ED128
:105280008F484838006820F47C518F4AD4F8B40025
:10529000104041EA10108A494839086007E0884800
:1052A0004838006820F47C508549483908608448B3
:1052B00018300068B4F8B410C1F30B0108438049FA
:1052C000183101E005E001E0086002E0A84600E0D6
:1052D000A8460122D4E9000110400021134658409D
:1052E0004940084330D1E06F18281AD005DC48B196
:1052F000082808D0102817D10CE0202812D0282820
:1053000012D110E012E0012104F1080003F05AF874
:1053100005460BE0012104F1280003F005F90546DC
:1053200004E003E002E001E0012500BF00BF55B941
:105330006348001F006820F03800E16F08436049AF
:10534000091F086000E0A8460222D4E900011040CD
:105350000021134658404940084329D1A06F062830
:1053600016D2DFE800F003040B12131412E001213F
:1053700004F1080003F026F805460BE0012104F1D2
:10538000280003F0D1F8054604E003E002E001E064
:10539000012500BF00BF55B94948001F006820F033
:1053A0000700A16F08434649091F086000E0A846AE
:1053B0000423D4E900101940002059404040014323
:1053C00029D1D4F89400062816D2DFE800F00304AF
:1053D0000B12131412E0012104F1080002F0F2FF95
:1053E00005460BE0012104F1280003F09DF8054675
:1053F00004E003E002E001E0012500BF00BF4DB979
:105400002F48006820F00700D4F8941008432C4976
:10541000086000E0A8462023D4E9000118400021DC
:1054200058404940084337D1D4F89000B0F1405F6C
:105430001ED007DC68B1B0F1805F0BD0B0F1005F27
:1054400019D10EE0B0F1804F13D0B0F1A04F12D1BE
:1054500010E012E0002104F1080002F0B3FF05465D
:105460000BE0022104F1280003F05EF8054604E099
:1054700003E002E001E0012500BF00BF5DB9104874
:10548000001F006820F0E040D4F8901008430C4959
:10549000091F086000E0A8464023D4E90010194025
:1054A00000205940404001433CD1D4F89C00B0F565
:1054B000406F25D00EDCA0B1B0F5806F12D005E0B2
:1054C0005844025800480258FFFCFF0FB0F5006F27
:1054D00019D10EE0B0F5805F13D0B0F5A05F12D106
:1054E00010E012E0002104F1080002F06BFF054615
:1054F0000BE0022104F1280003F016F8054604E051
:1055000003E002E001E0012500BF00BF4DB9FE4805
:10551000006820F4E050D4F89C100843FA49086071
:1055200000E0A8468023D4E900101940002059402B
:105530004040014335D1D4F8A000B0F5C04F1ED093
:1055400007DC68B1B0F5005F0BD0B0F5804F19D122
:105550000EE0B0F5004F13D0B0F5204F12D110E09F
:1055600012E0002104F1080002F02CFF05460BE0D8
:10557000022104F1280002F0D7FF054604E003E011
:1055800002E001E0012500BF00BF4DB9DE48006820
:1055900020F46040D4F8A0100843DB49086000E024
:1055A000A8460823D4E90010194000205940404083
:1055B000014317D1D4F88400B0F5805F07D10221F0
:1055C00004F1280002F0B0FF08B14FF00108CE4806
:1055D000001F006820F44050D4F884100843CA49E2
:1055E000091F08601023D4E9001019400020594019
:1055F0004040014315D1D4F89800B0F5807F07D121
:10560000022104F1280002F08FFF08B14FF00108D9
:10561000BD48006820F44070D4F898100843BA4997
:1056200008604FF40022D4E9000110400021134625
:1056300058404940084327D1D4F8A40030B1B0F510
:10564000803F0AD0B0F5003F0FD10DE0002104F1FA
:10565000080002F0B7FE054609E0022104F1280027
:1056600002F062FF054602E001E0012500BF00BF35
:105670004DB9A548006820F44030D4F8A410084380
:10568000A149086000E0A8464FF48023D4E9000156
:10569000184000215840494008432DD1D4F88800D3
:1056A000B0F5801F06D0B0F5001F0CD0B0F5401F3C
:1056B00011D10FE094482C38006840F40030924932
:1056C0002C39086009E0012104F1280002F02CFFC8
:1056D000054602E001E0012500BF00BF5DB98A4830
:1056E000001F006820F44010D4F888100843864951
:1056F000091F086000E0A8464FF48032D4E9000199
:1057000010400021134658404940084325D1206DE0
:1057100018B1B0F5803F10D108E07B482C38006804
:1057200040F4003078492C39086008E0022104F187
:10573000080002F047FE054601E0012500BF00BF5A
:1057400055B971480C38006820F48030216D084349
:105750006D490C39086000E0A8464FF00052D4E9CA
:10576000001011400020134659404040014307D12A
:10577000022104F1280002F0D7FE08B14FF0010821
:105780004FF40033D4E9000118400021584049404B
:10579000084329D1D4F88000A0B1B0F5807F06D0AD
:1057A000B0F5007F0CD0B0F5407F0CD109E0564831
:1057B0002C38006840F4003053492C39086004E06C
:1057C00003E002E001E0012500BF00BF5DB94E48E3
:1057D000001F006820F44070D4F8801008434A4944
:1057E000091F086000E0A8464FF48012D4E90010B9
:1057F00011400020134659404040014309D142481E
:105800000838006820F00040616F08433E490839BD
:1058100008604FF08052D4E9001011400020134678
:105820005940404001430AD137484838006820F4C5
:105830008040D4F8B81008433349483908604FF421
:105840000012D4E900101140002013465940404096
:10585000014309D12C480838006820F08070E16EBF
:1058600008432949083908604FF08042D4E9001004
:1058700011400020134659404040014311D100BF60
:1058800021484838006820F400401F494839086022
:1058900008460068D4F8BC1008431B494839086022
:1058A00000BF4FF00042D4E9001011400020134621
:1058B00059404040014309D113480C38006820F09A
:1058C0004050616D084310490C3908604FF40002E4
:1058D000D4E90010114000201346594040400143D4
:1058E0000AD10948001F006820F44000D4F88C1049
:1058F00008430549091F086001230021606818401A
:1059000001224940504001E058440258014306D169
:1059100004F1080002F056FD054605B1A846022232
:1059200000216068104049405040014307D10121E7
:1059300004F1080002F046FD054605B1A84604231F
:10594000002061681940042240405140084307D1BB
:10595000022104F1080002F035FD054605B1A84614
:105960000823002160681840082249405040014344
:1059700006D104F1280002F0D7FD054605B1A8467E
:10598000102200216068104049405040014307D177
:10599000012104F1280002F0C7FD054605B1A84623
:1059A000202200206168114040405140084307D147
:1059B000022104F1280002F0B7FD054605B1A84612
:1059C000B8F1000F02D10020BDE8F0810120FBE713
:1059D0002DE9F04104460D4614B90120BDE8F081DF
:1059E000BD48006800F00F00A8420ED2BA48006817
:1059F00020F00F002843B84908600846006800F00E
:105A00000F00A84201D00120E8E7207800F0040050
:105A100004280ED1B1492069096801F0700188425B
:105A200007D9AE48006820F0700021690843AB49EF
:105A30000860207800F00800082811D1A749091D46
:105A40006069096801F07001884209D9A348001D06
:105A5000006820F0700061690843A049091D0860D2
:105A6000207800F01000102811D19C49091DA06970
:105A7000096801F4E061884209D99848001D00686E
:105A800020F4E060A16908439449091D086020786A
:105A900000F02000202811D190490831E069096800
:105AA00001F07001884209D98C480830006820F064
:105AB0007000E1690843894908310860207800F0E6
:105AC000020002280ED18549E068096801F00F0143
:105AD000884207D98148006820F00F00E168084338
